{
	"contracts/Campaign.sol": {
		"Campaign": {
			"abi": [
				{
					"inputs": [
						{
							"internalType": "uint256",
							"name": "_goal",
							"type": "uint256"
						},
						{
							"internalType": "uint256",
							"name": "_durationInSeconds",
							"type": "uint256"
						},
						{
							"internalType": "address",
							"name": "_owner",
							"type": "address"
						},
						{
							"internalType": "address",
							"name": "_factory",
							"type": "address"
						}
					],
					"stateMutability": "nonpayable",
					"type": "constructor"
				},
				{
					"anonymous": false,
					"inputs": [
						{
							"indexed": true,
							"internalType": "address",
							"name": "contributor",
							"type": "address"
						},
						{
							"indexed": false,
							"internalType": "uint256",
							"name": "amount",
							"type": "uint256"
						}
					],
					"name": "Contribution",
					"type": "event"
				},
				{
					"anonymous": false,
					"inputs": [
						{
							"indexed": true,
							"internalType": "address",
							"name": "contributor",
							"type": "address"
						},
						{
							"indexed": false,
							"internalType": "uint256",
							"name": "amount",
							"type": "uint256"
						}
					],
					"name": "Refund",
					"type": "event"
				},
				{
					"anonymous": false,
					"inputs": [
						{
							"indexed": false,
							"internalType": "uint256",
							"name": "totalContributors",
							"type": "uint256"
						}
					],
					"name": "RewardsDistributed",
					"type": "event"
				},
				{
					"anonymous": false,
					"inputs": [
						{
							"indexed": false,
							"internalType": "enum Campaign.State",
							"name": "newState",
							"type": "uint8"
						}
					],
					"name": "StateChanged",
					"type": "event"
				},
				{
					"anonymous": false,
					"inputs": [
						{
							"indexed": true,
							"internalType": "address",
							"name": "owner",
							"type": "address"
						},
						{
							"indexed": false,
							"internalType": "uint256",
							"name": "amount",
							"type": "uint256"
						}
					],
					"name": "Withdraw",
					"type": "event"
				},
				{
					"inputs": [],
					"name": "claimRefund",
					"outputs": [],
					"stateMutability": "nonpayable",
					"type": "function"
				},
				{
					"inputs": [],
					"name": "contribute",
					"outputs": [],
					"stateMutability": "payable",
					"type": "function"
				},
				{
					"inputs": [
						{
							"internalType": "address",
							"name": "",
							"type": "address"
						}
					],
					"name": "contributions",
					"outputs": [
						{
							"internalType": "uint256",
							"name": "",
							"type": "uint256"
						}
					],
					"stateMutability": "view",
					"type": "function"
				},
				{
					"inputs": [
						{
							"internalType": "uint256",
							"name": "",
							"type": "uint256"
						}
					],
					"name": "contributors",
					"outputs": [
						{
							"internalType": "address",
							"name": "",
							"type": "address"
						}
					],
					"stateMutability": "view",
					"type": "function"
				},
				{
					"inputs": [],
					"name": "deadline",
					"outputs": [
						{
							"internalType": "uint256",
							"name": "",
							"type": "uint256"
						}
					],
					"stateMutability": "view",
					"type": "function"
				},
				{
					"inputs": [],
					"name": "factory",
					"outputs": [
						{
							"internalType": "address",
							"name": "",
							"type": "address"
						}
					],
					"stateMutability": "view",
					"type": "function"
				},
				{
					"inputs": [],
					"name": "getBalance",
					"outputs": [
						{
							"internalType": "uint256",
							"name": "",
							"type": "uint256"
						}
					],
					"stateMutability": "view",
					"type": "function"
				},
				{
					"inputs": [],
					"name": "getContributorsCount",
					"outputs": [
						{
							"internalType": "uint256",
							"name": "",
							"type": "uint256"
						}
					],
					"stateMutability": "view",
					"type": "function"
				},
				{
					"inputs": [],
					"name": "goal",
					"outputs": [
						{
							"internalType": "uint256",
							"name": "",
							"type": "uint256"
						}
					],
					"stateMutability": "view",
					"type": "function"
				},
				{
					"inputs": [],
					"name": "owner",
					"outputs": [
						{
							"internalType": "address",
							"name": "",
							"type": "address"
						}
					],
					"stateMutability": "view",
					"type": "function"
				},
				{
					"inputs": [],
					"name": "refund",
					"outputs": [],
					"stateMutability": "nonpayable",
					"type": "function"
				},
				{
					"inputs": [],
					"name": "state",
					"outputs": [
						{
							"internalType": "enum Campaign.State",
							"name": "",
							"type": "uint8"
						}
					],
					"stateMutability": "view",
					"type": "function"
				},
				{
					"inputs": [],
					"name": "totalContributed",
					"outputs": [
						{
							"internalType": "uint256",
							"name": "",
							"type": "uint256"
						}
					],
					"stateMutability": "view",
					"type": "function"
				},
				{
					"inputs": [],
					"name": "withdrawAndPrepareRewards",
					"outputs": [
						{
							"internalType": "address[]",
							"name": "",
							"type": "address[]"
						},
						{
							"internalType": "uint256[]",
							"name": "",
							"type": "uint256[]"
						}
					],
					"stateMutability": "nonpayable",
					"type": "function"
				}
			],
			"devdoc": {
				"kind": "dev",
				"methods": {
					"withdrawAndPrepareRewards()": {
						"details": "Ne mint pas directement les tokens, renvoie les données à la factory"
					}
				},
				"version": 1
			},
			"evm": {
				"assembly": "    /* \"contracts/Campaign.sol\":110:5068  contract Campaign {... */\n  mstore(0x40, 0x80)\n    /* \"contracts/Campaign.sol\":1262:1716  constructor(... */\n  callvalue\n  dup1\n  iszero\n  tag_1\n  jumpi\n  0x00\n  dup1\n  revert\ntag_1:\n  pop\n  mload(0x40)\n  sub(codesize, bytecodeSize)\n  dup1\n  bytecodeSize\n  dup4\n  codecopy\n  dup2\n  dup2\n  add\n  0x40\n  mstore\n  dup2\n  add\n  swap1\n  tag_2\n  swap2\n  swap1\n  tag_3\n  jump\t// in\ntag_2:\n    /* \"contracts/Campaign.sol\":1415:1416  0 */\n  0x00\n    /* \"contracts/Campaign.sol\":1407:1412  _goal */\n  dup5\n    /* \"contracts/Campaign.sol\":1407:1416  _goal > 0 */\n  gt\n    /* \"contracts/Campaign.sol\":1399:1437  require(_goal > 0, \"Goal must be > 0\") */\n  tag_6\n  jumpi\n  mload(0x40)\n  0x08c379a000000000000000000000000000000000000000000000000000000000\n  dup2\n  mstore\n  0x04\n  add\n  tag_7\n  swap1\n  tag_8\n  jump\t// in\ntag_7:\n  mload(0x40)\n  dup1\n  swap2\n  sub\n  swap1\n  revert\ntag_6:\n    /* \"contracts/Campaign.sol\":1473:1474  0 */\n  0x00\n    /* \"contracts/Campaign.sol\":1455:1475  _owner != address(0) */\n  0xffffffffffffffffffffffffffffffffffffffff\n  and\n    /* \"contracts/Campaign.sol\":1455:1461  _owner */\n  dup3\n    /* \"contracts/Campaign.sol\":1455:1475  _owner != address(0) */\n  0xffffffffffffffffffffffffffffffffffffffff\n  and\n  sub\n    /* \"contracts/Campaign.sol\":1447:1490  require(_owner != address(0), \"Zero owner\") */\n  tag_9\n  jumpi\n  mload(0x40)\n  0x08c379a000000000000000000000000000000000000000000000000000000000\n  dup2\n  mstore\n  0x04\n  add\n  tag_10\n  swap1\n  tag_11\n  jump\t// in\ntag_10:\n  mload(0x40)\n  dup1\n  swap2\n  sub\n  swap1\n  revert\ntag_9:\n    /* \"contracts/Campaign.sol\":1528:1529  0 */\n  0x00\n    /* \"contracts/Campaign.sol\":1508:1530  _factory != address(0) */\n  0xffffffffffffffffffffffffffffffffffffffff\n  and\n    /* \"contracts/Campaign.sol\":1508:1516  _factory */\n  dup2\n    /* \"contracts/Campaign.sol\":1508:1530  _factory != address(0) */\n  0xffffffffffffffffffffffffffffffffffffffff\n  and\n  sub\n    /* \"contracts/Campaign.sol\":1500:1547  require(_factory != address(0), \"Zero factory\") */\n  tag_12\n  jumpi\n  mload(0x40)\n  0x08c379a000000000000000000000000000000000000000000000000000000000\n  dup2\n  mstore\n  0x04\n  add\n  tag_13\n  swap1\n  tag_14\n  jump\t// in\ntag_13:\n  mload(0x40)\n  dup1\n  swap2\n  sub\n  swap1\n  revert\ntag_12:\n    /* \"contracts/Campaign.sol\":1566:1572  _owner */\n  dup2\n    /* \"contracts/Campaign.sol\":1558:1563  owner */\n  0x03\n  0x01\n    /* \"contracts/Campaign.sol\":1558:1572  owner = _owner */\n  0x0100\n  exp\n  dup2\n  sload\n  dup2\n  0xffffffffffffffffffffffffffffffffffffffff\n  mul\n  not\n  and\n  swap1\n  dup4\n  0xffffffffffffffffffffffffffffffffffffffff\n  and\n  mul\n  or\n  swap1\n  sstore\n  pop\n    /* \"contracts/Campaign.sol\":1589:1594  _goal */\n  dup4\n    /* \"contracts/Campaign.sol\":1582:1586  goal */\n  0x00\n    /* \"contracts/Campaign.sol\":1582:1594  goal = _goal */\n  dup2\n  swap1\n  sstore\n  pop\n    /* \"contracts/Campaign.sol\":1633:1651  _durationInSeconds */\n  dup3\n    /* \"contracts/Campaign.sol\":1615:1630  block.timestamp */\n  timestamp\n    /* \"contracts/Campaign.sol\":1615:1651  block.timestamp + _durationInSeconds */\n  tag_15\n  swap2\n  swap1\n  tag_16\n  jump\t// in\ntag_15:\n    /* \"contracts/Campaign.sol\":1604:1612  deadline */\n  0x01\n    /* \"contracts/Campaign.sol\":1604:1651  deadline = block.timestamp + _durationInSeconds */\n  dup2\n  swap1\n  sstore\n  pop\n    /* \"contracts/Campaign.sol\":1669:1681  State.Active */\n  0x00\n    /* \"contracts/Campaign.sol\":1661:1666  state */\n  0x03\n  0x00\n    /* \"contracts/Campaign.sol\":1661:1681  state = State.Active */\n  0x0100\n  exp\n  dup2\n  sload\n  dup2\n  0xff\n  mul\n  not\n  and\n  swap1\n  dup4\n  0x02\n  dup2\n  gt\n  iszero\n  tag_17\n  jumpi\n  tag_18\n  tag_19\n  jump\t// in\ntag_18:\ntag_17:\n  mul\n  or\n  swap1\n  sstore\n  pop\n    /* \"contracts/Campaign.sol\":1701:1709  _factory */\n  dup1\n    /* \"contracts/Campaign.sol\":1691:1698  factory */\n  0x04\n  0x00\n    /* \"contracts/Campaign.sol\":1691:1709  factory = _factory */\n  0x0100\n  exp\n  dup2\n  sload\n  dup2\n  0xffffffffffffffffffffffffffffffffffffffff\n  mul\n  not\n  and\n  swap1\n  dup4\n  0xffffffffffffffffffffffffffffffffffffffff\n  and\n  mul\n  or\n  swap1\n  sstore\n  pop\n    /* \"contracts/Campaign.sol\":1262:1716  constructor(... */\n  pop\n  pop\n  pop\n  pop\n    /* \"contracts/Campaign.sol\":110:5068  contract Campaign {... */\n  jump(tag_20)\n    /* \"#utility.yul\":88:205   */\ntag_22:\n    /* \"#utility.yul\":197:198   */\n  0x00\n    /* \"#utility.yul\":194:195   */\n  dup1\n    /* \"#utility.yul\":187:199   */\n  revert\n    /* \"#utility.yul\":334:411   */\ntag_24:\n    /* \"#utility.yul\":371:378   */\n  0x00\n    /* \"#utility.yul\":400:405   */\n  dup2\n    /* \"#utility.yul\":389:405   */\n  swap1\n  pop\n    /* \"#utility.yul\":334:411   */\n  swap2\n  swap1\n  pop\n  jump\t// out\n    /* \"#utility.yul\":417:539   */\ntag_25:\n    /* \"#utility.yul\":490:514   */\n  tag_45\n    /* \"#utility.yul\":508:513   */\n  dup2\n    /* \"#utility.yul\":490:514   */\n  tag_24\n  jump\t// in\ntag_45:\n    /* \"#utility.yul\":483:488   */\n  dup2\n    /* \"#utility.yul\":480:515   */\n  eq\n    /* \"#utility.yul\":470:533   */\n  tag_46\n  jumpi\n    /* \"#utility.yul\":529:530   */\n  0x00\n    /* \"#utility.yul\":526:527   */\n  dup1\n    /* \"#utility.yul\":519:531   */\n  revert\n    /* \"#utility.yul\":470:533   */\ntag_46:\n    /* \"#utility.yul\":417:539   */\n  pop\n  jump\t// out\n    /* \"#utility.yul\":545:688   */\ntag_26:\n    /* \"#utility.yul\":602:607   */\n  0x00\n    /* \"#utility.yul\":633:639   */\n  dup2\n    /* \"#utility.yul\":627:640   */\n  mload\n    /* \"#utility.yul\":618:640   */\n  swap1\n  pop\n    /* \"#utility.yul\":649:682   */\n  tag_48\n    /* \"#utility.yul\":676:681   */\n  dup2\n    /* \"#utility.yul\":649:682   */\n  tag_25\n  jump\t// in\ntag_48:\n    /* \"#utility.yul\":545:688   */\n  swap3\n  swap2\n  pop\n  pop\n  jump\t// out\n    /* \"#utility.yul\":694:820   */\ntag_27:\n    /* \"#utility.yul\":731:738   */\n  0x00\n    /* \"#utility.yul\":771:813   */\n  0xffffffffffffffffffffffffffffffffffffffff\n    /* \"#utility.yul\":764:769   */\n  dup3\n    /* \"#utility.yul\":760:814   */\n  and\n    /* \"#utility.yul\":749:814   */\n  swap1\n  pop\n    /* \"#utility.yul\":694:820   */\n  swap2\n  swap1\n  pop\n  jump\t// out\n    /* \"#utility.yul\":826:922   */\ntag_28:\n    /* \"#utility.yul\":863:870   */\n  0x00\n    /* \"#utility.yul\":892:916   */\n  tag_51\n    /* \"#utility.yul\":910:915   */\n  dup3\n    /* \"#utility.yul\":892:916   */\n  tag_27\n  jump\t// in\ntag_51:\n    /* \"#utility.yul\":881:916   */\n  swap1\n  pop\n    /* \"#utility.yul\":826:922   */\n  swap2\n  swap1\n  pop\n  jump\t// out\n    /* \"#utility.yul\":928:1050   */\ntag_29:\n    /* \"#utility.yul\":1001:1025   */\n  tag_53\n    /* \"#utility.yul\":1019:1024   */\n  dup2\n    /* \"#utility.yul\":1001:1025   */\n  tag_28\n  jump\t// in\ntag_53:\n    /* \"#utility.yul\":994:999   */\n  dup2\n    /* \"#utility.yul\":991:1026   */\n  eq\n    /* \"#utility.yul\":981:1044   */\n  tag_54\n  jumpi\n    /* \"#utility.yul\":1040:1041   */\n  0x00\n    /* \"#utility.yul\":1037:1038   */\n  dup1\n    /* \"#utility.yul\":1030:1042   */\n  revert\n    /* \"#utility.yul\":981:1044   */\ntag_54:\n    /* \"#utility.yul\":928:1050   */\n  pop\n  jump\t// out\n    /* \"#utility.yul\":1056:1199   */\ntag_30:\n    /* \"#utility.yul\":1113:1118   */\n  0x00\n    /* \"#utility.yul\":1144:1150   */\n  dup2\n    /* \"#utility.yul\":1138:1151   */\n  mload\n    /* \"#utility.yul\":1129:1151   */\n  swap1\n  pop\n    /* \"#utility.yul\":1160:1193   */\n  tag_56\n    /* \"#utility.yul\":1187:1192   */\n  dup2\n    /* \"#utility.yul\":1160:1193   */\n  tag_29\n  jump\t// in\ntag_56:\n    /* \"#utility.yul\":1056:1199   */\n  swap3\n  swap2\n  pop\n  pop\n  jump\t// out\n    /* \"#utility.yul\":1205:2025   */\ntag_3:\n    /* \"#utility.yul\":1302:1308   */\n  0x00\n    /* \"#utility.yul\":1310:1316   */\n  dup1\n    /* \"#utility.yul\":1318:1324   */\n  0x00\n    /* \"#utility.yul\":1326:1332   */\n  dup1\n    /* \"#utility.yul\":1375:1378   */\n  0x80\n    /* \"#utility.yul\":1363:1372   */\n  dup6\n    /* \"#utility.yul\":1354:1361   */\n  dup8\n    /* \"#utility.yul\":1350:1373   */\n  sub\n    /* \"#utility.yul\":1346:1379   */\n  slt\n    /* \"#utility.yul\":1343:1463   */\n  iszero\n  tag_58\n  jumpi\n    /* \"#utility.yul\":1382:1461   */\n  tag_59\n  tag_22\n  jump\t// in\ntag_59:\n    /* \"#utility.yul\":1343:1463   */\ntag_58:\n    /* \"#utility.yul\":1502:1503   */\n  0x00\n    /* \"#utility.yul\":1527:1591   */\n  tag_60\n    /* \"#utility.yul\":1583:1590   */\n  dup8\n    /* \"#utility.yul\":1574:1580   */\n  dup3\n    /* \"#utility.yul\":1563:1572   */\n  dup9\n    /* \"#utility.yul\":1559:1581   */\n  add\n    /* \"#utility.yul\":1527:1591   */\n  tag_26\n  jump\t// in\ntag_60:\n    /* \"#utility.yul\":1517:1591   */\n  swap5\n  pop\n    /* \"#utility.yul\":1473:1601   */\n  pop\n    /* \"#utility.yul\":1640:1642   */\n  0x20\n    /* \"#utility.yul\":1666:1730   */\n  tag_61\n    /* \"#utility.yul\":1722:1729   */\n  dup8\n    /* \"#utility.yul\":1713:1719   */\n  dup3\n    /* \"#utility.yul\":1702:1711   */\n  dup9\n    /* \"#utility.yul\":1698:1720   */\n  add\n    /* \"#utility.yul\":1666:1730   */\n  tag_26\n  jump\t// in\ntag_61:\n    /* \"#utility.yul\":1656:1730   */\n  swap4\n  pop\n    /* \"#utility.yul\":1611:1740   */\n  pop\n    /* \"#utility.yul\":1779:1781   */\n  0x40\n    /* \"#utility.yul\":1805:1869   */\n  tag_62\n    /* \"#utility.yul\":1861:1868   */\n  dup8\n    /* \"#utility.yul\":1852:1858   */\n  dup3\n    /* \"#utility.yul\":1841:1850   */\n  dup9\n    /* \"#utility.yul\":1837:1859   */\n  add\n    /* \"#utility.yul\":1805:1869   */\n  tag_30\n  jump\t// in\ntag_62:\n    /* \"#utility.yul\":1795:1869   */\n  swap3\n  pop\n    /* \"#utility.yul\":1750:1879   */\n  pop\n    /* \"#utility.yul\":1918:1920   */\n  0x60\n    /* \"#utility.yul\":1944:2008   */\n  tag_63\n    /* \"#utility.yul\":2000:2007   */\n  dup8\n    /* \"#utility.yul\":1991:1997   */\n  dup3\n    /* \"#utility.yul\":1980:1989   */\n  dup9\n    /* \"#utility.yul\":1976:1998   */\n  add\n    /* \"#utility.yul\":1944:2008   */\n  tag_30\n  jump\t// in\ntag_63:\n    /* \"#utility.yul\":1934:2008   */\n  swap2\n  pop\n    /* \"#utility.yul\":1889:2018   */\n  pop\n    /* \"#utility.yul\":1205:2025   */\n  swap3\n  swap6\n  swap2\n  swap5\n  pop\n  swap3\n  pop\n  jump\t// out\n    /* \"#utility.yul\":2031:2200   */\ntag_31:\n    /* \"#utility.yul\":2115:2126   */\n  0x00\n    /* \"#utility.yul\":2149:2155   */\n  dup3\n    /* \"#utility.yul\":2144:2147   */\n  dup3\n    /* \"#utility.yul\":2137:2156   */\n  mstore\n    /* \"#utility.yul\":2189:2193   */\n  0x20\n    /* \"#utility.yul\":2184:2187   */\n  dup3\n    /* \"#utility.yul\":2180:2194   */\n  add\n    /* \"#utility.yul\":2165:2194   */\n  swap1\n  pop\n    /* \"#utility.yul\":2031:2200   */\n  swap3\n  swap2\n  pop\n  pop\n  jump\t// out\n    /* \"#utility.yul\":2206:2372   */\ntag_32:\n    /* \"#utility.yul\":2346:2364   */\n  0x476f616c206d757374206265203e203000000000000000000000000000000000\n    /* \"#utility.yul\":2342:2343   */\n  0x00\n    /* \"#utility.yul\":2334:2340   */\n  dup3\n    /* \"#utility.yul\":2330:2344   */\n  add\n    /* \"#utility.yul\":2323:2365   */\n  mstore\n    /* \"#utility.yul\":2206:2372   */\n  pop\n  jump\t// out\n    /* \"#utility.yul\":2378:2744   */\ntag_33:\n    /* \"#utility.yul\":2520:2523   */\n  0x00\n    /* \"#utility.yul\":2541:2608   */\n  tag_67\n    /* \"#utility.yul\":2605:2607   */\n  0x10\n    /* \"#utility.yul\":2600:2603   */\n  dup4\n    /* \"#utility.yul\":2541:2608   */\n  tag_31\n  jump\t// in\ntag_67:\n    /* \"#utility.yul\":2534:2608   */\n  swap2\n  pop\n    /* \"#utility.yul\":2617:2710   */\n  tag_68\n    /* \"#utility.yul\":2706:2709   */\n  dup3\n    /* \"#utility.yul\":2617:2710   */\n  tag_32\n  jump\t// in\ntag_68:\n    /* \"#utility.yul\":2735:2737   */\n  0x20\n    /* \"#utility.yul\":2730:2733   */\n  dup3\n    /* \"#utility.yul\":2726:2738   */\n  add\n    /* \"#utility.yul\":2719:2738   */\n  swap1\n  pop\n    /* \"#utility.yul\":2378:2744   */\n  swap2\n  swap1\n  pop\n  jump\t// out\n    /* \"#utility.yul\":2750:3169   */\ntag_8:\n    /* \"#utility.yul\":2916:2920   */\n  0x00\n    /* \"#utility.yul\":2954:2956   */\n  0x20\n    /* \"#utility.yul\":2943:2952   */\n  dup3\n    /* \"#utility.yul\":2939:2957   */\n  add\n    /* \"#utility.yul\":2931:2957   */\n  swap1\n  pop\n    /* \"#utility.yul\":3003:3012   */\n  dup2\n    /* \"#utility.yul\":2997:3001   */\n  dup2\n    /* \"#utility.yul\":2993:3013   */\n  sub\n    /* \"#utility.yul\":2989:2990   */\n  0x00\n    /* \"#utility.yul\":2978:2987   */\n  dup4\n    /* \"#utility.yul\":2974:2991   */\n  add\n    /* \"#utility.yul\":2967:3014   */\n  mstore\n    /* \"#utility.yul\":3031:3162   */\n  tag_70\n    /* \"#utility.yul\":3157:3161   */\n  dup2\n    /* \"#utility.yul\":3031:3162   */\n  tag_33\n  jump\t// in\ntag_70:\n    /* \"#utility.yul\":3023:3162   */\n  swap1\n  pop\n    /* \"#utility.yul\":2750:3169   */\n  swap2\n  swap1\n  pop\n  jump\t// out\n    /* \"#utility.yul\":3175:3335   */\ntag_34:\n    /* \"#utility.yul\":3315:3327   */\n  0x5a65726f206f776e657200000000000000000000000000000000000000000000\n    /* \"#utility.yul\":3311:3312   */\n  0x00\n    /* \"#utility.yul\":3303:3309   */\n  dup3\n    /* \"#utility.yul\":3299:3313   */\n  add\n    /* \"#utility.yul\":3292:3328   */\n  mstore\n    /* \"#utility.yul\":3175:3335   */\n  pop\n  jump\t// out\n    /* \"#utility.yul\":3341:3707   */\ntag_35:\n    /* \"#utility.yul\":3483:3486   */\n  0x00\n    /* \"#utility.yul\":3504:3571   */\n  tag_73\n    /* \"#utility.yul\":3568:3570   */\n  0x0a\n    /* \"#utility.yul\":3563:3566   */\n  dup4\n    /* \"#utility.yul\":3504:3571   */\n  tag_31\n  jump\t// in\ntag_73:\n    /* \"#utility.yul\":3497:3571   */\n  swap2\n  pop\n    /* \"#utility.yul\":3580:3673   */\n  tag_74\n    /* \"#utility.yul\":3669:3672   */\n  dup3\n    /* \"#utility.yul\":3580:3673   */\n  tag_34\n  jump\t// in\ntag_74:\n    /* \"#utility.yul\":3698:3700   */\n  0x20\n    /* \"#utility.yul\":3693:3696   */\n  dup3\n    /* \"#utility.yul\":3689:3701   */\n  add\n    /* \"#utility.yul\":3682:3701   */\n  swap1\n  pop\n    /* \"#utility.yul\":3341:3707   */\n  swap2\n  swap1\n  pop\n  jump\t// out\n    /* \"#utility.yul\":3713:4132   */\ntag_11:\n    /* \"#utility.yul\":3879:3883   */\n  0x00\n    /* \"#utility.yul\":3917:3919   */\n  0x20\n    /* \"#utility.yul\":3906:3915   */\n  dup3\n    /* \"#utility.yul\":3902:3920   */\n  add\n    /* \"#utility.yul\":3894:3920   */\n  swap1\n  pop\n    /* \"#utility.yul\":3966:3975   */\n  dup2\n    /* \"#utility.yul\":3960:3964   */\n  dup2\n    /* \"#utility.yul\":3956:3976   */\n  sub\n    /* \"#utility.yul\":3952:3953   */\n  0x00\n    /* \"#utility.yul\":3941:3950   */\n  dup4\n    /* \"#utility.yul\":3937:3954   */\n  add\n    /* \"#utility.yul\":3930:3977   */\n  mstore\n    /* \"#utility.yul\":3994:4125   */\n  tag_76\n    /* \"#utility.yul\":4120:4124   */\n  dup2\n    /* \"#utility.yul\":3994:4125   */\n  tag_35\n  jump\t// in\ntag_76:\n    /* \"#utility.yul\":3986:4125   */\n  swap1\n  pop\n    /* \"#utility.yul\":3713:4132   */\n  swap2\n  swap1\n  pop\n  jump\t// out\n    /* \"#utility.yul\":4138:4300   */\ntag_36:\n    /* \"#utility.yul\":4278:4292   */\n  0x5a65726f20666163746f72790000000000000000000000000000000000000000\n    /* \"#utility.yul\":4274:4275   */\n  0x00\n    /* \"#utility.yul\":4266:4272   */\n  dup3\n    /* \"#utility.yul\":4262:4276   */\n  add\n    /* \"#utility.yul\":4255:4293   */\n  mstore\n    /* \"#utility.yul\":4138:4300   */\n  pop\n  jump\t// out\n    /* \"#utility.yul\":4306:4672   */\ntag_37:\n    /* \"#utility.yul\":4448:4451   */\n  0x00\n    /* \"#utility.yul\":4469:4536   */\n  tag_79\n    /* \"#utility.yul\":4533:4535   */\n  0x0c\n    /* \"#utility.yul\":4528:4531   */\n  dup4\n    /* \"#utility.yul\":4469:4536   */\n  tag_31\n  jump\t// in\ntag_79:\n    /* \"#utility.yul\":4462:4536   */\n  swap2\n  pop\n    /* \"#utility.yul\":4545:4638   */\n  tag_80\n    /* \"#utility.yul\":4634:4637   */\n  dup3\n    /* \"#utility.yul\":4545:4638   */\n  tag_36\n  jump\t// in\ntag_80:\n    /* \"#utility.yul\":4663:4665   */\n  0x20\n    /* \"#utility.yul\":4658:4661   */\n  dup3\n    /* \"#utility.yul\":4654:4666   */\n  add\n    /* \"#utility.yul\":4647:4666   */\n  swap1\n  pop\n    /* \"#utility.yul\":4306:4672   */\n  swap2\n  swap1\n  pop\n  jump\t// out\n    /* \"#utility.yul\":4678:5097   */\ntag_14:\n    /* \"#utility.yul\":4844:4848   */\n  0x00\n    /* \"#utility.yul\":4882:4884   */\n  0x20\n    /* \"#utility.yul\":4871:4880   */\n  dup3\n    /* \"#utility.yul\":4867:4885   */\n  add\n    /* \"#utility.yul\":4859:4885   */\n  swap1\n  pop\n    /* \"#utility.yul\":4931:4940   */\n  dup2\n    /* \"#utility.yul\":4925:4929   */\n  dup2\n    /* \"#utility.yul\":4921:4941   */\n  sub\n    /* \"#utility.yul\":4917:4918   */\n  0x00\n    /* \"#utility.yul\":4906:4915   */\n  dup4\n    /* \"#utility.yul\":4902:4919   */\n  add\n    /* \"#utility.yul\":4895:4942   */\n  mstore\n    /* \"#utility.yul\":4959:5090   */\n  tag_82\n    /* \"#utility.yul\":5085:5089   */\n  dup2\n    /* \"#utility.yul\":4959:5090   */\n  tag_37\n  jump\t// in\ntag_82:\n    /* \"#utility.yul\":4951:5090   */\n  swap1\n  pop\n    /* \"#utility.yul\":4678:5097   */\n  swap2\n  swap1\n  pop\n  jump\t// out\n    /* \"#utility.yul\":5103:5283   */\ntag_38:\n    /* \"#utility.yul\":5151:5228   */\n  0x4e487b7100000000000000000000000000000000000000000000000000000000\n    /* \"#utility.yul\":5148:5149   */\n  0x00\n    /* \"#utility.yul\":5141:5229   */\n  mstore\n    /* \"#utility.yul\":5248:5252   */\n  0x11\n    /* \"#utility.yul\":5245:5246   */\n  0x04\n    /* \"#utility.yul\":5238:5253   */\n  mstore\n    /* \"#utility.yul\":5272:5276   */\n  0x24\n    /* \"#utility.yul\":5269:5270   */\n  0x00\n    /* \"#utility.yul\":5262:5277   */\n  revert\n    /* \"#utility.yul\":5289:5480   */\ntag_16:\n    /* \"#utility.yul\":5329:5332   */\n  0x00\n    /* \"#utility.yul\":5348:5368   */\n  tag_85\n    /* \"#utility.yul\":5366:5367   */\n  dup3\n    /* \"#utility.yul\":5348:5368   */\n  tag_24\n  jump\t// in\ntag_85:\n    /* \"#utility.yul\":5343:5368   */\n  swap2\n  pop\n    /* \"#utility.yul\":5382:5402   */\n  tag_86\n    /* \"#utility.yul\":5400:5401   */\n  dup4\n    /* \"#utility.yul\":5382:5402   */\n  tag_24\n  jump\t// in\ntag_86:\n    /* \"#utility.yul\":5377:5402   */\n  swap3\n  pop\n    /* \"#utility.yul\":5425:5426   */\n  dup3\n    /* \"#utility.yul\":5422:5423   */\n  dup3\n    /* \"#utility.yul\":5418:5427   */\n  add\n    /* \"#utility.yul\":5411:5427   */\n  swap1\n  pop\n    /* \"#utility.yul\":5446:5449   */\n  dup1\n    /* \"#utility.yul\":5443:5444   */\n  dup3\n    /* \"#utility.yul\":5440:5450   */\n  gt\n    /* \"#utility.yul\":5437:5473   */\n  iszero\n  tag_87\n  jumpi\n    /* \"#utility.yul\":5453:5471   */\n  tag_88\n  tag_38\n  jump\t// in\ntag_88:\n    /* \"#utility.yul\":5437:5473   */\ntag_87:\n    /* \"#utility.yul\":5289:5480   */\n  swap3\n  swap2\n  pop\n  pop\n  jump\t// out\n    /* \"#utility.yul\":5486:5666   */\ntag_19:\n    /* \"#utility.yul\":5534:5611   */\n  0x4e487b7100000000000000000000000000000000000000000000000000000000\n    /* \"#utility.yul\":5531:5532   */\n  0x00\n    /* \"#utility.yul\":5524:5612   */\n  mstore\n    /* \"#utility.yul\":5631:5635   */\n  0x21\n    /* \"#utility.yul\":5628:5629   */\n  0x04\n    /* \"#utility.yul\":5621:5636   */\n  mstore\n    /* \"#utility.yul\":5655:5659   */\n  0x24\n    /* \"#utility.yul\":5652:5653   */\n  0x00\n    /* \"#utility.yul\":5645:5660   */\n  revert\n    /* \"contracts/Campaign.sol\":110:5068  contract Campaign {... */\ntag_20:\n  dataSize(sub_0)\n  dup1\n  dataOffset(sub_0)\n  0x00\n  codecopy\n  0x00\n  return\nstop\n\nsub_0: assembly {\n        /* \"contracts/Campaign.sol\":110:5068  contract Campaign {... */\n      mstore(0x40, 0x80)\n      jumpi(tag_1, lt(calldatasize, 0x04))\n      shr(0xe0, calldataload(0x00))\n      dup1\n      0x590e1ae3\n      gt\n      tag_16\n      jumpi\n      dup1\n      0xc19d93fb\n      gt\n      tag_17\n      jumpi\n      dup1\n      0xc19d93fb\n      eq\n      tag_12\n      jumpi\n      dup1\n      0xc45a0155\n      eq\n      tag_13\n      jumpi\n      dup1\n      0xd7bb99ba\n      eq\n      tag_14\n      jumpi\n      dup1\n      0xfeed5561\n      eq\n      tag_15\n      jumpi\n      jump(tag_1)\n    tag_17:\n      dup1\n      0x590e1ae3\n      eq\n      tag_9\n      jumpi\n      dup1\n      0x8da5cb5b\n      eq\n      tag_10\n      jumpi\n      dup1\n      0xb5545a3c\n      eq\n      tag_11\n      jumpi\n      jump(tag_1)\n    tag_16:\n      dup1\n      0x3cb5d100\n      gt\n      tag_18\n      jumpi\n      dup1\n      0x3cb5d100\n      eq\n      tag_5\n      jumpi\n      dup1\n      0x3e27c8ac\n      eq\n      tag_6\n      jumpi\n      dup1\n      0x40193883\n      eq\n      tag_7\n      jumpi\n      dup1\n      0x42e94c90\n      eq\n      tag_8\n      jumpi\n      jump(tag_1)\n    tag_18:\n      dup1\n      0x023f4147\n      eq\n      tag_2\n      jumpi\n      dup1\n      0x12065fe0\n      eq\n      tag_3\n      jumpi\n      dup1\n      0x29dcb0cf\n      eq\n      tag_4\n      jumpi\n    tag_1:\n      0x00\n      dup1\n      revert\n        /* \"contracts/Campaign.sol\":280:311  uint256 public totalContributed */\n    tag_2:\n      callvalue\n      dup1\n      iszero\n      tag_19\n      jumpi\n      0x00\n      dup1\n      revert\n    tag_19:\n      pop\n      tag_20\n      tag_21\n      jump\t// in\n    tag_20:\n      mload(0x40)\n      tag_22\n      swap2\n      swap1\n      tag_23\n      jump\t// in\n    tag_22:\n      mload(0x40)\n      dup1\n      swap2\n      sub\n      swap1\n      return\n        /* \"contracts/Campaign.sol\":4967:5066  function getBalance() external view returns (uint256) {... */\n    tag_3:\n      callvalue\n      dup1\n      iszero\n      tag_24\n      jumpi\n      0x00\n      dup1\n      revert\n    tag_24:\n      pop\n      tag_25\n      tag_26\n      jump\t// in\n    tag_25:\n      mload(0x40)\n      tag_27\n      swap2\n      swap1\n      tag_23\n      jump\t// in\n    tag_27:\n      mload(0x40)\n      dup1\n      swap2\n      sub\n      swap1\n      return\n        /* \"contracts/Campaign.sol\":220:243  uint256 public deadline */\n    tag_4:\n      callvalue\n      dup1\n      iszero\n      tag_28\n      jumpi\n      0x00\n      dup1\n      revert\n    tag_28:\n      pop\n      tag_29\n      tag_30\n      jump\t// in\n    tag_29:\n      mload(0x40)\n      tag_31\n      swap2\n      swap1\n      tag_23\n      jump\t// in\n    tag_31:\n      mload(0x40)\n      dup1\n      swap2\n      sub\n      swap1\n      return\n        /* \"contracts/Campaign.sol\":503:532  address[] public contributors */\n    tag_5:\n      callvalue\n      dup1\n      iszero\n      tag_32\n      jumpi\n      0x00\n      dup1\n      revert\n    tag_32:\n      pop\n      tag_33\n      0x04\n      dup1\n      calldatasize\n      sub\n      dup2\n      add\n      swap1\n      tag_34\n      swap2\n      swap1\n      tag_35\n      jump\t// in\n    tag_34:\n      tag_36\n      jump\t// in\n    tag_33:\n      mload(0x40)\n      tag_37\n      swap2\n      swap1\n      tag_38\n      jump\t// in\n    tag_37:\n      mload(0x40)\n      dup1\n      swap2\n      sub\n      swap1\n      return\n        /* \"contracts/Campaign.sol\":2540:3721  function withdrawAndPrepareRewards()... */\n    tag_6:\n      callvalue\n      dup1\n      iszero\n      tag_39\n      jumpi\n      0x00\n      dup1\n      revert\n    tag_39:\n      pop\n      tag_40\n      tag_41\n      jump\t// in\n    tag_40:\n      mload(0x40)\n      tag_42\n      swap3\n      swap2\n      swap1\n      tag_43\n      jump\t// in\n    tag_42:\n      mload(0x40)\n      dup1\n      swap2\n      sub\n      swap1\n      return\n        /* \"contracts/Campaign.sol\":177:196  uint256 public goal */\n    tag_7:\n      callvalue\n      dup1\n      iszero\n      tag_44\n      jumpi\n      0x00\n      dup1\n      revert\n    tag_44:\n      pop\n      tag_45\n      tag_46\n      jump\t// in\n    tag_45:\n      mload(0x40)\n      tag_47\n      swap2\n      swap1\n      tag_23\n      jump\t// in\n    tag_47:\n      mload(0x40)\n      dup1\n      swap2\n      sub\n      swap1\n      return\n        /* \"contracts/Campaign.sol\":449:497  mapping(address => uint256) public contributions */\n    tag_8:\n      callvalue\n      dup1\n      iszero\n      tag_48\n      jumpi\n      0x00\n      dup1\n      revert\n    tag_48:\n      pop\n      tag_49\n      0x04\n      dup1\n      calldatasize\n      sub\n      dup2\n      add\n      swap1\n      tag_50\n      swap2\n      swap1\n      tag_51\n      jump\t// in\n    tag_50:\n      tag_52\n      jump\t// in\n    tag_49:\n      mload(0x40)\n      tag_53\n      swap2\n      swap1\n      tag_23\n      jump\t// in\n    tag_53:\n      mload(0x40)\n      dup1\n      swap2\n      sub\n      swap1\n      return\n        /* \"contracts/Campaign.sol\":3818:4108  function refund() external inState(State.Active) {... */\n    tag_9:\n      callvalue\n      dup1\n      iszero\n      tag_54\n      jumpi\n      0x00\n      dup1\n      revert\n    tag_54:\n      pop\n      tag_55\n      tag_56\n      jump\t// in\n    tag_55:\n      stop\n        /* \"contracts/Campaign.sol\":342:362  address public owner */\n    tag_10:\n      callvalue\n      dup1\n      iszero\n      tag_57\n      jumpi\n      0x00\n      dup1\n      revert\n    tag_57:\n      pop\n      tag_58\n      tag_59\n      jump\t// in\n    tag_58:\n      mload(0x40)\n      tag_60\n      swap2\n      swap1\n      tag_38\n      jump\t// in\n    tag_60:\n      mload(0x40)\n      dup1\n      swap2\n      sub\n      swap1\n      return\n        /* \"contracts/Campaign.sol\":4209:4310  function claimRefund() external inState(State.Failed) {... */\n    tag_11:\n      callvalue\n      dup1\n      iszero\n      tag_61\n      jumpi\n      0x00\n      dup1\n      revert\n    tag_61:\n      pop\n      tag_62\n      tag_63\n      jump\t// in\n    tag_62:\n      stop\n        /* \"contracts/Campaign.sol\":317:335  State public state */\n    tag_12:\n      callvalue\n      dup1\n      iszero\n      tag_64\n      jumpi\n      0x00\n      dup1\n      revert\n    tag_64:\n      pop\n      tag_65\n      tag_66\n      jump\t// in\n    tag_65:\n      mload(0x40)\n      tag_67\n      swap2\n      swap1\n      tag_68\n      jump\t// in\n    tag_67:\n      mload(0x40)\n      dup1\n      swap2\n      sub\n      swap1\n      return\n        /* \"contracts/Campaign.sol\":388:410  address public factory */\n    tag_13:\n      callvalue\n      dup1\n      iszero\n      tag_69\n      jumpi\n      0x00\n      dup1\n      revert\n    tag_69:\n      pop\n      tag_70\n      tag_71\n      jump\t// in\n    tag_70:\n      mload(0x40)\n      tag_72\n      swap2\n      swap1\n      tag_38\n      jump\t// in\n    tag_72:\n      mload(0x40)\n      dup1\n      swap2\n      sub\n      swap1\n      return\n        /* \"contracts/Campaign.sol\":1789:2330  function contribute() external payable inState(State.Active) {... */\n    tag_14:\n      tag_73\n      tag_74\n      jump\t// in\n    tag_73:\n      stop\n        /* \"contracts/Campaign.sol\":4804:4911  function getContributorsCount() external view returns (uint256) {... */\n    tag_15:\n      callvalue\n      dup1\n      iszero\n      tag_75\n      jumpi\n      0x00\n      dup1\n      revert\n    tag_75:\n      pop\n      tag_76\n      tag_77\n      jump\t// in\n    tag_76:\n      mload(0x40)\n      tag_78\n      swap2\n      swap1\n      tag_23\n      jump\t// in\n    tag_78:\n      mload(0x40)\n      dup1\n      swap2\n      sub\n      swap1\n      return\n        /* \"contracts/Campaign.sol\":280:311  uint256 public totalContributed */\n    tag_21:\n      sload(0x02)\n      dup2\n      jump\t// out\n        /* \"contracts/Campaign.sol\":4967:5066  function getBalance() external view returns (uint256) {... */\n    tag_26:\n        /* \"contracts/Campaign.sol\":5012:5019  uint256 */\n      0x00\n        /* \"contracts/Campaign.sol\":5038:5059  address(this).balance */\n      selfbalance\n        /* \"contracts/Campaign.sol\":5031:5059  return address(this).balance */\n      swap1\n      pop\n        /* \"contracts/Campaign.sol\":4967:5066  function getBalance() external view returns (uint256) {... */\n      swap1\n      jump\t// out\n        /* \"contracts/Campaign.sol\":220:243  uint256 public deadline */\n    tag_30:\n      sload(0x01)\n      dup2\n      jump\t// out\n        /* \"contracts/Campaign.sol\":503:532  address[] public contributors */\n    tag_36:\n      0x06\n      dup2\n      dup2\n      sload\n      dup2\n      lt\n      tag_80\n      jumpi\n      0x00\n      dup1\n      revert\n    tag_80:\n      swap1\n      0x00\n      mstore\n      keccak256(0x00, 0x20)\n      add\n      0x00\n      swap2\n      pop\n      sload\n      swap1\n      0x0100\n      exp\n      swap1\n      div\n      0xffffffffffffffffffffffffffffffffffffffff\n      and\n      dup2\n      jump\t// out\n        /* \"contracts/Campaign.sol\":2540:3721  function withdrawAndPrepareRewards()... */\n    tag_41:\n        /* \"contracts/Campaign.sol\":2661:2677  address[] memory */\n      0x60\n        /* \"contracts/Campaign.sol\":2679:2695  uint256[] memory */\n      dup1\n        /* \"contracts/Campaign.sol\":1056:1063  factory */\n      0x04\n      0x00\n      swap1\n      sload\n      swap1\n      0x0100\n      exp\n      swap1\n      div\n      0xffffffffffffffffffffffffffffffffffffffff\n      and\n        /* \"contracts/Campaign.sol\":1042:1063  msg.sender == factory */\n      0xffffffffffffffffffffffffffffffffffffffff\n      and\n        /* \"contracts/Campaign.sol\":1042:1052  msg.sender */\n      caller\n        /* \"contracts/Campaign.sol\":1042:1063  msg.sender == factory */\n      0xffffffffffffffffffffffffffffffffffffffff\n      and\n      eq\n        /* \"contracts/Campaign.sol\":1034:1079  require(msg.sender == factory, \"Not factory\") */\n      tag_83\n      jumpi\n      mload(0x40)\n      0x08c379a000000000000000000000000000000000000000000000000000000000\n      dup2\n      mstore\n      0x04\n      add\n      tag_84\n      swap1\n      tag_85\n      jump\t// in\n    tag_84:\n      mload(0x40)\n      dup1\n      swap2\n      sub\n      swap1\n      revert\n    tag_83:\n        /* \"contracts/Campaign.sol\":2630:2642  State.Funded */\n      0x01\n        /* \"contracts/Campaign.sol\":1214:1220  _state */\n      dup1\n        /* \"contracts/Campaign.sol\":1205:1220  state == _state */\n      0x02\n      dup2\n      gt\n      iszero\n      tag_87\n      jumpi\n      tag_88\n      tag_89\n      jump\t// in\n    tag_88:\n    tag_87:\n        /* \"contracts/Campaign.sol\":1205:1210  state */\n      0x03\n      0x00\n      swap1\n      sload\n      swap1\n      0x0100\n      exp\n      swap1\n      div\n      0xff\n      and\n        /* \"contracts/Campaign.sol\":1205:1220  state == _state */\n      0x02\n      dup2\n      gt\n      iszero\n      tag_90\n      jumpi\n      tag_91\n      tag_89\n      jump\t// in\n    tag_91:\n    tag_90:\n      eq\n        /* \"contracts/Campaign.sol\":1197:1238  require(state == _state, \"Invalid state\") */\n      tag_92\n      jumpi\n      mload(0x40)\n      0x08c379a000000000000000000000000000000000000000000000000000000000\n      dup2\n      mstore\n      0x04\n      add\n      tag_93\n      swap1\n      tag_94\n      jump\t// in\n    tag_93:\n      mload(0x40)\n      dup1\n      swap2\n      sub\n      swap1\n      revert\n    tag_92:\n        /* \"contracts/Campaign.sol\":2738:2746  deadline */\n      sload(0x01)\n        /* \"contracts/Campaign.sol\":2719:2734  block.timestamp */\n      timestamp\n        /* \"contracts/Campaign.sol\":2719:2746  block.timestamp >= deadline */\n      lt\n      iszero\n        /* \"contracts/Campaign.sol\":2711:2770  require(block.timestamp >= deadline, \"Wait until deadline\") */\n      tag_96\n      jumpi\n      mload(0x40)\n      0x08c379a000000000000000000000000000000000000000000000000000000000\n      dup2\n      mstore\n      0x04\n      add\n      tag_97\n      swap1\n      tag_98\n      jump\t// in\n    tag_97:\n      mload(0x40)\n      dup1\n      swap2\n      sub\n      swap1\n      revert\n    tag_96:\n        /* \"contracts/Campaign.sol\":2781:2795  uint256 amount */\n      0x00\n        /* \"contracts/Campaign.sol\":2798:2819  address(this).balance */\n      selfbalance\n        /* \"contracts/Campaign.sol\":2781:2819  uint256 amount = address(this).balance */\n      swap1\n      pop\n        /* \"contracts/Campaign.sol\":2846:2847  0 */\n      0x00\n        /* \"contracts/Campaign.sol\":2837:2843  amount */\n      dup2\n        /* \"contracts/Campaign.sol\":2837:2847  amount > 0 */\n      gt\n        /* \"contracts/Campaign.sol\":2829:2871  require(amount > 0, \"Nothing to withdraw\") */\n      tag_99\n      jumpi\n      mload(0x40)\n      0x08c379a000000000000000000000000000000000000000000000000000000000\n      dup2\n      mstore\n      0x04\n      add\n      tag_100\n      swap1\n      tag_101\n      jump\t// in\n    tag_100:\n      mload(0x40)\n      dup1\n      swap2\n      sub\n      swap1\n      revert\n    tag_99:\n        /* \"contracts/Campaign.sol\":2935:2947  bool success */\n      0x00\n        /* \"contracts/Campaign.sol\":2961:2966  owner */\n      0x03\n      0x01\n      swap1\n      sload\n      swap1\n      0x0100\n      exp\n      swap1\n      div\n      0xffffffffffffffffffffffffffffffffffffffff\n      and\n        /* \"contracts/Campaign.sol\":2953:2972  payable(owner).call */\n      0xffffffffffffffffffffffffffffffffffffffff\n      and\n        /* \"contracts/Campaign.sol\":2980:2986  amount */\n      dup3\n        /* \"contracts/Campaign.sol\":2953:2991  payable(owner).call{value: amount}(\"\") */\n      mload(0x40)\n      tag_102\n      swap1\n      tag_103\n      jump\t// in\n    tag_102:\n      0x00\n      mload(0x40)\n      dup1\n      dup4\n      sub\n      dup2\n      dup6\n      dup8\n      gas\n      call\n      swap3\n      pop\n      pop\n      pop\n      returndatasize\n      dup1\n      0x00\n      dup2\n      eq\n      tag_106\n      jumpi\n      mload(0x40)\n      swap2\n      pop\n      and(add(returndatasize, 0x3f), not(0x1f))\n      dup3\n      add\n      0x40\n      mstore\n      returndatasize\n      dup3\n      mstore\n      returndatasize\n      0x00\n      0x20\n      dup5\n      add\n      returndatacopy\n      jump(tag_105)\n    tag_106:\n      0x60\n      swap2\n      pop\n    tag_105:\n      pop\n        /* \"contracts/Campaign.sol\":2934:2991  (bool success, ) = payable(owner).call{value: amount}(\"\") */\n      pop\n      swap1\n      pop\n        /* \"contracts/Campaign.sol\":3009:3016  success */\n      dup1\n        /* \"contracts/Campaign.sol\":3001:3040  require(success, \"ETH transfer failed\") */\n      tag_107\n      jumpi\n      mload(0x40)\n      0x08c379a000000000000000000000000000000000000000000000000000000000\n      dup2\n      mstore\n      0x04\n      add\n      tag_108\n      swap1\n      tag_109\n      jump\t// in\n    tag_108:\n      mload(0x40)\n      dup1\n      swap2\n      sub\n      swap1\n      revert\n    tag_107:\n        /* \"contracts/Campaign.sol\":3065:3070  owner */\n      0x03\n      0x01\n      swap1\n      sload\n      swap1\n      0x0100\n      exp\n      swap1\n      div\n      0xffffffffffffffffffffffffffffffffffffffff\n      and\n        /* \"contracts/Campaign.sol\":3056:3079  Withdraw(owner, amount) */\n      0xffffffffffffffffffffffffffffffffffffffff\n      and\n      0x884edad9ce6fa2440d8a54cc123490eb96d2768479d49ff9c7366125a9424364\n        /* \"contracts/Campaign.sol\":3072:3078  amount */\n      dup4\n        /* \"contracts/Campaign.sol\":3056:3079  Withdraw(owner, amount) */\n      mload(0x40)\n      tag_110\n      swap2\n      swap1\n      tag_23\n      jump\t// in\n    tag_110:\n      mload(0x40)\n      dup1\n      swap2\n      sub\n      swap1\n      log2\n        /* \"contracts/Campaign.sol\":3090:3101  uint256 len */\n      0x00\n        /* \"contracts/Campaign.sol\":3104:3116  contributors */\n      0x06\n        /* \"contracts/Campaign.sol\":3104:3123  contributors.length */\n      dup1\n      sload\n      swap1\n      pop\n        /* \"contracts/Campaign.sol\":3090:3123  uint256 len = contributors.length */\n      swap1\n      pop\n        /* \"contracts/Campaign.sol\":3147:3148  0 */\n      0x00\n        /* \"contracts/Campaign.sol\":3141:3144  len */\n      dup2\n        /* \"contracts/Campaign.sol\":3141:3148  len > 0 */\n      gt\n        /* \"contracts/Campaign.sol\":3133:3168  require(len > 0, \"No contributors\") */\n      tag_111\n      jumpi\n      mload(0x40)\n      0x08c379a000000000000000000000000000000000000000000000000000000000\n      dup2\n      mstore\n      0x04\n      add\n      tag_112\n      swap1\n      tag_113\n      jump\t// in\n    tag_112:\n      mload(0x40)\n      dup1\n      swap2\n      sub\n      swap1\n      revert\n    tag_111:\n        /* \"contracts/Campaign.sol\":3244:3266  address[] memory addrs */\n      0x00\n        /* \"contracts/Campaign.sol\":3283:3286  len */\n      dup2\n        /* \"contracts/Campaign.sol\":3269:3287  new address[](len) */\n      0xffffffffffffffff\n      dup2\n      gt\n      iszero\n      tag_114\n      jumpi\n      tag_115\n      tag_116\n      jump\t// in\n    tag_115:\n    tag_114:\n      mload(0x40)\n      swap1\n      dup1\n      dup3\n      mstore\n      dup1\n      0x20\n      mul\n      0x20\n      add\n      dup3\n      add\n      0x40\n      mstore\n      dup1\n      iszero\n      tag_117\n      jumpi\n      dup2\n      0x20\n      add\n      0x20\n      dup3\n      mul\n      dup1\n      calldatasize\n      dup4\n      calldatacopy\n      dup1\n      dup3\n      add\n      swap2\n      pop\n      pop\n      swap1\n      pop\n    tag_117:\n      pop\n        /* \"contracts/Campaign.sol\":3244:3287  address[] memory addrs = new address[](len) */\n      swap1\n      pop\n        /* \"contracts/Campaign.sol\":3297:3321  uint256[] memory amounts */\n      0x00\n        /* \"contracts/Campaign.sol\":3338:3341  len */\n      dup3\n        /* \"contracts/Campaign.sol\":3324:3342  new uint256[](len) */\n      0xffffffffffffffff\n      dup2\n      gt\n      iszero\n      tag_118\n      jumpi\n      tag_119\n      tag_116\n      jump\t// in\n    tag_119:\n    tag_118:\n      mload(0x40)\n      swap1\n      dup1\n      dup3\n      mstore\n      dup1\n      0x20\n      mul\n      0x20\n      add\n      dup3\n      add\n      0x40\n      mstore\n      dup1\n      iszero\n      tag_120\n      jumpi\n      dup2\n      0x20\n      add\n      0x20\n      dup3\n      mul\n      dup1\n      calldatasize\n      dup4\n      calldatacopy\n      dup1\n      dup3\n      add\n      swap2\n      pop\n      pop\n      swap1\n      pop\n    tag_120:\n      pop\n        /* \"contracts/Campaign.sol\":3297:3342  uint256[] memory amounts = new uint256[](len) */\n      swap1\n      pop\n        /* \"contracts/Campaign.sol\":3358:3367  uint256 i */\n      0x00\n        /* \"contracts/Campaign.sol\":3353:3642  for (uint256 i = 0; i < len; i++) {... */\n    tag_121:\n        /* \"contracts/Campaign.sol\":3377:3380  len */\n      dup4\n        /* \"contracts/Campaign.sol\":3373:3374  i */\n      dup2\n        /* \"contracts/Campaign.sol\":3373:3380  i < len */\n      lt\n        /* \"contracts/Campaign.sol\":3353:3642  for (uint256 i = 0; i < len; i++) {... */\n      iszero\n      tag_122\n      jumpi\n        /* \"contracts/Campaign.sol\":3401:3420  address contributor */\n      0x00\n        /* \"contracts/Campaign.sol\":3423:3435  contributors */\n      0x06\n        /* \"contracts/Campaign.sol\":3436:3437  i */\n      dup3\n        /* \"contracts/Campaign.sol\":3423:3438  contributors[i] */\n      dup2\n      sload\n      dup2\n      lt\n      tag_124\n      jumpi\n      tag_125\n      tag_126\n      jump\t// in\n    tag_125:\n    tag_124:\n      swap1\n      0x00\n      mstore\n      keccak256(0x00, 0x20)\n      add\n      0x00\n      swap1\n      sload\n      swap1\n      0x0100\n      exp\n      swap1\n      div\n      0xffffffffffffffffffffffffffffffffffffffff\n      and\n        /* \"contracts/Campaign.sol\":3401:3438  address contributor = contributors[i] */\n      swap1\n      pop\n        /* \"contracts/Campaign.sol\":3452:3471  uint256 contributed */\n      0x00\n        /* \"contracts/Campaign.sol\":3474:3487  contributions */\n      0x05\n        /* \"contracts/Campaign.sol\":3474:3500  contributions[contributor] */\n      0x00\n        /* \"contracts/Campaign.sol\":3488:3499  contributor */\n      dup4\n        /* \"contracts/Campaign.sol\":3474:3500  contributions[contributor] */\n      0xffffffffffffffffffffffffffffffffffffffff\n      and\n      0xffffffffffffffffffffffffffffffffffffffff\n      and\n      dup2\n      mstore\n      0x20\n      add\n      swap1\n      dup2\n      mstore\n      0x20\n      add\n      0x00\n      keccak256\n      sload\n        /* \"contracts/Campaign.sol\":3452:3500  uint256 contributed = contributions[contributor] */\n      swap1\n      pop\n        /* \"contracts/Campaign.sol\":3532:3533  0 */\n      0x00\n        /* \"contracts/Campaign.sol\":3518:3529  contributed */\n      dup2\n        /* \"contracts/Campaign.sol\":3518:3533  contributed > 0 */\n      gt\n        /* \"contracts/Campaign.sol\":3514:3632  if (contributed > 0) {... */\n      iszero\n      tag_128\n      jumpi\n        /* \"contracts/Campaign.sol\":3564:3575  contributor */\n      dup2\n        /* \"contracts/Campaign.sol\":3553:3558  addrs */\n      dup6\n        /* \"contracts/Campaign.sol\":3559:3560  i */\n      dup5\n        /* \"contracts/Campaign.sol\":3553:3561  addrs[i] */\n      dup2\n      mload\n      dup2\n      lt\n      tag_129\n      jumpi\n      tag_130\n      tag_126\n      jump\t// in\n    tag_130:\n    tag_129:\n      0x20\n      mul\n      0x20\n      add\n      add\n        /* \"contracts/Campaign.sol\":3553:3575  addrs[i] = contributor */\n      swap1\n      0xffffffffffffffffffffffffffffffffffffffff\n      and\n      swap1\n      dup2\n      0xffffffffffffffffffffffffffffffffffffffff\n      and\n      dup2\n      mstore\n      pop\n      pop\n        /* \"contracts/Campaign.sol\":3606:3617  contributed */\n      dup1\n        /* \"contracts/Campaign.sol\":3593:3600  amounts */\n      dup5\n        /* \"contracts/Campaign.sol\":3601:3602  i */\n      dup5\n        /* \"contracts/Campaign.sol\":3593:3603  amounts[i] */\n      dup2\n      mload\n      dup2\n      lt\n      tag_131\n      jumpi\n      tag_132\n      tag_126\n      jump\t// in\n    tag_132:\n    tag_131:\n      0x20\n      mul\n      0x20\n      add\n      add\n        /* \"contracts/Campaign.sol\":3593:3617  amounts[i] = contributed */\n      dup2\n      dup2\n      mstore\n      pop\n      pop\n        /* \"contracts/Campaign.sol\":3514:3632  if (contributed > 0) {... */\n    tag_128:\n        /* \"contracts/Campaign.sol\":3387:3642  {... */\n      pop\n      pop\n        /* \"contracts/Campaign.sol\":3382:3385  i++ */\n      dup1\n      dup1\n      tag_133\n      swap1\n      tag_134\n      jump\t// in\n    tag_133:\n      swap2\n      pop\n      pop\n        /* \"contracts/Campaign.sol\":3353:3642  for (uint256 i = 0; i < len; i++) {... */\n      jump(tag_121)\n    tag_122:\n      pop\n        /* \"contracts/Campaign.sol\":3657:3680  RewardsDistributed(len) */\n      0x6d1c76d614228b523baa4dcd9539e2c713b54ff4ab3ff2d1627e7f6cd32be442\n        /* \"contracts/Campaign.sol\":3676:3679  len */\n      dup4\n        /* \"contracts/Campaign.sol\":3657:3680  RewardsDistributed(len) */\n      mload(0x40)\n      tag_135\n      swap2\n      swap1\n      tag_23\n      jump\t// in\n    tag_135:\n      mload(0x40)\n      dup1\n      swap2\n      sub\n      swap1\n      log1\n        /* \"contracts/Campaign.sol\":3699:3704  addrs */\n      dup2\n        /* \"contracts/Campaign.sol\":3706:3713  amounts */\n      dup2\n        /* \"contracts/Campaign.sol\":3691:3714  return (addrs, amounts) */\n      swap8\n      pop\n      swap8\n      pop\n      pop\n      pop\n      pop\n      pop\n      pop\n        /* \"contracts/Campaign.sol\":1089:1090  _ */\n      pop\n        /* \"contracts/Campaign.sol\":2540:3721  function withdrawAndPrepareRewards()... */\n      swap1\n      swap2\n      jump\t// out\n        /* \"contracts/Campaign.sol\":177:196  uint256 public goal */\n    tag_46:\n      sload(0x00)\n      dup2\n      jump\t// out\n        /* \"contracts/Campaign.sol\":449:497  mapping(address => uint256) public contributions */\n    tag_52:\n      mstore(0x20, 0x05)\n      dup1\n      0x00\n      mstore\n      keccak256(0x00, 0x40)\n      0x00\n      swap2\n      pop\n      swap1\n      pop\n      sload\n      dup2\n      jump\t// out\n        /* \"contracts/Campaign.sol\":3818:4108  function refund() external inState(State.Active) {... */\n    tag_56:\n        /* \"contracts/Campaign.sol\":3853:3865  State.Active */\n      0x00\n        /* \"contracts/Campaign.sol\":1214:1220  _state */\n      dup1\n        /* \"contracts/Campaign.sol\":1205:1220  state == _state */\n      0x02\n      dup2\n      gt\n      iszero\n      tag_137\n      jumpi\n      tag_138\n      tag_89\n      jump\t// in\n    tag_138:\n    tag_137:\n        /* \"contracts/Campaign.sol\":1205:1210  state */\n      0x03\n      0x00\n      swap1\n      sload\n      swap1\n      0x0100\n      exp\n      swap1\n      div\n      0xff\n      and\n        /* \"contracts/Campaign.sol\":1205:1220  state == _state */\n      0x02\n      dup2\n      gt\n      iszero\n      tag_139\n      jumpi\n      tag_140\n      tag_89\n      jump\t// in\n    tag_140:\n    tag_139:\n      eq\n        /* \"contracts/Campaign.sol\":1197:1238  require(state == _state, \"Invalid state\") */\n      tag_141\n      jumpi\n      mload(0x40)\n      0x08c379a000000000000000000000000000000000000000000000000000000000\n      dup2\n      mstore\n      0x04\n      add\n      tag_142\n      swap1\n      tag_94\n      jump\t// in\n    tag_142:\n      mload(0x40)\n      dup1\n      swap2\n      sub\n      swap1\n      revert\n    tag_141:\n        /* \"contracts/Campaign.sol\":3904:3912  deadline */\n      sload(0x01)\n        /* \"contracts/Campaign.sol\":3885:3900  block.timestamp */\n      timestamp\n        /* \"contracts/Campaign.sol\":3885:3912  block.timestamp >= deadline */\n      lt\n      iszero\n        /* \"contracts/Campaign.sol\":3877:3937  require(block.timestamp >= deadline, \"Deadline not reached\") */\n      tag_144\n      jumpi\n      mload(0x40)\n      0x08c379a000000000000000000000000000000000000000000000000000000000\n      dup2\n      mstore\n      0x04\n      add\n      tag_145\n      swap1\n      tag_146\n      jump\t// in\n    tag_145:\n      mload(0x40)\n      dup1\n      swap2\n      sub\n      swap1\n      revert\n    tag_144:\n        /* \"contracts/Campaign.sol\":3974:3978  goal */\n      sload(0x00)\n        /* \"contracts/Campaign.sol\":3955:3971  totalContributed */\n      sload(0x02)\n        /* \"contracts/Campaign.sol\":3955:3978  totalContributed < goal */\n      lt\n        /* \"contracts/Campaign.sol\":3947:3995  require(totalContributed < goal, \"Goal reached\") */\n      tag_147\n      jumpi\n      mload(0x40)\n      0x08c379a000000000000000000000000000000000000000000000000000000000\n      dup2\n      mstore\n      0x04\n      add\n      tag_148\n      swap1\n      tag_149\n      jump\t// in\n    tag_148:\n      mload(0x40)\n      dup1\n      swap2\n      sub\n      swap1\n      revert\n    tag_147:\n        /* \"contracts/Campaign.sol\":4014:4026  State.Failed */\n      0x02\n        /* \"contracts/Campaign.sol\":4006:4011  state */\n      0x03\n      0x00\n        /* \"contracts/Campaign.sol\":4006:4026  state = State.Failed */\n      0x0100\n      exp\n      dup2\n      sload\n      dup2\n      0xff\n      mul\n      not\n      and\n      swap1\n      dup4\n      0x02\n      dup2\n      gt\n      iszero\n      tag_150\n      jumpi\n      tag_151\n      tag_89\n      jump\t// in\n    tag_151:\n    tag_150:\n      mul\n      or\n      swap1\n      sstore\n      pop\n        /* \"contracts/Campaign.sol\":4041:4060  StateChanged(state) */\n      0x551dc40198cc79684bb69e4931dba4ac16e4598792ee1c0a5000aeea366d7bb6\n        /* \"contracts/Campaign.sol\":4054:4059  state */\n      0x03\n      0x00\n      swap1\n      sload\n      swap1\n      0x0100\n      exp\n      swap1\n      div\n      0xff\n      and\n        /* \"contracts/Campaign.sol\":4041:4060  StateChanged(state) */\n      mload(0x40)\n      tag_152\n      swap2\n      swap1\n      tag_68\n      jump\t// in\n    tag_152:\n      mload(0x40)\n      dup1\n      swap2\n      sub\n      swap1\n      log1\n        /* \"contracts/Campaign.sol\":4071:4101  _refundContributor(msg.sender) */\n      tag_153\n        /* \"contracts/Campaign.sol\":4090:4100  msg.sender */\n      caller\n        /* \"contracts/Campaign.sol\":4071:4089  _refundContributor */\n      tag_154\n        /* \"contracts/Campaign.sol\":4071:4101  _refundContributor(msg.sender) */\n      jump\t// in\n    tag_153:\n        /* \"contracts/Campaign.sol\":3818:4108  function refund() external inState(State.Active) {... */\n      pop\n      jump\t// out\n        /* \"contracts/Campaign.sol\":342:362  address public owner */\n    tag_59:\n      0x03\n      0x01\n      swap1\n      sload\n      swap1\n      0x0100\n      exp\n      swap1\n      div\n      0xffffffffffffffffffffffffffffffffffffffff\n      and\n      dup2\n      jump\t// out\n        /* \"contracts/Campaign.sol\":4209:4310  function claimRefund() external inState(State.Failed) {... */\n    tag_63:\n        /* \"contracts/Campaign.sol\":4249:4261  State.Failed */\n      0x02\n        /* \"contracts/Campaign.sol\":1214:1220  _state */\n      dup1\n        /* \"contracts/Campaign.sol\":1205:1220  state == _state */\n      0x02\n      dup2\n      gt\n      iszero\n      tag_156\n      jumpi\n      tag_157\n      tag_89\n      jump\t// in\n    tag_157:\n    tag_156:\n        /* \"contracts/Campaign.sol\":1205:1210  state */\n      0x03\n      0x00\n      swap1\n      sload\n      swap1\n      0x0100\n      exp\n      swap1\n      div\n      0xff\n      and\n        /* \"contracts/Campaign.sol\":1205:1220  state == _state */\n      0x02\n      dup2\n      gt\n      iszero\n      tag_158\n      jumpi\n      tag_159\n      tag_89\n      jump\t// in\n    tag_159:\n    tag_158:\n      eq\n        /* \"contracts/Campaign.sol\":1197:1238  require(state == _state, \"Invalid state\") */\n      tag_160\n      jumpi\n      mload(0x40)\n      0x08c379a000000000000000000000000000000000000000000000000000000000\n      dup2\n      mstore\n      0x04\n      add\n      tag_161\n      swap1\n      tag_94\n      jump\t// in\n    tag_161:\n      mload(0x40)\n      dup1\n      swap2\n      sub\n      swap1\n      revert\n    tag_160:\n        /* \"contracts/Campaign.sol\":4273:4303  _refundContributor(msg.sender) */\n      tag_163\n        /* \"contracts/Campaign.sol\":4292:4302  msg.sender */\n      caller\n        /* \"contracts/Campaign.sol\":4273:4291  _refundContributor */\n      tag_154\n        /* \"contracts/Campaign.sol\":4273:4303  _refundContributor(msg.sender) */\n      jump\t// in\n    tag_163:\n        /* \"contracts/Campaign.sol\":4209:4310  function claimRefund() external inState(State.Failed) {... */\n      pop\n      jump\t// out\n        /* \"contracts/Campaign.sol\":317:335  State public state */\n    tag_66:\n      0x03\n      0x00\n      swap1\n      sload\n      swap1\n      0x0100\n      exp\n      swap1\n      div\n      0xff\n      and\n      dup2\n      jump\t// out\n        /* \"contracts/Campaign.sol\":388:410  address public factory */\n    tag_71:\n      0x04\n      0x00\n      swap1\n      sload\n      swap1\n      0x0100\n      exp\n      swap1\n      div\n      0xffffffffffffffffffffffffffffffffffffffff\n      and\n      dup2\n      jump\t// out\n        /* \"contracts/Campaign.sol\":1789:2330  function contribute() external payable inState(State.Active) {... */\n    tag_74:\n        /* \"contracts/Campaign.sol\":1836:1848  State.Active */\n      0x00\n        /* \"contracts/Campaign.sol\":1214:1220  _state */\n      dup1\n        /* \"contracts/Campaign.sol\":1205:1220  state == _state */\n      0x02\n      dup2\n      gt\n      iszero\n      tag_165\n      jumpi\n      tag_166\n      tag_89\n      jump\t// in\n    tag_166:\n    tag_165:\n        /* \"contracts/Campaign.sol\":1205:1210  state */\n      0x03\n      0x00\n      swap1\n      sload\n      swap1\n      0x0100\n      exp\n      swap1\n      div\n      0xff\n      and\n        /* \"contracts/Campaign.sol\":1205:1220  state == _state */\n      0x02\n      dup2\n      gt\n      iszero\n      tag_167\n      jumpi\n      tag_168\n      tag_89\n      jump\t// in\n    tag_168:\n    tag_167:\n      eq\n        /* \"contracts/Campaign.sol\":1197:1238  require(state == _state, \"Invalid state\") */\n      tag_169\n      jumpi\n      mload(0x40)\n      0x08c379a000000000000000000000000000000000000000000000000000000000\n      dup2\n      mstore\n      0x04\n      add\n      tag_170\n      swap1\n      tag_94\n      jump\t// in\n    tag_170:\n      mload(0x40)\n      dup1\n      swap2\n      sub\n      swap1\n      revert\n    tag_169:\n        /* \"contracts/Campaign.sol\":1886:1894  deadline */\n      sload(0x01)\n        /* \"contracts/Campaign.sol\":1868:1883  block.timestamp */\n      timestamp\n        /* \"contracts/Campaign.sol\":1868:1894  block.timestamp < deadline */\n      lt\n        /* \"contracts/Campaign.sol\":1860:1914  require(block.timestamp < deadline, \"Deadline passed\") */\n      tag_172\n      jumpi\n      mload(0x40)\n      0x08c379a000000000000000000000000000000000000000000000000000000000\n      dup2\n      mstore\n      0x04\n      add\n      tag_173\n      swap1\n      tag_174\n      jump\t// in\n    tag_173:\n      mload(0x40)\n      dup1\n      swap2\n      sub\n      swap1\n      revert\n    tag_172:\n        /* \"contracts/Campaign.sol\":1944:1945  0 */\n      0x00\n        /* \"contracts/Campaign.sol\":1932:1941  msg.value */\n      callvalue\n        /* \"contracts/Campaign.sol\":1932:1945  msg.value > 0 */\n      gt\n        /* \"contracts/Campaign.sol\":1924:1961  require(msg.value > 0, \"No ETH sent\") */\n      tag_175\n      jumpi\n      mload(0x40)\n      0x08c379a000000000000000000000000000000000000000000000000000000000\n      dup2\n      mstore\n      0x04\n      add\n      tag_176\n      swap1\n      tag_177\n      jump\t// in\n    tag_176:\n      mload(0x40)\n      dup1\n      swap2\n      sub\n      swap1\n      revert\n    tag_175:\n        /* \"contracts/Campaign.sol\":2005:2006  0 */\n      0x00\n        /* \"contracts/Campaign.sol\":1976:1989  contributions */\n      0x05\n        /* \"contracts/Campaign.sol\":1976:2001  contributions[msg.sender] */\n      0x00\n        /* \"contracts/Campaign.sol\":1990:2000  msg.sender */\n      caller\n        /* \"contracts/Campaign.sol\":1976:2001  contributions[msg.sender] */\n      0xffffffffffffffffffffffffffffffffffffffff\n      and\n      0xffffffffffffffffffffffffffffffffffffffff\n      and\n      dup2\n      mstore\n      0x20\n      add\n      swap1\n      dup2\n      mstore\n      0x20\n      add\n      0x00\n      keccak256\n      sload\n        /* \"contracts/Campaign.sol\":1976:2006  contributions[msg.sender] == 0 */\n      sub\n        /* \"contracts/Campaign.sol\":1972:2062  if (contributions[msg.sender] == 0) {... */\n      tag_178\n      jumpi\n        /* \"contracts/Campaign.sol\":2022:2034  contributors */\n      0x06\n        /* \"contracts/Campaign.sol\":2040:2050  msg.sender */\n      caller\n        /* \"contracts/Campaign.sol\":2022:2051  contributors.push(msg.sender) */\n      swap1\n      dup1\n      0x01\n      dup2\n      sload\n      add\n      dup1\n      dup3\n      sstore\n      dup1\n      swap2\n      pop\n      pop\n      0x01\n      swap1\n      sub\n      swap1\n      0x00\n      mstore\n      keccak256(0x00, 0x20)\n      add\n      0x00\n      swap1\n      swap2\n      swap1\n      swap2\n      swap1\n      swap2\n      0x0100\n      exp\n      dup2\n      sload\n      dup2\n      0xffffffffffffffffffffffffffffffffffffffff\n      mul\n      not\n      and\n      swap1\n      dup4\n      0xffffffffffffffffffffffffffffffffffffffff\n      and\n      mul\n      or\n      swap1\n      sstore\n      pop\n        /* \"contracts/Campaign.sol\":1972:2062  if (contributions[msg.sender] == 0) {... */\n    tag_178:\n        /* \"contracts/Campaign.sol\":2101:2110  msg.value */\n      callvalue\n        /* \"contracts/Campaign.sol\":2072:2085  contributions */\n      0x05\n        /* \"contracts/Campaign.sol\":2072:2097  contributions[msg.sender] */\n      0x00\n        /* \"contracts/Campaign.sol\":2086:2096  msg.sender */\n      caller\n        /* \"contracts/Campaign.sol\":2072:2097  contributions[msg.sender] */\n      0xffffffffffffffffffffffffffffffffffffffff\n      and\n      0xffffffffffffffffffffffffffffffffffffffff\n      and\n      dup2\n      mstore\n      0x20\n      add\n      swap1\n      dup2\n      mstore\n      0x20\n      add\n      0x00\n      keccak256\n      0x00\n        /* \"contracts/Campaign.sol\":2072:2110  contributions[msg.sender] += msg.value */\n      dup3\n      dup3\n      sload\n      tag_180\n      swap2\n      swap1\n      tag_181\n      jump\t// in\n    tag_180:\n      swap3\n      pop\n      pop\n      dup2\n      swap1\n      sstore\n      pop\n        /* \"contracts/Campaign.sol\":2140:2149  msg.value */\n      callvalue\n        /* \"contracts/Campaign.sol\":2120:2136  totalContributed */\n      0x02\n      0x00\n        /* \"contracts/Campaign.sol\":2120:2149  totalContributed += msg.value */\n      dup3\n      dup3\n      sload\n      tag_182\n      swap2\n      swap1\n      tag_181\n      jump\t// in\n    tag_182:\n      swap3\n      pop\n      pop\n      dup2\n      swap1\n      sstore\n      pop\n        /* \"contracts/Campaign.sol\":2178:2188  msg.sender */\n      caller\n        /* \"contracts/Campaign.sol\":2165:2200  Contribution(msg.sender, msg.value) */\n      0xffffffffffffffffffffffffffffffffffffffff\n      and\n      0x4d154d4aae216bed6d0926db77c00df2b57c6b5ba4eee05775de20facede3a7b\n        /* \"contracts/Campaign.sol\":2190:2199  msg.value */\n      callvalue\n        /* \"contracts/Campaign.sol\":2165:2200  Contribution(msg.sender, msg.value) */\n      mload(0x40)\n      tag_183\n      swap2\n      swap1\n      tag_23\n      jump\t// in\n    tag_183:\n      mload(0x40)\n      dup1\n      swap2\n      sub\n      swap1\n      log2\n        /* \"contracts/Campaign.sol\":2235:2239  goal */\n      sload(0x00)\n        /* \"contracts/Campaign.sol\":2215:2231  totalContributed */\n      sload(0x02)\n        /* \"contracts/Campaign.sol\":2215:2239  totalContributed >= goal */\n      lt\n        /* \"contracts/Campaign.sol\":2211:2324  if (totalContributed >= goal) {... */\n      tag_184\n      jumpi\n        /* \"contracts/Campaign.sol\":2263:2275  State.Funded */\n      0x01\n        /* \"contracts/Campaign.sol\":2255:2260  state */\n      0x03\n      0x00\n        /* \"contracts/Campaign.sol\":2255:2275  state = State.Funded */\n      0x0100\n      exp\n      dup2\n      sload\n      dup2\n      0xff\n      mul\n      not\n      and\n      swap1\n      dup4\n      0x02\n      dup2\n      gt\n      iszero\n      tag_185\n      jumpi\n      tag_186\n      tag_89\n      jump\t// in\n    tag_186:\n    tag_185:\n      mul\n      or\n      swap1\n      sstore\n      pop\n        /* \"contracts/Campaign.sol\":2294:2313  StateChanged(state) */\n      0x551dc40198cc79684bb69e4931dba4ac16e4598792ee1c0a5000aeea366d7bb6\n        /* \"contracts/Campaign.sol\":2307:2312  state */\n      0x03\n      0x00\n      swap1\n      sload\n      swap1\n      0x0100\n      exp\n      swap1\n      div\n      0xff\n      and\n        /* \"contracts/Campaign.sol\":2294:2313  StateChanged(state) */\n      mload(0x40)\n      tag_187\n      swap2\n      swap1\n      tag_68\n      jump\t// in\n    tag_187:\n      mload(0x40)\n      dup1\n      swap2\n      sub\n      swap1\n      log1\n        /* \"contracts/Campaign.sol\":2211:2324  if (totalContributed >= goal) {... */\n    tag_184:\n        /* \"contracts/Campaign.sol\":1789:2330  function contribute() external payable inState(State.Active) {... */\n      pop\n      jump\t// out\n        /* \"contracts/Campaign.sol\":4804:4911  function getContributorsCount() external view returns (uint256) {... */\n    tag_77:\n        /* \"contracts/Campaign.sol\":4859:4866  uint256 */\n      0x00\n        /* \"contracts/Campaign.sol\":4885:4897  contributors */\n      0x06\n        /* \"contracts/Campaign.sol\":4885:4904  contributors.length */\n      dup1\n      sload\n      swap1\n      pop\n        /* \"contracts/Campaign.sol\":4878:4904  return contributors.length */\n      swap1\n      pop\n        /* \"contracts/Campaign.sol\":4804:4911  function getContributorsCount() external view returns (uint256) {... */\n      swap1\n      jump\t// out\n        /* \"contracts/Campaign.sol\":4367:4745  function _refundContributor(address contributor) internal {... */\n    tag_154:\n        /* \"contracts/Campaign.sol\":4435:4449  uint256 amount */\n      0x00\n        /* \"contracts/Campaign.sol\":4452:4465  contributions */\n      0x05\n        /* \"contracts/Campaign.sol\":4452:4478  contributions[contributor] */\n      0x00\n        /* \"contracts/Campaign.sol\":4466:4477  contributor */\n      dup4\n        /* \"contracts/Campaign.sol\":4452:4478  contributions[contributor] */\n      0xffffffffffffffffffffffffffffffffffffffff\n      and\n      0xffffffffffffffffffffffffffffffffffffffff\n      and\n      dup2\n      mstore\n      0x20\n      add\n      swap1\n      dup2\n      mstore\n      0x20\n      add\n      0x00\n      keccak256\n      sload\n        /* \"contracts/Campaign.sol\":4435:4478  uint256 amount = contributions[contributor] */\n      swap1\n      pop\n        /* \"contracts/Campaign.sol\":4505:4506  0 */\n      0x00\n        /* \"contracts/Campaign.sol\":4496:4502  amount */\n      dup2\n        /* \"contracts/Campaign.sol\":4496:4506  amount > 0 */\n      gt\n        /* \"contracts/Campaign.sol\":4488:4528  require(amount > 0, \"Nothing to refund\") */\n      tag_190\n      jumpi\n      mload(0x40)\n      0x08c379a000000000000000000000000000000000000000000000000000000000\n      dup2\n      mstore\n      0x04\n      add\n      tag_191\n      swap1\n      tag_192\n      jump\t// in\n    tag_191:\n      mload(0x40)\n      dup1\n      swap2\n      sub\n      swap1\n      revert\n    tag_190:\n        /* \"contracts/Campaign.sol\":4568:4569  0 */\n      0x00\n        /* \"contracts/Campaign.sol\":4539:4552  contributions */\n      0x05\n        /* \"contracts/Campaign.sol\":4539:4565  contributions[contributor] */\n      0x00\n        /* \"contracts/Campaign.sol\":4553:4564  contributor */\n      dup5\n        /* \"contracts/Campaign.sol\":4539:4565  contributions[contributor] */\n      0xffffffffffffffffffffffffffffffffffffffff\n      and\n      0xffffffffffffffffffffffffffffffffffffffff\n      and\n      dup2\n      mstore\n      0x20\n      add\n      swap1\n      dup2\n      mstore\n      0x20\n      add\n      0x00\n      keccak256\n        /* \"contracts/Campaign.sol\":4539:4569  contributions[contributor] = 0 */\n      dup2\n      swap1\n      sstore\n      pop\n        /* \"contracts/Campaign.sol\":4581:4593  bool success */\n      0x00\n        /* \"contracts/Campaign.sol\":4607:4618  contributor */\n      dup3\n        /* \"contracts/Campaign.sol\":4599:4624  payable(contributor).call */\n      0xffffffffffffffffffffffffffffffffffffffff\n      and\n        /* \"contracts/Campaign.sol\":4632:4638  amount */\n      dup3\n        /* \"contracts/Campaign.sol\":4599:4643  payable(contributor).call{value: amount}(\"\") */\n      mload(0x40)\n      tag_193\n      swap1\n      tag_103\n      jump\t// in\n    tag_193:\n      0x00\n      mload(0x40)\n      dup1\n      dup4\n      sub\n      dup2\n      dup6\n      dup8\n      gas\n      call\n      swap3\n      pop\n      pop\n      pop\n      returndatasize\n      dup1\n      0x00\n      dup2\n      eq\n      tag_196\n      jumpi\n      mload(0x40)\n      swap2\n      pop\n      and(add(returndatasize, 0x3f), not(0x1f))\n      dup3\n      add\n      0x40\n      mstore\n      returndatasize\n      dup3\n      mstore\n      returndatasize\n      0x00\n      0x20\n      dup5\n      add\n      returndatacopy\n      jump(tag_195)\n    tag_196:\n      0x60\n      swap2\n      pop\n    tag_195:\n      pop\n        /* \"contracts/Campaign.sol\":4580:4643  (bool success, ) = payable(contributor).call{value: amount}(\"\") */\n      pop\n      swap1\n      pop\n        /* \"contracts/Campaign.sol\":4661:4668  success */\n      dup1\n        /* \"contracts/Campaign.sol\":4653:4695  require(success, \"Refund transfer failed\") */\n      tag_197\n      jumpi\n      mload(0x40)\n      0x08c379a000000000000000000000000000000000000000000000000000000000\n      dup2\n      mstore\n      0x04\n      add\n      tag_198\n      swap1\n      tag_199\n      jump\t// in\n    tag_198:\n      mload(0x40)\n      dup1\n      swap2\n      sub\n      swap1\n      revert\n    tag_197:\n        /* \"contracts/Campaign.sol\":4718:4729  contributor */\n      dup3\n        /* \"contracts/Campaign.sol\":4711:4738  Refund(contributor, amount) */\n      0xffffffffffffffffffffffffffffffffffffffff\n      and\n      0xbb28353e4598c3b9199101a66e0989549b659a59a54d2c27fbb183f1932c8e6d\n        /* \"contracts/Campaign.sol\":4731:4737  amount */\n      dup4\n        /* \"contracts/Campaign.sol\":4711:4738  Refund(contributor, amount) */\n      mload(0x40)\n      tag_200\n      swap2\n      swap1\n      tag_23\n      jump\t// in\n    tag_200:\n      mload(0x40)\n      dup1\n      swap2\n      sub\n      swap1\n      log2\n        /* \"contracts/Campaign.sol\":4425:4745  {... */\n      pop\n      pop\n        /* \"contracts/Campaign.sol\":4367:4745  function _refundContributor(address contributor) internal {... */\n      pop\n      jump\t// out\n        /* \"#utility.yul\":7:84   */\n    tag_201:\n        /* \"#utility.yul\":44:51   */\n      0x00\n        /* \"#utility.yul\":73:78   */\n      dup2\n        /* \"#utility.yul\":62:78   */\n      swap1\n      pop\n        /* \"#utility.yul\":7:84   */\n      swap2\n      swap1\n      pop\n      jump\t// out\n        /* \"#utility.yul\":90:208   */\n    tag_202:\n        /* \"#utility.yul\":177:201   */\n      tag_263\n        /* \"#utility.yul\":195:200   */\n      dup2\n        /* \"#utility.yul\":177:201   */\n      tag_201\n      jump\t// in\n    tag_263:\n        /* \"#utility.yul\":172:175   */\n      dup3\n        /* \"#utility.yul\":165:202   */\n      mstore\n        /* \"#utility.yul\":90:208   */\n      pop\n      pop\n      jump\t// out\n        /* \"#utility.yul\":214:436   */\n    tag_23:\n        /* \"#utility.yul\":307:311   */\n      0x00\n        /* \"#utility.yul\":345:347   */\n      0x20\n        /* \"#utility.yul\":334:343   */\n      dup3\n        /* \"#utility.yul\":330:348   */\n      add\n        /* \"#utility.yul\":322:348   */\n      swap1\n      pop\n        /* \"#utility.yul\":358:429   */\n      tag_265\n        /* \"#utility.yul\":426:427   */\n      0x00\n        /* \"#utility.yul\":415:424   */\n      dup4\n        /* \"#utility.yul\":411:428   */\n      add\n        /* \"#utility.yul\":402:408   */\n      dup5\n        /* \"#utility.yul\":358:429   */\n      tag_202\n      jump\t// in\n    tag_265:\n        /* \"#utility.yul\":214:436   */\n      swap3\n      swap2\n      pop\n      pop\n      jump\t// out\n        /* \"#utility.yul\":523:640   */\n    tag_204:\n        /* \"#utility.yul\":632:633   */\n      0x00\n        /* \"#utility.yul\":629:630   */\n      dup1\n        /* \"#utility.yul\":622:634   */\n      revert\n        /* \"#utility.yul\":769:891   */\n    tag_206:\n        /* \"#utility.yul\":842:866   */\n      tag_270\n        /* \"#utility.yul\":860:865   */\n      dup2\n        /* \"#utility.yul\":842:866   */\n      tag_201\n      jump\t// in\n    tag_270:\n        /* \"#utility.yul\":835:840   */\n      dup2\n        /* \"#utility.yul\":832:867   */\n      eq\n        /* \"#utility.yul\":822:885   */\n      tag_271\n      jumpi\n        /* \"#utility.yul\":881:882   */\n      0x00\n        /* \"#utility.yul\":878:879   */\n      dup1\n        /* \"#utility.yul\":871:883   */\n      revert\n        /* \"#utility.yul\":822:885   */\n    tag_271:\n        /* \"#utility.yul\":769:891   */\n      pop\n      jump\t// out\n        /* \"#utility.yul\":897:1036   */\n    tag_207:\n        /* \"#utility.yul\":943:948   */\n      0x00\n        /* \"#utility.yul\":981:987   */\n      dup2\n        /* \"#utility.yul\":968:988   */\n      calldataload\n        /* \"#utility.yul\":959:988   */\n      swap1\n      pop\n        /* \"#utility.yul\":997:1030   */\n      tag_273\n        /* \"#utility.yul\":1024:1029   */\n      dup2\n        /* \"#utility.yul\":997:1030   */\n      tag_206\n      jump\t// in\n    tag_273:\n        /* \"#utility.yul\":897:1036   */\n      swap3\n      swap2\n      pop\n      pop\n      jump\t// out\n        /* \"#utility.yul\":1042:1371   */\n    tag_35:\n        /* \"#utility.yul\":1101:1107   */\n      0x00\n        /* \"#utility.yul\":1150:1152   */\n      0x20\n        /* \"#utility.yul\":1138:1147   */\n      dup3\n        /* \"#utility.yul\":1129:1136   */\n      dup5\n        /* \"#utility.yul\":1125:1148   */\n      sub\n        /* \"#utility.yul\":1121:1153   */\n      slt\n        /* \"#utility.yul\":1118:1237   */\n      iszero\n      tag_275\n      jumpi\n        /* \"#utility.yul\":1156:1235   */\n      tag_276\n      tag_204\n      jump\t// in\n    tag_276:\n        /* \"#utility.yul\":1118:1237   */\n    tag_275:\n        /* \"#utility.yul\":1276:1277   */\n      0x00\n        /* \"#utility.yul\":1301:1354   */\n      tag_277\n        /* \"#utility.yul\":1346:1353   */\n      dup5\n        /* \"#utility.yul\":1337:1343   */\n      dup3\n        /* \"#utility.yul\":1326:1335   */\n      dup6\n        /* \"#utility.yul\":1322:1344   */\n      add\n        /* \"#utility.yul\":1301:1354   */\n      tag_207\n      jump\t// in\n    tag_277:\n        /* \"#utility.yul\":1291:1354   */\n      swap2\n      pop\n        /* \"#utility.yul\":1247:1364   */\n      pop\n        /* \"#utility.yul\":1042:1371   */\n      swap3\n      swap2\n      pop\n      pop\n      jump\t// out\n        /* \"#utility.yul\":1377:1503   */\n    tag_208:\n        /* \"#utility.yul\":1414:1421   */\n      0x00\n        /* \"#utility.yul\":1454:1496   */\n      0xffffffffffffffffffffffffffffffffffffffff\n        /* \"#utility.yul\":1447:1452   */\n      dup3\n        /* \"#utility.yul\":1443:1497   */\n      and\n        /* \"#utility.yul\":1432:1497   */\n      swap1\n      pop\n        /* \"#utility.yul\":1377:1503   */\n      swap2\n      swap1\n      pop\n      jump\t// out\n        /* \"#utility.yul\":1509:1605   */\n    tag_209:\n        /* \"#utility.yul\":1546:1553   */\n      0x00\n        /* \"#utility.yul\":1575:1599   */\n      tag_280\n        /* \"#utility.yul\":1593:1598   */\n      dup3\n        /* \"#utility.yul\":1575:1599   */\n      tag_208\n      jump\t// in\n    tag_280:\n        /* \"#utility.yul\":1564:1599   */\n      swap1\n      pop\n        /* \"#utility.yul\":1509:1605   */\n      swap2\n      swap1\n      pop\n      jump\t// out\n        /* \"#utility.yul\":1611:1729   */\n    tag_210:\n        /* \"#utility.yul\":1698:1722   */\n      tag_282\n        /* \"#utility.yul\":1716:1721   */\n      dup2\n        /* \"#utility.yul\":1698:1722   */\n      tag_209\n      jump\t// in\n    tag_282:\n        /* \"#utility.yul\":1693:1696   */\n      dup3\n        /* \"#utility.yul\":1686:1723   */\n      mstore\n        /* \"#utility.yul\":1611:1729   */\n      pop\n      pop\n      jump\t// out\n        /* \"#utility.yul\":1735:1957   */\n    tag_38:\n        /* \"#utility.yul\":1828:1832   */\n      0x00\n        /* \"#utility.yul\":1866:1868   */\n      0x20\n        /* \"#utility.yul\":1855:1864   */\n      dup3\n        /* \"#utility.yul\":1851:1869   */\n      add\n        /* \"#utility.yul\":1843:1869   */\n      swap1\n      pop\n        /* \"#utility.yul\":1879:1950   */\n      tag_284\n        /* \"#utility.yul\":1947:1948   */\n      0x00\n        /* \"#utility.yul\":1936:1945   */\n      dup4\n        /* \"#utility.yul\":1932:1949   */\n      add\n        /* \"#utility.yul\":1923:1929   */\n      dup5\n        /* \"#utility.yul\":1879:1950   */\n      tag_210\n      jump\t// in\n    tag_284:\n        /* \"#utility.yul\":1735:1957   */\n      swap3\n      swap2\n      pop\n      pop\n      jump\t// out\n        /* \"#utility.yul\":1963:2077   */\n    tag_211:\n        /* \"#utility.yul\":2030:2036   */\n      0x00\n        /* \"#utility.yul\":2064:2069   */\n      dup2\n        /* \"#utility.yul\":2058:2070   */\n      mload\n        /* \"#utility.yul\":2048:2070   */\n      swap1\n      pop\n        /* \"#utility.yul\":1963:2077   */\n      swap2\n      swap1\n      pop\n      jump\t// out\n        /* \"#utility.yul\":2083:2267   */\n    tag_212:\n        /* \"#utility.yul\":2182:2193   */\n      0x00\n        /* \"#utility.yul\":2216:2222   */\n      dup3\n        /* \"#utility.yul\":2211:2214   */\n      dup3\n        /* \"#utility.yul\":2204:2223   */\n      mstore\n        /* \"#utility.yul\":2256:2260   */\n      0x20\n        /* \"#utility.yul\":2251:2254   */\n      dup3\n        /* \"#utility.yul\":2247:2261   */\n      add\n        /* \"#utility.yul\":2232:2261   */\n      swap1\n      pop\n        /* \"#utility.yul\":2083:2267   */\n      swap3\n      swap2\n      pop\n      pop\n      jump\t// out\n        /* \"#utility.yul\":2273:2405   */\n    tag_213:\n        /* \"#utility.yul\":2340:2344   */\n      0x00\n        /* \"#utility.yul\":2363:2366   */\n      dup2\n        /* \"#utility.yul\":2355:2366   */\n      swap1\n      pop\n        /* \"#utility.yul\":2393:2397   */\n      0x20\n        /* \"#utility.yul\":2388:2391   */\n      dup3\n        /* \"#utility.yul\":2384:2398   */\n      add\n        /* \"#utility.yul\":2376:2398   */\n      swap1\n      pop\n        /* \"#utility.yul\":2273:2405   */\n      swap2\n      swap1\n      pop\n      jump\t// out\n        /* \"#utility.yul\":2411:2519   */\n    tag_214:\n        /* \"#utility.yul\":2488:2512   */\n      tag_289\n        /* \"#utility.yul\":2506:2511   */\n      dup2\n        /* \"#utility.yul\":2488:2512   */\n      tag_209\n      jump\t// in\n    tag_289:\n        /* \"#utility.yul\":2483:2486   */\n      dup3\n        /* \"#utility.yul\":2476:2513   */\n      mstore\n        /* \"#utility.yul\":2411:2519   */\n      pop\n      pop\n      jump\t// out\n        /* \"#utility.yul\":2525:2704   */\n    tag_215:\n        /* \"#utility.yul\":2594:2604   */\n      0x00\n        /* \"#utility.yul\":2615:2661   */\n      tag_291\n        /* \"#utility.yul\":2657:2660   */\n      dup4\n        /* \"#utility.yul\":2649:2655   */\n      dup4\n        /* \"#utility.yul\":2615:2661   */\n      tag_214\n      jump\t// in\n    tag_291:\n        /* \"#utility.yul\":2693:2697   */\n      0x20\n        /* \"#utility.yul\":2688:2691   */\n      dup4\n        /* \"#utility.yul\":2684:2698   */\n      add\n        /* \"#utility.yul\":2670:2698   */\n      swap1\n      pop\n        /* \"#utility.yul\":2525:2704   */\n      swap3\n      swap2\n      pop\n      pop\n      jump\t// out\n        /* \"#utility.yul\":2710:2823   */\n    tag_216:\n        /* \"#utility.yul\":2780:2784   */\n      0x00\n        /* \"#utility.yul\":2812:2816   */\n      0x20\n        /* \"#utility.yul\":2807:2810   */\n      dup3\n        /* \"#utility.yul\":2803:2817   */\n      add\n        /* \"#utility.yul\":2795:2817   */\n      swap1\n      pop\n        /* \"#utility.yul\":2710:2823   */\n      swap2\n      swap1\n      pop\n      jump\t// out\n        /* \"#utility.yul\":2859:3591   */\n    tag_217:\n        /* \"#utility.yul\":2978:2981   */\n      0x00\n        /* \"#utility.yul\":3007:3061   */\n      tag_294\n        /* \"#utility.yul\":3055:3060   */\n      dup3\n        /* \"#utility.yul\":3007:3061   */\n      tag_211\n      jump\t// in\n    tag_294:\n        /* \"#utility.yul\":3077:3163   */\n      tag_295\n        /* \"#utility.yul\":3156:3162   */\n      dup2\n        /* \"#utility.yul\":3151:3154   */\n      dup6\n        /* \"#utility.yul\":3077:3163   */\n      tag_212\n      jump\t// in\n    tag_295:\n        /* \"#utility.yul\":3070:3163   */\n      swap4\n      pop\n        /* \"#utility.yul\":3187:3243   */\n      tag_296\n        /* \"#utility.yul\":3237:3242   */\n      dup4\n        /* \"#utility.yul\":3187:3243   */\n      tag_213\n      jump\t// in\n    tag_296:\n        /* \"#utility.yul\":3266:3273   */\n      dup1\n        /* \"#utility.yul\":3297:3298   */\n      0x00\n        /* \"#utility.yul\":3282:3566   */\n    tag_297:\n        /* \"#utility.yul\":3307:3313   */\n      dup4\n        /* \"#utility.yul\":3304:3305   */\n      dup2\n        /* \"#utility.yul\":3301:3314   */\n      lt\n        /* \"#utility.yul\":3282:3566   */\n      iszero\n      tag_299\n      jumpi\n        /* \"#utility.yul\":3383:3389   */\n      dup2\n        /* \"#utility.yul\":3377:3390   */\n      mload\n        /* \"#utility.yul\":3410:3473   */\n      tag_300\n        /* \"#utility.yul\":3469:3472   */\n      dup9\n        /* \"#utility.yul\":3454:3467   */\n      dup3\n        /* \"#utility.yul\":3410:3473   */\n      tag_215\n      jump\t// in\n    tag_300:\n        /* \"#utility.yul\":3403:3473   */\n      swap8\n      pop\n        /* \"#utility.yul\":3496:3556   */\n      tag_301\n        /* \"#utility.yul\":3549:3555   */\n      dup4\n        /* \"#utility.yul\":3496:3556   */\n      tag_216\n      jump\t// in\n    tag_301:\n        /* \"#utility.yul\":3486:3556   */\n      swap3\n      pop\n        /* \"#utility.yul\":3342:3566   */\n      pop\n        /* \"#utility.yul\":3329:3330   */\n      0x01\n        /* \"#utility.yul\":3326:3327   */\n      dup2\n        /* \"#utility.yul\":3322:3331   */\n      add\n        /* \"#utility.yul\":3317:3331   */\n      swap1\n      pop\n        /* \"#utility.yul\":3282:3566   */\n      jump(tag_297)\n    tag_299:\n        /* \"#utility.yul\":3286:3300   */\n      pop\n        /* \"#utility.yul\":3582:3585   */\n      dup6\n        /* \"#utility.yul\":3575:3585   */\n      swap4\n      pop\n        /* \"#utility.yul\":2983:3591   */\n      pop\n      pop\n      pop\n        /* \"#utility.yul\":2859:3591   */\n      swap3\n      swap2\n      pop\n      pop\n      jump\t// out\n        /* \"#utility.yul\":3597:3711   */\n    tag_218:\n        /* \"#utility.yul\":3664:3670   */\n      0x00\n        /* \"#utility.yul\":3698:3703   */\n      dup2\n        /* \"#utility.yul\":3692:3704   */\n      mload\n        /* \"#utility.yul\":3682:3704   */\n      swap1\n      pop\n        /* \"#utility.yul\":3597:3711   */\n      swap2\n      swap1\n      pop\n      jump\t// out\n        /* \"#utility.yul\":3717:3901   */\n    tag_219:\n        /* \"#utility.yul\":3816:3827   */\n      0x00\n        /* \"#utility.yul\":3850:3856   */\n      dup3\n        /* \"#utility.yul\":3845:3848   */\n      dup3\n        /* \"#utility.yul\":3838:3857   */\n      mstore\n        /* \"#utility.yul\":3890:3894   */\n      0x20\n        /* \"#utility.yul\":3885:3888   */\n      dup3\n        /* \"#utility.yul\":3881:3895   */\n      add\n        /* \"#utility.yul\":3866:3895   */\n      swap1\n      pop\n        /* \"#utility.yul\":3717:3901   */\n      swap3\n      swap2\n      pop\n      pop\n      jump\t// out\n        /* \"#utility.yul\":3907:4039   */\n    tag_220:\n        /* \"#utility.yul\":3974:3978   */\n      0x00\n        /* \"#utility.yul\":3997:4000   */\n      dup2\n        /* \"#utility.yul\":3989:4000   */\n      swap1\n      pop\n        /* \"#utility.yul\":4027:4031   */\n      0x20\n        /* \"#utility.yul\":4022:4025   */\n      dup3\n        /* \"#utility.yul\":4018:4032   */\n      add\n        /* \"#utility.yul\":4010:4032   */\n      swap1\n      pop\n        /* \"#utility.yul\":3907:4039   */\n      swap2\n      swap1\n      pop\n      jump\t// out\n        /* \"#utility.yul\":4045:4153   */\n    tag_221:\n        /* \"#utility.yul\":4122:4146   */\n      tag_306\n        /* \"#utility.yul\":4140:4145   */\n      dup2\n        /* \"#utility.yul\":4122:4146   */\n      tag_201\n      jump\t// in\n    tag_306:\n        /* \"#utility.yul\":4117:4120   */\n      dup3\n        /* \"#utility.yul\":4110:4147   */\n      mstore\n        /* \"#utility.yul\":4045:4153   */\n      pop\n      pop\n      jump\t// out\n        /* \"#utility.yul\":4159:4338   */\n    tag_222:\n        /* \"#utility.yul\":4228:4238   */\n      0x00\n        /* \"#utility.yul\":4249:4295   */\n      tag_308\n        /* \"#utility.yul\":4291:4294   */\n      dup4\n        /* \"#utility.yul\":4283:4289   */\n      dup4\n        /* \"#utility.yul\":4249:4295   */\n      tag_221\n      jump\t// in\n    tag_308:\n        /* \"#utility.yul\":4327:4331   */\n      0x20\n        /* \"#utility.yul\":4322:4325   */\n      dup4\n        /* \"#utility.yul\":4318:4332   */\n      add\n        /* \"#utility.yul\":4304:4332   */\n      swap1\n      pop\n        /* \"#utility.yul\":4159:4338   */\n      swap3\n      swap2\n      pop\n      pop\n      jump\t// out\n        /* \"#utility.yul\":4344:4457   */\n    tag_223:\n        /* \"#utility.yul\":4414:4418   */\n      0x00\n        /* \"#utility.yul\":4446:4450   */\n      0x20\n        /* \"#utility.yul\":4441:4444   */\n      dup3\n        /* \"#utility.yul\":4437:4451   */\n      add\n        /* \"#utility.yul\":4429:4451   */\n      swap1\n      pop\n        /* \"#utility.yul\":4344:4457   */\n      swap2\n      swap1\n      pop\n      jump\t// out\n        /* \"#utility.yul\":4493:5225   */\n    tag_224:\n        /* \"#utility.yul\":4612:4615   */\n      0x00\n        /* \"#utility.yul\":4641:4695   */\n      tag_311\n        /* \"#utility.yul\":4689:4694   */\n      dup3\n        /* \"#utility.yul\":4641:4695   */\n      tag_218\n      jump\t// in\n    tag_311:\n        /* \"#utility.yul\":4711:4797   */\n      tag_312\n        /* \"#utility.yul\":4790:4796   */\n      dup2\n        /* \"#utility.yul\":4785:4788   */\n      dup6\n        /* \"#utility.yul\":4711:4797   */\n      tag_219\n      jump\t// in\n    tag_312:\n        /* \"#utility.yul\":4704:4797   */\n      swap4\n      pop\n        /* \"#utility.yul\":4821:4877   */\n      tag_313\n        /* \"#utility.yul\":4871:4876   */\n      dup4\n        /* \"#utility.yul\":4821:4877   */\n      tag_220\n      jump\t// in\n    tag_313:\n        /* \"#utility.yul\":4900:4907   */\n      dup1\n        /* \"#utility.yul\":4931:4932   */\n      0x00\n        /* \"#utility.yul\":4916:5200   */\n    tag_314:\n        /* \"#utility.yul\":4941:4947   */\n      dup4\n        /* \"#utility.yul\":4938:4939   */\n      dup2\n        /* \"#utility.yul\":4935:4948   */\n      lt\n        /* \"#utility.yul\":4916:5200   */\n      iszero\n      tag_316\n      jumpi\n        /* \"#utility.yul\":5017:5023   */\n      dup2\n        /* \"#utility.yul\":5011:5024   */\n      mload\n        /* \"#utility.yul\":5044:5107   */\n      tag_317\n        /* \"#utility.yul\":5103:5106   */\n      dup9\n        /* \"#utility.yul\":5088:5101   */\n      dup3\n        /* \"#utility.yul\":5044:5107   */\n      tag_222\n      jump\t// in\n    tag_317:\n        /* \"#utility.yul\":5037:5107   */\n      swap8\n      pop\n        /* \"#utility.yul\":5130:5190   */\n      tag_318\n        /* \"#utility.yul\":5183:5189   */\n      dup4\n        /* \"#utility.yul\":5130:5190   */\n      tag_223\n      jump\t// in\n    tag_318:\n        /* \"#utility.yul\":5120:5190   */\n      swap3\n      pop\n        /* \"#utility.yul\":4976:5200   */\n      pop\n        /* \"#utility.yul\":4963:4964   */\n      0x01\n        /* \"#utility.yul\":4960:4961   */\n      dup2\n        /* \"#utility.yul\":4956:4965   */\n      add\n        /* \"#utility.yul\":4951:4965   */\n      swap1\n      pop\n        /* \"#utility.yul\":4916:5200   */\n      jump(tag_314)\n    tag_316:\n        /* \"#utility.yul\":4920:4934   */\n      pop\n        /* \"#utility.yul\":5216:5219   */\n      dup6\n        /* \"#utility.yul\":5209:5219   */\n      swap4\n      pop\n        /* \"#utility.yul\":4617:5225   */\n      pop\n      pop\n      pop\n        /* \"#utility.yul\":4493:5225   */\n      swap3\n      swap2\n      pop\n      pop\n      jump\t// out\n        /* \"#utility.yul\":5231:5865   */\n    tag_43:\n        /* \"#utility.yul\":5452:5456   */\n      0x00\n        /* \"#utility.yul\":5490:5492   */\n      0x40\n        /* \"#utility.yul\":5479:5488   */\n      dup3\n        /* \"#utility.yul\":5475:5493   */\n      add\n        /* \"#utility.yul\":5467:5493   */\n      swap1\n      pop\n        /* \"#utility.yul\":5539:5548   */\n      dup2\n        /* \"#utility.yul\":5533:5537   */\n      dup2\n        /* \"#utility.yul\":5529:5549   */\n      sub\n        /* \"#utility.yul\":5525:5526   */\n      0x00\n        /* \"#utility.yul\":5514:5523   */\n      dup4\n        /* \"#utility.yul\":5510:5527   */\n      add\n        /* \"#utility.yul\":5503:5550   */\n      mstore\n        /* \"#utility.yul\":5567:5675   */\n      tag_320\n        /* \"#utility.yul\":5670:5674   */\n      dup2\n        /* \"#utility.yul\":5661:5667   */\n      dup6\n        /* \"#utility.yul\":5567:5675   */\n      tag_217\n      jump\t// in\n    tag_320:\n        /* \"#utility.yul\":5559:5675   */\n      swap1\n      pop\n        /* \"#utility.yul\":5722:5731   */\n      dup2\n        /* \"#utility.yul\":5716:5720   */\n      dup2\n        /* \"#utility.yul\":5712:5732   */\n      sub\n        /* \"#utility.yul\":5707:5709   */\n      0x20\n        /* \"#utility.yul\":5696:5705   */\n      dup4\n        /* \"#utility.yul\":5692:5710   */\n      add\n        /* \"#utility.yul\":5685:5733   */\n      mstore\n        /* \"#utility.yul\":5750:5858   */\n      tag_321\n        /* \"#utility.yul\":5853:5857   */\n      dup2\n        /* \"#utility.yul\":5844:5850   */\n      dup5\n        /* \"#utility.yul\":5750:5858   */\n      tag_224\n      jump\t// in\n    tag_321:\n        /* \"#utility.yul\":5742:5858   */\n      swap1\n      pop\n        /* \"#utility.yul\":5231:5865   */\n      swap4\n      swap3\n      pop\n      pop\n      pop\n      jump\t// out\n        /* \"#utility.yul\":5871:5993   */\n    tag_225:\n        /* \"#utility.yul\":5944:5968   */\n      tag_323\n        /* \"#utility.yul\":5962:5967   */\n      dup2\n        /* \"#utility.yul\":5944:5968   */\n      tag_209\n      jump\t// in\n    tag_323:\n        /* \"#utility.yul\":5937:5942   */\n      dup2\n        /* \"#utility.yul\":5934:5969   */\n      eq\n        /* \"#utility.yul\":5924:5987   */\n      tag_324\n      jumpi\n        /* \"#utility.yul\":5983:5984   */\n      0x00\n        /* \"#utility.yul\":5980:5981   */\n      dup1\n        /* \"#utility.yul\":5973:5985   */\n      revert\n        /* \"#utility.yul\":5924:5987   */\n    tag_324:\n        /* \"#utility.yul\":5871:5993   */\n      pop\n      jump\t// out\n        /* \"#utility.yul\":5999:6138   */\n    tag_226:\n        /* \"#utility.yul\":6045:6050   */\n      0x00\n        /* \"#utility.yul\":6083:6089   */\n      dup2\n        /* \"#utility.yul\":6070:6090   */\n      calldataload\n        /* \"#utility.yul\":6061:6090   */\n      swap1\n      pop\n        /* \"#utility.yul\":6099:6132   */\n      tag_326\n        /* \"#utility.yul\":6126:6131   */\n      dup2\n        /* \"#utility.yul\":6099:6132   */\n      tag_225\n      jump\t// in\n    tag_326:\n        /* \"#utility.yul\":5999:6138   */\n      swap3\n      swap2\n      pop\n      pop\n      jump\t// out\n        /* \"#utility.yul\":6144:6473   */\n    tag_51:\n        /* \"#utility.yul\":6203:6209   */\n      0x00\n        /* \"#utility.yul\":6252:6254   */\n      0x20\n        /* \"#utility.yul\":6240:6249   */\n      dup3\n        /* \"#utility.yul\":6231:6238   */\n      dup5\n        /* \"#utility.yul\":6227:6250   */\n      sub\n        /* \"#utility.yul\":6223:6255   */\n      slt\n        /* \"#utility.yul\":6220:6339   */\n      iszero\n      tag_328\n      jumpi\n        /* \"#utility.yul\":6258:6337   */\n      tag_329\n      tag_204\n      jump\t// in\n    tag_329:\n        /* \"#utility.yul\":6220:6339   */\n    tag_328:\n        /* \"#utility.yul\":6378:6379   */\n      0x00\n        /* \"#utility.yul\":6403:6456   */\n      tag_330\n        /* \"#utility.yul\":6448:6455   */\n      dup5\n        /* \"#utility.yul\":6439:6445   */\n      dup3\n        /* \"#utility.yul\":6428:6437   */\n      dup6\n        /* \"#utility.yul\":6424:6446   */\n      add\n        /* \"#utility.yul\":6403:6456   */\n      tag_226\n      jump\t// in\n    tag_330:\n        /* \"#utility.yul\":6393:6456   */\n      swap2\n      pop\n        /* \"#utility.yul\":6349:6466   */\n      pop\n        /* \"#utility.yul\":6144:6473   */\n      swap3\n      swap2\n      pop\n      pop\n      jump\t// out\n        /* \"#utility.yul\":6479:6659   */\n    tag_89:\n        /* \"#utility.yul\":6527:6604   */\n      0x4e487b7100000000000000000000000000000000000000000000000000000000\n        /* \"#utility.yul\":6524:6525   */\n      0x00\n        /* \"#utility.yul\":6517:6605   */\n      mstore\n        /* \"#utility.yul\":6624:6628   */\n      0x21\n        /* \"#utility.yul\":6621:6622   */\n      0x04\n        /* \"#utility.yul\":6614:6629   */\n      mstore\n        /* \"#utility.yul\":6648:6652   */\n      0x24\n        /* \"#utility.yul\":6645:6646   */\n      0x00\n        /* \"#utility.yul\":6638:6653   */\n      revert\n        /* \"#utility.yul\":6665:6777   */\n    tag_227:\n        /* \"#utility.yul\":6745:6746   */\n      0x03\n        /* \"#utility.yul\":6738:6743   */\n      dup2\n        /* \"#utility.yul\":6735:6747   */\n      lt\n        /* \"#utility.yul\":6725:6771   */\n      tag_333\n      jumpi\n        /* \"#utility.yul\":6751:6769   */\n      tag_334\n      tag_89\n      jump\t// in\n    tag_334:\n        /* \"#utility.yul\":6725:6771   */\n    tag_333:\n        /* \"#utility.yul\":6665:6777   */\n      pop\n      jump\t// out\n        /* \"#utility.yul\":6783:6908   */\n    tag_228:\n        /* \"#utility.yul\":6827:6834   */\n      0x00\n        /* \"#utility.yul\":6856:6861   */\n      dup2\n        /* \"#utility.yul\":6845:6861   */\n      swap1\n      pop\n        /* \"#utility.yul\":6862:6902   */\n      tag_336\n        /* \"#utility.yul\":6896:6901   */\n      dup3\n        /* \"#utility.yul\":6862:6902   */\n      tag_227\n      jump\t// in\n    tag_336:\n        /* \"#utility.yul\":6783:6908   */\n      swap2\n      swap1\n      pop\n      jump\t// out\n        /* \"#utility.yul\":6914:7039   */\n    tag_229:\n        /* \"#utility.yul\":6969:6978   */\n      0x00\n        /* \"#utility.yul\":7002:7033   */\n      tag_338\n        /* \"#utility.yul\":7027:7032   */\n      dup3\n        /* \"#utility.yul\":7002:7033   */\n      tag_228\n      jump\t// in\n    tag_338:\n        /* \"#utility.yul\":6989:7033   */\n      swap1\n      pop\n        /* \"#utility.yul\":6914:7039   */\n      swap2\n      swap1\n      pop\n      jump\t// out\n        /* \"#utility.yul\":7045:7186   */\n    tag_230:\n        /* \"#utility.yul\":7137:7179   */\n      tag_340\n        /* \"#utility.yul\":7173:7178   */\n      dup2\n        /* \"#utility.yul\":7137:7179   */\n      tag_229\n      jump\t// in\n    tag_340:\n        /* \"#utility.yul\":7132:7135   */\n      dup3\n        /* \"#utility.yul\":7125:7180   */\n      mstore\n        /* \"#utility.yul\":7045:7186   */\n      pop\n      pop\n      jump\t// out\n        /* \"#utility.yul\":7192:7424   */\n    tag_68:\n        /* \"#utility.yul\":7290:7294   */\n      0x00\n        /* \"#utility.yul\":7328:7330   */\n      0x20\n        /* \"#utility.yul\":7317:7326   */\n      dup3\n        /* \"#utility.yul\":7313:7331   */\n      add\n        /* \"#utility.yul\":7305:7331   */\n      swap1\n      pop\n        /* \"#utility.yul\":7341:7417   */\n      tag_342\n        /* \"#utility.yul\":7414:7415   */\n      0x00\n        /* \"#utility.yul\":7403:7412   */\n      dup4\n        /* \"#utility.yul\":7399:7416   */\n      add\n        /* \"#utility.yul\":7390:7396   */\n      dup5\n        /* \"#utility.yul\":7341:7417   */\n      tag_230\n      jump\t// in\n    tag_342:\n        /* \"#utility.yul\":7192:7424   */\n      swap3\n      swap2\n      pop\n      pop\n      jump\t// out\n        /* \"#utility.yul\":7430:7599   */\n    tag_231:\n        /* \"#utility.yul\":7514:7525   */\n      0x00\n        /* \"#utility.yul\":7548:7554   */\n      dup3\n        /* \"#utility.yul\":7543:7546   */\n      dup3\n        /* \"#utility.yul\":7536:7555   */\n      mstore\n        /* \"#utility.yul\":7588:7592   */\n      0x20\n        /* \"#utility.yul\":7583:7586   */\n      dup3\n        /* \"#utility.yul\":7579:7593   */\n      add\n        /* \"#utility.yul\":7564:7593   */\n      swap1\n      pop\n        /* \"#utility.yul\":7430:7599   */\n      swap3\n      swap2\n      pop\n      pop\n      jump\t// out\n        /* \"#utility.yul\":7605:7766   */\n    tag_232:\n        /* \"#utility.yul\":7745:7758   */\n      0x4e6f7420666163746f7279000000000000000000000000000000000000000000\n        /* \"#utility.yul\":7741:7742   */\n      0x00\n        /* \"#utility.yul\":7733:7739   */\n      dup3\n        /* \"#utility.yul\":7729:7743   */\n      add\n        /* \"#utility.yul\":7722:7759   */\n      mstore\n        /* \"#utility.yul\":7605:7766   */\n      pop\n      jump\t// out\n        /* \"#utility.yul\":7772:8138   */\n    tag_233:\n        /* \"#utility.yul\":7914:7917   */\n      0x00\n        /* \"#utility.yul\":7935:8002   */\n      tag_346\n        /* \"#utility.yul\":7999:8001   */\n      0x0b\n        /* \"#utility.yul\":7994:7997   */\n      dup4\n        /* \"#utility.yul\":7935:8002   */\n      tag_231\n      jump\t// in\n    tag_346:\n        /* \"#utility.yul\":7928:8002   */\n      swap2\n      pop\n        /* \"#utility.yul\":8011:8104   */\n      tag_347\n        /* \"#utility.yul\":8100:8103   */\n      dup3\n        /* \"#utility.yul\":8011:8104   */\n      tag_232\n      jump\t// in\n    tag_347:\n        /* \"#utility.yul\":8129:8131   */\n      0x20\n        /* \"#utility.yul\":8124:8127   */\n      dup3\n        /* \"#utility.yul\":8120:8132   */\n      add\n        /* \"#utility.yul\":8113:8132   */\n      swap1\n      pop\n        /* \"#utility.yul\":7772:8138   */\n      swap2\n      swap1\n      pop\n      jump\t// out\n        /* \"#utility.yul\":8144:8563   */\n    tag_85:\n        /* \"#utility.yul\":8310:8314   */\n      0x00\n        /* \"#utility.yul\":8348:8350   */\n      0x20\n        /* \"#utility.yul\":8337:8346   */\n      dup3\n        /* \"#utility.yul\":8333:8351   */\n      add\n        /* \"#utility.yul\":8325:8351   */\n      swap1\n      pop\n        /* \"#utility.yul\":8397:8406   */\n      dup2\n        /* \"#utility.yul\":8391:8395   */\n      dup2\n        /* \"#utility.yul\":8387:8407   */\n      sub\n        /* \"#utility.yul\":8383:8384   */\n      0x00\n        /* \"#utility.yul\":8372:8381   */\n      dup4\n        /* \"#utility.yul\":8368:8385   */\n      add\n        /* \"#utility.yul\":8361:8408   */\n      mstore\n        /* \"#utility.yul\":8425:8556   */\n      tag_349\n        /* \"#utility.yul\":8551:8555   */\n      dup2\n        /* \"#utility.yul\":8425:8556   */\n      tag_233\n      jump\t// in\n    tag_349:\n        /* \"#utility.yul\":8417:8556   */\n      swap1\n      pop\n        /* \"#utility.yul\":8144:8563   */\n      swap2\n      swap1\n      pop\n      jump\t// out\n        /* \"#utility.yul\":8569:8732   */\n    tag_234:\n        /* \"#utility.yul\":8709:8724   */\n      0x496e76616c696420737461746500000000000000000000000000000000000000\n        /* \"#utility.yul\":8705:8706   */\n      0x00\n        /* \"#utility.yul\":8697:8703   */\n      dup3\n        /* \"#utility.yul\":8693:8707   */\n      add\n        /* \"#utility.yul\":8686:8725   */\n      mstore\n        /* \"#utility.yul\":8569:8732   */\n      pop\n      jump\t// out\n        /* \"#utility.yul\":8738:9104   */\n    tag_235:\n        /* \"#utility.yul\":8880:8883   */\n      0x00\n        /* \"#utility.yul\":8901:8968   */\n      tag_352\n        /* \"#utility.yul\":8965:8967   */\n      0x0d\n        /* \"#utility.yul\":8960:8963   */\n      dup4\n        /* \"#utility.yul\":8901:8968   */\n      tag_231\n      jump\t// in\n    tag_352:\n        /* \"#utility.yul\":8894:8968   */\n      swap2\n      pop\n        /* \"#utility.yul\":8977:9070   */\n      tag_353\n        /* \"#utility.yul\":9066:9069   */\n      dup3\n        /* \"#utility.yul\":8977:9070   */\n      tag_234\n      jump\t// in\n    tag_353:\n        /* \"#utility.yul\":9095:9097   */\n      0x20\n        /* \"#utility.yul\":9090:9093   */\n      dup3\n        /* \"#utility.yul\":9086:9098   */\n      add\n        /* \"#utility.yul\":9079:9098   */\n      swap1\n      pop\n        /* \"#utility.yul\":8738:9104   */\n      swap2\n      swap1\n      pop\n      jump\t// out\n        /* \"#utility.yul\":9110:9529   */\n    tag_94:\n        /* \"#utility.yul\":9276:9280   */\n      0x00\n        /* \"#utility.yul\":9314:9316   */\n      0x20\n        /* \"#utility.yul\":9303:9312   */\n      dup3\n        /* \"#utility.yul\":9299:9317   */\n      add\n        /* \"#utility.yul\":9291:9317   */\n      swap1\n      pop\n        /* \"#utility.yul\":9363:9372   */\n      dup2\n        /* \"#utility.yul\":9357:9361   */\n      dup2\n        /* \"#utility.yul\":9353:9373   */\n      sub\n        /* \"#utility.yul\":9349:9350   */\n      0x00\n        /* \"#utility.yul\":9338:9347   */\n      dup4\n        /* \"#utility.yul\":9334:9351   */\n      add\n        /* \"#utility.yul\":9327:9374   */\n      mstore\n        /* \"#utility.yul\":9391:9522   */\n      tag_355\n        /* \"#utility.yul\":9517:9521   */\n      dup2\n        /* \"#utility.yul\":9391:9522   */\n      tag_235\n      jump\t// in\n    tag_355:\n        /* \"#utility.yul\":9383:9522   */\n      swap1\n      pop\n        /* \"#utility.yul\":9110:9529   */\n      swap2\n      swap1\n      pop\n      jump\t// out\n        /* \"#utility.yul\":9535:9704   */\n    tag_236:\n        /* \"#utility.yul\":9675:9696   */\n      0x5761697420756e74696c20646561646c696e6500000000000000000000000000\n        /* \"#utility.yul\":9671:9672   */\n      0x00\n        /* \"#utility.yul\":9663:9669   */\n      dup3\n        /* \"#utility.yul\":9659:9673   */\n      add\n        /* \"#utility.yul\":9652:9697   */\n      mstore\n        /* \"#utility.yul\":9535:9704   */\n      pop\n      jump\t// out\n        /* \"#utility.yul\":9710:10076   */\n    tag_237:\n        /* \"#utility.yul\":9852:9855   */\n      0x00\n        /* \"#utility.yul\":9873:9940   */\n      tag_358\n        /* \"#utility.yul\":9937:9939   */\n      0x13\n        /* \"#utility.yul\":9932:9935   */\n      dup4\n        /* \"#utility.yul\":9873:9940   */\n      tag_231\n      jump\t// in\n    tag_358:\n        /* \"#utility.yul\":9866:9940   */\n      swap2\n      pop\n        /* \"#utility.yul\":9949:10042   */\n      tag_359\n        /* \"#utility.yul\":10038:10041   */\n      dup3\n        /* \"#utility.yul\":9949:10042   */\n      tag_236\n      jump\t// in\n    tag_359:\n        /* \"#utility.yul\":10067:10069   */\n      0x20\n        /* \"#utility.yul\":10062:10065   */\n      dup3\n        /* \"#utility.yul\":10058:10070   */\n      add\n        /* \"#utility.yul\":10051:10070   */\n      swap1\n      pop\n        /* \"#utility.yul\":9710:10076   */\n      swap2\n      swap1\n      pop\n      jump\t// out\n        /* \"#utility.yul\":10082:10501   */\n    tag_98:\n        /* \"#utility.yul\":10248:10252   */\n      0x00\n        /* \"#utility.yul\":10286:10288   */\n      0x20\n        /* \"#utility.yul\":10275:10284   */\n      dup3\n        /* \"#utility.yul\":10271:10289   */\n      add\n        /* \"#utility.yul\":10263:10289   */\n      swap1\n      pop\n        /* \"#utility.yul\":10335:10344   */\n      dup2\n        /* \"#utility.yul\":10329:10333   */\n      dup2\n        /* \"#utility.yul\":10325:10345   */\n      sub\n        /* \"#utility.yul\":10321:10322   */\n      0x00\n        /* \"#utility.yul\":10310:10319   */\n      dup4\n        /* \"#utility.yul\":10306:10323   */\n      add\n        /* \"#utility.yul\":10299:10346   */\n      mstore\n        /* \"#utility.yul\":10363:10494   */\n      tag_361\n        /* \"#utility.yul\":10489:10493   */\n      dup2\n        /* \"#utility.yul\":10363:10494   */\n      tag_237\n      jump\t// in\n    tag_361:\n        /* \"#utility.yul\":10355:10494   */\n      swap1\n      pop\n        /* \"#utility.yul\":10082:10501   */\n      swap2\n      swap1\n      pop\n      jump\t// out\n        /* \"#utility.yul\":10507:10676   */\n    tag_238:\n        /* \"#utility.yul\":10647:10668   */\n      0x4e6f7468696e6720746f20776974686472617700000000000000000000000000\n        /* \"#utility.yul\":10643:10644   */\n      0x00\n        /* \"#utility.yul\":10635:10641   */\n      dup3\n        /* \"#utility.yul\":10631:10645   */\n      add\n        /* \"#utility.yul\":10624:10669   */\n      mstore\n        /* \"#utility.yul\":10507:10676   */\n      pop\n      jump\t// out\n        /* \"#utility.yul\":10682:11048   */\n    tag_239:\n        /* \"#utility.yul\":10824:10827   */\n      0x00\n        /* \"#utility.yul\":10845:10912   */\n      tag_364\n        /* \"#utility.yul\":10909:10911   */\n      0x13\n        /* \"#utility.yul\":10904:10907   */\n      dup4\n        /* \"#utility.yul\":10845:10912   */\n      tag_231\n      jump\t// in\n    tag_364:\n        /* \"#utility.yul\":10838:10912   */\n      swap2\n      pop\n        /* \"#utility.yul\":10921:11014   */\n      tag_365\n        /* \"#utility.yul\":11010:11013   */\n      dup3\n        /* \"#utility.yul\":10921:11014   */\n      tag_238\n      jump\t// in\n    tag_365:\n        /* \"#utility.yul\":11039:11041   */\n      0x20\n        /* \"#utility.yul\":11034:11037   */\n      dup3\n        /* \"#utility.yul\":11030:11042   */\n      add\n        /* \"#utility.yul\":11023:11042   */\n      swap1\n      pop\n        /* \"#utility.yul\":10682:11048   */\n      swap2\n      swap1\n      pop\n      jump\t// out\n        /* \"#utility.yul\":11054:11473   */\n    tag_101:\n        /* \"#utility.yul\":11220:11224   */\n      0x00\n        /* \"#utility.yul\":11258:11260   */\n      0x20\n        /* \"#utility.yul\":11247:11256   */\n      dup3\n        /* \"#utility.yul\":11243:11261   */\n      add\n        /* \"#utility.yul\":11235:11261   */\n      swap1\n      pop\n        /* \"#utility.yul\":11307:11316   */\n      dup2\n        /* \"#utility.yul\":11301:11305   */\n      dup2\n        /* \"#utility.yul\":11297:11317   */\n      sub\n        /* \"#utility.yul\":11293:11294   */\n      0x00\n        /* \"#utility.yul\":11282:11291   */\n      dup4\n        /* \"#utility.yul\":11278:11295   */\n      add\n        /* \"#utility.yul\":11271:11318   */\n      mstore\n        /* \"#utility.yul\":11335:11466   */\n      tag_367\n        /* \"#utility.yul\":11461:11465   */\n      dup2\n        /* \"#utility.yul\":11335:11466   */\n      tag_239\n      jump\t// in\n    tag_367:\n        /* \"#utility.yul\":11327:11466   */\n      swap1\n      pop\n        /* \"#utility.yul\":11054:11473   */\n      swap2\n      swap1\n      pop\n      jump\t// out\n        /* \"#utility.yul\":11479:11626   */\n    tag_240:\n        /* \"#utility.yul\":11580:11591   */\n      0x00\n        /* \"#utility.yul\":11617:11620   */\n      dup2\n        /* \"#utility.yul\":11602:11620   */\n      swap1\n      pop\n        /* \"#utility.yul\":11479:11626   */\n      swap3\n      swap2\n      pop\n      pop\n      jump\t// out\n        /* \"#utility.yul\":11632:11746   */\n    tag_241:\n      pop\n      jump\t// out\n        /* \"#utility.yul\":11752:12150   */\n    tag_242:\n        /* \"#utility.yul\":11911:11914   */\n      0x00\n        /* \"#utility.yul\":11932:12015   */\n      tag_371\n        /* \"#utility.yul\":12013:12014   */\n      0x00\n        /* \"#utility.yul\":12008:12011   */\n      dup4\n        /* \"#utility.yul\":11932:12015   */\n      tag_240\n      jump\t// in\n    tag_371:\n        /* \"#utility.yul\":11925:12015   */\n      swap2\n      pop\n        /* \"#utility.yul\":12024:12117   */\n      tag_372\n        /* \"#utility.yul\":12113:12116   */\n      dup3\n        /* \"#utility.yul\":12024:12117   */\n      tag_241\n      jump\t// in\n    tag_372:\n        /* \"#utility.yul\":12142:12143   */\n      0x00\n        /* \"#utility.yul\":12137:12140   */\n      dup3\n        /* \"#utility.yul\":12133:12144   */\n      add\n        /* \"#utility.yul\":12126:12144   */\n      swap1\n      pop\n        /* \"#utility.yul\":11752:12150   */\n      swap2\n      swap1\n      pop\n      jump\t// out\n        /* \"#utility.yul\":12156:12535   */\n    tag_103:\n        /* \"#utility.yul\":12340:12343   */\n      0x00\n        /* \"#utility.yul\":12362:12509   */\n      tag_374\n        /* \"#utility.yul\":12505:12508   */\n      dup3\n        /* \"#utility.yul\":12362:12509   */\n      tag_242\n      jump\t// in\n    tag_374:\n        /* \"#utility.yul\":12355:12509   */\n      swap2\n      pop\n        /* \"#utility.yul\":12526:12529   */\n      dup2\n        /* \"#utility.yul\":12519:12529   */\n      swap1\n      pop\n        /* \"#utility.yul\":12156:12535   */\n      swap2\n      swap1\n      pop\n      jump\t// out\n        /* \"#utility.yul\":12541:12710   */\n    tag_243:\n        /* \"#utility.yul\":12681:12702   */\n      0x455448207472616e73666572206661696c656400000000000000000000000000\n        /* \"#utility.yul\":12677:12678   */\n      0x00\n        /* \"#utility.yul\":12669:12675   */\n      dup3\n        /* \"#utility.yul\":12665:12679   */\n      add\n        /* \"#utility.yul\":12658:12703   */\n      mstore\n        /* \"#utility.yul\":12541:12710   */\n      pop\n      jump\t// out\n        /* \"#utility.yul\":12716:13082   */\n    tag_244:\n        /* \"#utility.yul\":12858:12861   */\n      0x00\n        /* \"#utility.yul\":12879:12946   */\n      tag_377\n        /* \"#utility.yul\":12943:12945   */\n      0x13\n        /* \"#utility.yul\":12938:12941   */\n      dup4\n        /* \"#utility.yul\":12879:12946   */\n      tag_231\n      jump\t// in\n    tag_377:\n        /* \"#utility.yul\":12872:12946   */\n      swap2\n      pop\n        /* \"#utility.yul\":12955:13048   */\n      tag_378\n        /* \"#utility.yul\":13044:13047   */\n      dup3\n        /* \"#utility.yul\":12955:13048   */\n      tag_243\n      jump\t// in\n    tag_378:\n        /* \"#utility.yul\":13073:13075   */\n      0x20\n        /* \"#utility.yul\":13068:13071   */\n      dup3\n        /* \"#utility.yul\":13064:13076   */\n      add\n        /* \"#utility.yul\":13057:13076   */\n      swap1\n      pop\n        /* \"#utility.yul\":12716:13082   */\n      swap2\n      swap1\n      pop\n      jump\t// out\n        /* \"#utility.yul\":13088:13507   */\n    tag_109:\n        /* \"#utility.yul\":13254:13258   */\n      0x00\n        /* \"#utility.yul\":13292:13294   */\n      0x20\n        /* \"#utility.yul\":13281:13290   */\n      dup3\n        /* \"#utility.yul\":13277:13295   */\n      add\n        /* \"#utility.yul\":13269:13295   */\n      swap1\n      pop\n        /* \"#utility.yul\":13341:13350   */\n      dup2\n        /* \"#utility.yul\":13335:13339   */\n      dup2\n        /* \"#utility.yul\":13331:13351   */\n      sub\n        /* \"#utility.yul\":13327:13328   */\n      0x00\n        /* \"#utility.yul\":13316:13325   */\n      dup4\n        /* \"#utility.yul\":13312:13329   */\n      add\n        /* \"#utility.yul\":13305:13352   */\n      mstore\n        /* \"#utility.yul\":13369:13500   */\n      tag_380\n        /* \"#utility.yul\":13495:13499   */\n      dup2\n        /* \"#utility.yul\":13369:13500   */\n      tag_244\n      jump\t// in\n    tag_380:\n        /* \"#utility.yul\":13361:13500   */\n      swap1\n      pop\n        /* \"#utility.yul\":13088:13507   */\n      swap2\n      swap1\n      pop\n      jump\t// out\n        /* \"#utility.yul\":13513:13678   */\n    tag_245:\n        /* \"#utility.yul\":13653:13670   */\n      0x4e6f20636f6e7472696275746f72730000000000000000000000000000000000\n        /* \"#utility.yul\":13649:13650   */\n      0x00\n        /* \"#utility.yul\":13641:13647   */\n      dup3\n        /* \"#utility.yul\":13637:13651   */\n      add\n        /* \"#utility.yul\":13630:13671   */\n      mstore\n        /* \"#utility.yul\":13513:13678   */\n      pop\n      jump\t// out\n        /* \"#utility.yul\":13684:14050   */\n    tag_246:\n        /* \"#utility.yul\":13826:13829   */\n      0x00\n        /* \"#utility.yul\":13847:13914   */\n      tag_383\n        /* \"#utility.yul\":13911:13913   */\n      0x0f\n        /* \"#utility.yul\":13906:13909   */\n      dup4\n        /* \"#utility.yul\":13847:13914   */\n      tag_231\n      jump\t// in\n    tag_383:\n        /* \"#utility.yul\":13840:13914   */\n      swap2\n      pop\n        /* \"#utility.yul\":13923:14016   */\n      tag_384\n        /* \"#utility.yul\":14012:14015   */\n      dup3\n        /* \"#utility.yul\":13923:14016   */\n      tag_245\n      jump\t// in\n    tag_384:\n        /* \"#utility.yul\":14041:14043   */\n      0x20\n        /* \"#utility.yul\":14036:14039   */\n      dup3\n        /* \"#utility.yul\":14032:14044   */\n      add\n        /* \"#utility.yul\":14025:14044   */\n      swap1\n      pop\n        /* \"#utility.yul\":13684:14050   */\n      swap2\n      swap1\n      pop\n      jump\t// out\n        /* \"#utility.yul\":14056:14475   */\n    tag_113:\n        /* \"#utility.yul\":14222:14226   */\n      0x00\n        /* \"#utility.yul\":14260:14262   */\n      0x20\n        /* \"#utility.yul\":14249:14258   */\n      dup3\n        /* \"#utility.yul\":14245:14263   */\n      add\n        /* \"#utility.yul\":14237:14263   */\n      swap1\n      pop\n        /* \"#utility.yul\":14309:14318   */\n      dup2\n        /* \"#utility.yul\":14303:14307   */\n      dup2\n        /* \"#utility.yul\":14299:14319   */\n      sub\n        /* \"#utility.yul\":14295:14296   */\n      0x00\n        /* \"#utility.yul\":14284:14293   */\n      dup4\n        /* \"#utility.yul\":14280:14297   */\n      add\n        /* \"#utility.yul\":14273:14320   */\n      mstore\n        /* \"#utility.yul\":14337:14468   */\n      tag_386\n        /* \"#utility.yul\":14463:14467   */\n      dup2\n        /* \"#utility.yul\":14337:14468   */\n      tag_246\n      jump\t// in\n    tag_386:\n        /* \"#utility.yul\":14329:14468   */\n      swap1\n      pop\n        /* \"#utility.yul\":14056:14475   */\n      swap2\n      swap1\n      pop\n      jump\t// out\n        /* \"#utility.yul\":14481:14661   */\n    tag_116:\n        /* \"#utility.yul\":14529:14606   */\n      0x4e487b7100000000000000000000000000000000000000000000000000000000\n        /* \"#utility.yul\":14526:14527   */\n      0x00\n        /* \"#utility.yul\":14519:14607   */\n      mstore\n        /* \"#utility.yul\":14626:14630   */\n      0x41\n        /* \"#utility.yul\":14623:14624   */\n      0x04\n        /* \"#utility.yul\":14616:14631   */\n      mstore\n        /* \"#utility.yul\":14650:14654   */\n      0x24\n        /* \"#utility.yul\":14647:14648   */\n      0x00\n        /* \"#utility.yul\":14640:14655   */\n      revert\n        /* \"#utility.yul\":14667:14847   */\n    tag_126:\n        /* \"#utility.yul\":14715:14792   */\n      0x4e487b7100000000000000000000000000000000000000000000000000000000\n        /* \"#utility.yul\":14712:14713   */\n      0x00\n        /* \"#utility.yul\":14705:14793   */\n      mstore\n        /* \"#utility.yul\":14812:14816   */\n      0x32\n        /* \"#utility.yul\":14809:14810   */\n      0x04\n        /* \"#utility.yul\":14802:14817   */\n      mstore\n        /* \"#utility.yul\":14836:14840   */\n      0x24\n        /* \"#utility.yul\":14833:14834   */\n      0x00\n        /* \"#utility.yul\":14826:14841   */\n      revert\n        /* \"#utility.yul\":14853:15033   */\n    tag_247:\n        /* \"#utility.yul\":14901:14978   */\n      0x4e487b7100000000000000000000000000000000000000000000000000000000\n        /* \"#utility.yul\":14898:14899   */\n      0x00\n        /* \"#utility.yul\":14891:14979   */\n      mstore\n        /* \"#utility.yul\":14998:15002   */\n      0x11\n        /* \"#utility.yul\":14995:14996   */\n      0x04\n        /* \"#utility.yul\":14988:15003   */\n      mstore\n        /* \"#utility.yul\":15022:15026   */\n      0x24\n        /* \"#utility.yul\":15019:15020   */\n      0x00\n        /* \"#utility.yul\":15012:15027   */\n      revert\n        /* \"#utility.yul\":15039:15272   */\n    tag_134:\n        /* \"#utility.yul\":15078:15081   */\n      0x00\n        /* \"#utility.yul\":15101:15125   */\n      tag_391\n        /* \"#utility.yul\":15119:15124   */\n      dup3\n        /* \"#utility.yul\":15101:15125   */\n      tag_201\n      jump\t// in\n    tag_391:\n        /* \"#utility.yul\":15092:15125   */\n      swap2\n      pop\n        /* \"#utility.yul\":15147:15213   */\n      0xffffffffffffffffffffffffffffffffffffffffffffffffffffffffffffffff\n        /* \"#utility.yul\":15140:15145   */\n      dup3\n        /* \"#utility.yul\":15137:15214   */\n      sub\n        /* \"#utility.yul\":15134:15237   */\n      tag_392\n      jumpi\n        /* \"#utility.yul\":15217:15235   */\n      tag_393\n      tag_247\n      jump\t// in\n    tag_393:\n        /* \"#utility.yul\":15134:15237   */\n    tag_392:\n        /* \"#utility.yul\":15264:15265   */\n      0x01\n        /* \"#utility.yul\":15257:15262   */\n      dup3\n        /* \"#utility.yul\":15253:15266   */\n      add\n        /* \"#utility.yul\":15246:15266   */\n      swap1\n      pop\n        /* \"#utility.yul\":15039:15272   */\n      swap2\n      swap1\n      pop\n      jump\t// out\n        /* \"#utility.yul\":15278:15448   */\n    tag_248:\n        /* \"#utility.yul\":15418:15440   */\n      0x446561646c696e65206e6f742072656163686564000000000000000000000000\n        /* \"#utility.yul\":15414:15415   */\n      0x00\n        /* \"#utility.yul\":15406:15412   */\n      dup3\n        /* \"#utility.yul\":15402:15416   */\n      add\n        /* \"#utility.yul\":15395:15441   */\n      mstore\n        /* \"#utility.yul\":15278:15448   */\n      pop\n      jump\t// out\n        /* \"#utility.yul\":15454:15820   */\n    tag_249:\n        /* \"#utility.yul\":15596:15599   */\n      0x00\n        /* \"#utility.yul\":15617:15684   */\n      tag_396\n        /* \"#utility.yul\":15681:15683   */\n      0x14\n        /* \"#utility.yul\":15676:15679   */\n      dup4\n        /* \"#utility.yul\":15617:15684   */\n      tag_231\n      jump\t// in\n    tag_396:\n        /* \"#utility.yul\":15610:15684   */\n      swap2\n      pop\n        /* \"#utility.yul\":15693:15786   */\n      tag_397\n        /* \"#utility.yul\":15782:15785   */\n      dup3\n        /* \"#utility.yul\":15693:15786   */\n      tag_248\n      jump\t// in\n    tag_397:\n        /* \"#utility.yul\":15811:15813   */\n      0x20\n        /* \"#utility.yul\":15806:15809   */\n      dup3\n        /* \"#utility.yul\":15802:15814   */\n      add\n        /* \"#utility.yul\":15795:15814   */\n      swap1\n      pop\n        /* \"#utility.yul\":15454:15820   */\n      swap2\n      swap1\n      pop\n      jump\t// out\n        /* \"#utility.yul\":15826:16245   */\n    tag_146:\n        /* \"#utility.yul\":15992:15996   */\n      0x00\n        /* \"#utility.yul\":16030:16032   */\n      0x20\n        /* \"#utility.yul\":16019:16028   */\n      dup3\n        /* \"#utility.yul\":16015:16033   */\n      add\n        /* \"#utility.yul\":16007:16033   */\n      swap1\n      pop\n        /* \"#utility.yul\":16079:16088   */\n      dup2\n        /* \"#utility.yul\":16073:16077   */\n      dup2\n        /* \"#utility.yul\":16069:16089   */\n      sub\n        /* \"#utility.yul\":16065:16066   */\n      0x00\n        /* \"#utility.yul\":16054:16063   */\n      dup4\n        /* \"#utility.yul\":16050:16067   */\n      add\n        /* \"#utility.yul\":16043:16090   */\n      mstore\n        /* \"#utility.yul\":16107:16238   */\n      tag_399\n        /* \"#utility.yul\":16233:16237   */\n      dup2\n        /* \"#utility.yul\":16107:16238   */\n      tag_249\n      jump\t// in\n    tag_399:\n        /* \"#utility.yul\":16099:16238   */\n      swap1\n      pop\n        /* \"#utility.yul\":15826:16245   */\n      swap2\n      swap1\n      pop\n      jump\t// out\n        /* \"#utility.yul\":16251:16413   */\n    tag_250:\n        /* \"#utility.yul\":16391:16405   */\n      0x476f616c20726561636865640000000000000000000000000000000000000000\n        /* \"#utility.yul\":16387:16388   */\n      0x00\n        /* \"#utility.yul\":16379:16385   */\n      dup3\n        /* \"#utility.yul\":16375:16389   */\n      add\n        /* \"#utility.yul\":16368:16406   */\n      mstore\n        /* \"#utility.yul\":16251:16413   */\n      pop\n      jump\t// out\n        /* \"#utility.yul\":16419:16785   */\n    tag_251:\n        /* \"#utility.yul\":16561:16564   */\n      0x00\n        /* \"#utility.yul\":16582:16649   */\n      tag_402\n        /* \"#utility.yul\":16646:16648   */\n      0x0c\n        /* \"#utility.yul\":16641:16644   */\n      dup4\n        /* \"#utility.yul\":16582:16649   */\n      tag_231\n      jump\t// in\n    tag_402:\n        /* \"#utility.yul\":16575:16649   */\n      swap2\n      pop\n        /* \"#utility.yul\":16658:16751   */\n      tag_403\n        /* \"#utility.yul\":16747:16750   */\n      dup3\n        /* \"#utility.yul\":16658:16751   */\n      tag_250\n      jump\t// in\n    tag_403:\n        /* \"#utility.yul\":16776:16778   */\n      0x20\n        /* \"#utility.yul\":16771:16774   */\n      dup3\n        /* \"#utility.yul\":16767:16779   */\n      add\n        /* \"#utility.yul\":16760:16779   */\n      swap1\n      pop\n        /* \"#utility.yul\":16419:16785   */\n      swap2\n      swap1\n      pop\n      jump\t// out\n        /* \"#utility.yul\":16791:17210   */\n    tag_149:\n        /* \"#utility.yul\":16957:16961   */\n      0x00\n        /* \"#utility.yul\":16995:16997   */\n      0x20\n        /* \"#utility.yul\":16984:16993   */\n      dup3\n        /* \"#utility.yul\":16980:16998   */\n      add\n        /* \"#utility.yul\":16972:16998   */\n      swap1\n      pop\n        /* \"#utility.yul\":17044:17053   */\n      dup2\n        /* \"#utility.yul\":17038:17042   */\n      dup2\n        /* \"#utility.yul\":17034:17054   */\n      sub\n        /* \"#utility.yul\":17030:17031   */\n      0x00\n        /* \"#utility.yul\":17019:17028   */\n      dup4\n        /* \"#utility.yul\":17015:17032   */\n      add\n        /* \"#utility.yul\":17008:17055   */\n      mstore\n        /* \"#utility.yul\":17072:17203   */\n      tag_405\n        /* \"#utility.yul\":17198:17202   */\n      dup2\n        /* \"#utility.yul\":17072:17203   */\n      tag_251\n      jump\t// in\n    tag_405:\n        /* \"#utility.yul\":17064:17203   */\n      swap1\n      pop\n        /* \"#utility.yul\":16791:17210   */\n      swap2\n      swap1\n      pop\n      jump\t// out\n        /* \"#utility.yul\":17216:17381   */\n    tag_252:\n        /* \"#utility.yul\":17356:17373   */\n      0x446561646c696e65207061737365640000000000000000000000000000000000\n        /* \"#utility.yul\":17352:17353   */\n      0x00\n        /* \"#utility.yul\":17344:17350   */\n      dup3\n        /* \"#utility.yul\":17340:17354   */\n      add\n        /* \"#utility.yul\":17333:17374   */\n      mstore\n        /* \"#utility.yul\":17216:17381   */\n      pop\n      jump\t// out\n        /* \"#utility.yul\":17387:17753   */\n    tag_253:\n        /* \"#utility.yul\":17529:17532   */\n      0x00\n        /* \"#utility.yul\":17550:17617   */\n      tag_408\n        /* \"#utility.yul\":17614:17616   */\n      0x0f\n        /* \"#utility.yul\":17609:17612   */\n      dup4\n        /* \"#utility.yul\":17550:17617   */\n      tag_231\n      jump\t// in\n    tag_408:\n        /* \"#utility.yul\":17543:17617   */\n      swap2\n      pop\n        /* \"#utility.yul\":17626:17719   */\n      tag_409\n        /* \"#utility.yul\":17715:17718   */\n      dup3\n        /* \"#utility.yul\":17626:17719   */\n      tag_252\n      jump\t// in\n    tag_409:\n        /* \"#utility.yul\":17744:17746   */\n      0x20\n        /* \"#utility.yul\":17739:17742   */\n      dup3\n        /* \"#utility.yul\":17735:17747   */\n      add\n        /* \"#utility.yul\":17728:17747   */\n      swap1\n      pop\n        /* \"#utility.yul\":17387:17753   */\n      swap2\n      swap1\n      pop\n      jump\t// out\n        /* \"#utility.yul\":17759:18178   */\n    tag_174:\n        /* \"#utility.yul\":17925:17929   */\n      0x00\n        /* \"#utility.yul\":17963:17965   */\n      0x20\n        /* \"#utility.yul\":17952:17961   */\n      dup3\n        /* \"#utility.yul\":17948:17966   */\n      add\n        /* \"#utility.yul\":17940:17966   */\n      swap1\n      pop\n        /* \"#utility.yul\":18012:18021   */\n      dup2\n        /* \"#utility.yul\":18006:18010   */\n      dup2\n        /* \"#utility.yul\":18002:18022   */\n      sub\n        /* \"#utility.yul\":17998:17999   */\n      0x00\n        /* \"#utility.yul\":17987:17996   */\n      dup4\n        /* \"#utility.yul\":17983:18000   */\n      add\n        /* \"#utility.yul\":17976:18023   */\n      mstore\n        /* \"#utility.yul\":18040:18171   */\n      tag_411\n        /* \"#utility.yul\":18166:18170   */\n      dup2\n        /* \"#utility.yul\":18040:18171   */\n      tag_253\n      jump\t// in\n    tag_411:\n        /* \"#utility.yul\":18032:18171   */\n      swap1\n      pop\n        /* \"#utility.yul\":17759:18178   */\n      swap2\n      swap1\n      pop\n      jump\t// out\n        /* \"#utility.yul\":18184:18345   */\n    tag_254:\n        /* \"#utility.yul\":18324:18337   */\n      0x4e6f204554482073656e74000000000000000000000000000000000000000000\n        /* \"#utility.yul\":18320:18321   */\n      0x00\n        /* \"#utility.yul\":18312:18318   */\n      dup3\n        /* \"#utility.yul\":18308:18322   */\n      add\n        /* \"#utility.yul\":18301:18338   */\n      mstore\n        /* \"#utility.yul\":18184:18345   */\n      pop\n      jump\t// out\n        /* \"#utility.yul\":18351:18717   */\n    tag_255:\n        /* \"#utility.yul\":18493:18496   */\n      0x00\n        /* \"#utility.yul\":18514:18581   */\n      tag_414\n        /* \"#utility.yul\":18578:18580   */\n      0x0b\n        /* \"#utility.yul\":18573:18576   */\n      dup4\n        /* \"#utility.yul\":18514:18581   */\n      tag_231\n      jump\t// in\n    tag_414:\n        /* \"#utility.yul\":18507:18581   */\n      swap2\n      pop\n        /* \"#utility.yul\":18590:18683   */\n      tag_415\n        /* \"#utility.yul\":18679:18682   */\n      dup3\n        /* \"#utility.yul\":18590:18683   */\n      tag_254\n      jump\t// in\n    tag_415:\n        /* \"#utility.yul\":18708:18710   */\n      0x20\n        /* \"#utility.yul\":18703:18706   */\n      dup3\n        /* \"#utility.yul\":18699:18711   */\n      add\n        /* \"#utility.yul\":18692:18711   */\n      swap1\n      pop\n        /* \"#utility.yul\":18351:18717   */\n      swap2\n      swap1\n      pop\n      jump\t// out\n        /* \"#utility.yul\":18723:19142   */\n    tag_177:\n        /* \"#utility.yul\":18889:18893   */\n      0x00\n        /* \"#utility.yul\":18927:18929   */\n      0x20\n        /* \"#utility.yul\":18916:18925   */\n      dup3\n        /* \"#utility.yul\":18912:18930   */\n      add\n        /* \"#utility.yul\":18904:18930   */\n      swap1\n      pop\n        /* \"#utility.yul\":18976:18985   */\n      dup2\n        /* \"#utility.yul\":18970:18974   */\n      dup2\n        /* \"#utility.yul\":18966:18986   */\n      sub\n        /* \"#utility.yul\":18962:18963   */\n      0x00\n        /* \"#utility.yul\":18951:18960   */\n      dup4\n        /* \"#utility.yul\":18947:18964   */\n      add\n        /* \"#utility.yul\":18940:18987   */\n      mstore\n        /* \"#utility.yul\":19004:19135   */\n      tag_417\n        /* \"#utility.yul\":19130:19134   */\n      dup2\n        /* \"#utility.yul\":19004:19135   */\n      tag_255\n      jump\t// in\n    tag_417:\n        /* \"#utility.yul\":18996:19135   */\n      swap1\n      pop\n        /* \"#utility.yul\":18723:19142   */\n      swap2\n      swap1\n      pop\n      jump\t// out\n        /* \"#utility.yul\":19148:19339   */\n    tag_181:\n        /* \"#utility.yul\":19188:19191   */\n      0x00\n        /* \"#utility.yul\":19207:19227   */\n      tag_419\n        /* \"#utility.yul\":19225:19226   */\n      dup3\n        /* \"#utility.yul\":19207:19227   */\n      tag_201\n      jump\t// in\n    tag_419:\n        /* \"#utility.yul\":19202:19227   */\n      swap2\n      pop\n        /* \"#utility.yul\":19241:19261   */\n      tag_420\n        /* \"#utility.yul\":19259:19260   */\n      dup4\n        /* \"#utility.yul\":19241:19261   */\n      tag_201\n      jump\t// in\n    tag_420:\n        /* \"#utility.yul\":19236:19261   */\n      swap3\n      pop\n        /* \"#utility.yul\":19284:19285   */\n      dup3\n        /* \"#utility.yul\":19281:19282   */\n      dup3\n        /* \"#utility.yul\":19277:19286   */\n      add\n        /* \"#utility.yul\":19270:19286   */\n      swap1\n      pop\n        /* \"#utility.yul\":19305:19308   */\n      dup1\n        /* \"#utility.yul\":19302:19303   */\n      dup3\n        /* \"#utility.yul\":19299:19309   */\n      gt\n        /* \"#utility.yul\":19296:19332   */\n      iszero\n      tag_421\n      jumpi\n        /* \"#utility.yul\":19312:19330   */\n      tag_422\n      tag_247\n      jump\t// in\n    tag_422:\n        /* \"#utility.yul\":19296:19332   */\n    tag_421:\n        /* \"#utility.yul\":19148:19339   */\n      swap3\n      swap2\n      pop\n      pop\n      jump\t// out\n        /* \"#utility.yul\":19345:19512   */\n    tag_256:\n        /* \"#utility.yul\":19485:19504   */\n      0x4e6f7468696e6720746f20726566756e64000000000000000000000000000000\n        /* \"#utility.yul\":19481:19482   */\n      0x00\n        /* \"#utility.yul\":19473:19479   */\n      dup3\n        /* \"#utility.yul\":19469:19483   */\n      add\n        /* \"#utility.yul\":19462:19505   */\n      mstore\n        /* \"#utility.yul\":19345:19512   */\n      pop\n      jump\t// out\n        /* \"#utility.yul\":19518:19884   */\n    tag_257:\n        /* \"#utility.yul\":19660:19663   */\n      0x00\n        /* \"#utility.yul\":19681:19748   */\n      tag_425\n        /* \"#utility.yul\":19745:19747   */\n      0x11\n        /* \"#utility.yul\":19740:19743   */\n      dup4\n        /* \"#utility.yul\":19681:19748   */\n      tag_231\n      jump\t// in\n    tag_425:\n        /* \"#utility.yul\":19674:19748   */\n      swap2\n      pop\n        /* \"#utility.yul\":19757:19850   */\n      tag_426\n        /* \"#utility.yul\":19846:19849   */\n      dup3\n        /* \"#utility.yul\":19757:19850   */\n      tag_256\n      jump\t// in\n    tag_426:\n        /* \"#utility.yul\":19875:19877   */\n      0x20\n        /* \"#utility.yul\":19870:19873   */\n      dup3\n        /* \"#utility.yul\":19866:19878   */\n      add\n        /* \"#utility.yul\":19859:19878   */\n      swap1\n      pop\n        /* \"#utility.yul\":19518:19884   */\n      swap2\n      swap1\n      pop\n      jump\t// out\n        /* \"#utility.yul\":19890:20309   */\n    tag_192:\n        /* \"#utility.yul\":20056:20060   */\n      0x00\n        /* \"#utility.yul\":20094:20096   */\n      0x20\n        /* \"#utility.yul\":20083:20092   */\n      dup3\n        /* \"#utility.yul\":20079:20097   */\n      add\n        /* \"#utility.yul\":20071:20097   */\n      swap1\n      pop\n        /* \"#utility.yul\":20143:20152   */\n      dup2\n        /* \"#utility.yul\":20137:20141   */\n      dup2\n        /* \"#utility.yul\":20133:20153   */\n      sub\n        /* \"#utility.yul\":20129:20130   */\n      0x00\n        /* \"#utility.yul\":20118:20127   */\n      dup4\n        /* \"#utility.yul\":20114:20131   */\n      add\n        /* \"#utility.yul\":20107:20154   */\n      mstore\n        /* \"#utility.yul\":20171:20302   */\n      tag_428\n        /* \"#utility.yul\":20297:20301   */\n      dup2\n        /* \"#utility.yul\":20171:20302   */\n      tag_257\n      jump\t// in\n    tag_428:\n        /* \"#utility.yul\":20163:20302   */\n      swap1\n      pop\n        /* \"#utility.yul\":19890:20309   */\n      swap2\n      swap1\n      pop\n      jump\t// out\n        /* \"#utility.yul\":20315:20487   */\n    tag_258:\n        /* \"#utility.yul\":20455:20479   */\n      0x526566756e64207472616e73666572206661696c656400000000000000000000\n        /* \"#utility.yul\":20451:20452   */\n      0x00\n        /* \"#utility.yul\":20443:20449   */\n      dup3\n        /* \"#utility.yul\":20439:20453   */\n      add\n        /* \"#utility.yul\":20432:20480   */\n      mstore\n        /* \"#utility.yul\":20315:20487   */\n      pop\n      jump\t// out\n        /* \"#utility.yul\":20493:20859   */\n    tag_259:\n        /* \"#utility.yul\":20635:20638   */\n      0x00\n        /* \"#utility.yul\":20656:20723   */\n      tag_431\n        /* \"#utility.yul\":20720:20722   */\n      0x16\n        /* \"#utility.yul\":20715:20718   */\n      dup4\n        /* \"#utility.yul\":20656:20723   */\n      tag_231\n      jump\t// in\n    tag_431:\n        /* \"#utility.yul\":20649:20723   */\n      swap2\n      pop\n        /* \"#utility.yul\":20732:20825   */\n      tag_432\n        /* \"#utility.yul\":20821:20824   */\n      dup3\n        /* \"#utility.yul\":20732:20825   */\n      tag_258\n      jump\t// in\n    tag_432:\n        /* \"#utility.yul\":20850:20852   */\n      0x20\n        /* \"#utility.yul\":20845:20848   */\n      dup3\n        /* \"#utility.yul\":20841:20853   */\n      add\n        /* \"#utility.yul\":20834:20853   */\n      swap1\n      pop\n        /* \"#utility.yul\":20493:20859   */\n      swap2\n      swap1\n      pop\n      jump\t// out\n        /* \"#utility.yul\":20865:21284   */\n    tag_199:\n        /* \"#utility.yul\":21031:21035   */\n      0x00\n        /* \"#utility.yul\":21069:21071   */\n      0x20\n        /* \"#utility.yul\":21058:21067   */\n      dup3\n        /* \"#utility.yul\":21054:21072   */\n      add\n        /* \"#utility.yul\":21046:21072   */\n      swap1\n      pop\n        /* \"#utility.yul\":21118:21127   */\n      dup2\n        /* \"#utility.yul\":21112:21116   */\n      dup2\n        /* \"#utility.yul\":21108:21128   */\n      sub\n        /* \"#utility.yul\":21104:21105   */\n      0x00\n        /* \"#utility.yul\":21093:21102   */\n      dup4\n        /* \"#utility.yul\":21089:21106   */\n      add\n        /* \"#utility.yul\":21082:21129   */\n      mstore\n        /* \"#utility.yul\":21146:21277   */\n      tag_434\n        /* \"#utility.yul\":21272:21276   */\n      dup2\n        /* \"#utility.yul\":21146:21277   */\n      tag_259\n      jump\t// in\n    tag_434:\n        /* \"#utility.yul\":21138:21277   */\n      swap1\n      pop\n        /* \"#utility.yul\":20865:21284   */\n      swap2\n      swap1\n      pop\n      jump\t// out\n\n    auxdata: 0xa2646970667358221220be55a68e12c9025381e7b38799944d40dc67490469874dd4259eeb98615b0d5664736f6c63430008140033\n}\n",
				"bytecode": {
					"linkReferences": {},
					"object": "608060405234801562000010575f80fd5b5060405162001e7e38038062001e7e8339818101604052810190620000369190620002cb565b5f84116200007b576040517f08c379a0000000000000000000000000000000000000000000000000000000008152600401620000729062000398565b60405180910390fd5b5f73ffffffffffffffffffffffffffffffffffffffff168273ffffffffffffffffffffffffffffffffffffffff1603620000ec576040517f08c379a0000000000000000000000000000000000000000000000000000000008152600401620000e39062000406565b60405180910390fd5b5f73ffffffffffffffffffffffffffffffffffffffff168173ffffffffffffffffffffffffffffffffffffffff16036200015d576040517f08c379a0000000000000000000000000000000000000000000000000000000008152600401620001549062000474565b60405180910390fd5b81600360016101000a81548173ffffffffffffffffffffffffffffffffffffffff021916908373ffffffffffffffffffffffffffffffffffffffff160217905550835f819055508242620001b29190620004c1565b6001819055505f60035f6101000a81548160ff02191690836002811115620001df57620001de620004fb565b5b02179055508060045f6101000a81548173ffffffffffffffffffffffffffffffffffffffff021916908373ffffffffffffffffffffffffffffffffffffffff1602179055505050505062000528565b5f80fd5b5f819050919050565b620002468162000232565b811462000251575f80fd5b50565b5f8151905062000264816200023b565b92915050565b5f73ffffffffffffffffffffffffffffffffffffffff82169050919050565b5f62000295826200026a565b9050919050565b620002a78162000289565b8114620002b2575f80fd5b50565b5f81519050620002c5816200029c565b92915050565b5f805f8060808587031215620002e657620002e56200022e565b5b5f620002f58782880162000254565b9450506020620003088782880162000254565b93505060406200031b87828801620002b5565b92505060606200032e87828801620002b5565b91505092959194509250565b5f82825260208201905092915050565b7f476f616c206d757374206265203e2030000000000000000000000000000000005f82015250565b5f620003806010836200033a565b91506200038d826200034a565b602082019050919050565b5f6020820190508181035f830152620003b18162000372565b9050919050565b7f5a65726f206f776e6572000000000000000000000000000000000000000000005f82015250565b5f620003ee600a836200033a565b9150620003fb82620003b8565b602082019050919050565b5f6020820190508181035f8301526200041f81620003e0565b9050919050565b7f5a65726f20666163746f727900000000000000000000000000000000000000005f82015250565b5f6200045c600c836200033a565b9150620004698262000426565b602082019050919050565b5f6020820190508181035f8301526200048d816200044e565b9050919050565b7f4e487b71000000000000000000000000000000000000000000000000000000005f52601160045260245ffd5b5f620004cd8262000232565b9150620004da8362000232565b9250828201905080821115620004f557620004f462000494565b5b92915050565b7f4e487b71000000000000000000000000000000000000000000000000000000005f52602160045260245ffd5b61194880620005365f395ff3fe6080604052600436106100dc575f3560e01c8063590e1ae31161007e578063c19d93fb11610058578063c19d93fb14610281578063c45a0155146102ab578063d7bb99ba146102d5578063feed5561146102df576100dc565b8063590e1ae31461022b5780638da5cb5b14610241578063b5545a3c1461026b576100dc565b80633cb5d100116100ba5780633cb5d1001461015e5780633e27c8ac1461019a57806340193883146101c557806342e94c90146101ef576100dc565b8063023f4147146100e057806312065fe01461010a57806329dcb0cf14610134575b5f80fd5b3480156100eb575f80fd5b506100f4610309565b6040516101019190610f92565b60405180910390f35b348015610115575f80fd5b5061011e61030f565b60405161012b9190610f92565b60405180910390f35b34801561013f575f80fd5b50610148610316565b6040516101559190610f92565b60405180910390f35b348015610169575f80fd5b50610184600480360381019061017f9190610fd9565b61031c565b6040516101919190611043565b60405180910390f35b3480156101a5575f80fd5b506101ae610357565b6040516101bc9291906111ca565b60405180910390f35b3480156101d0575f80fd5b506101d9610865565b6040516101e69190610f92565b60405180910390f35b3480156101fa575f80fd5b5061021560048036038101906102109190611229565b61086a565b6040516102229190610f92565b60405180910390f35b348015610236575f80fd5b5061023f61087f565b005b34801561024c575f80fd5b506102556109f9565b6040516102629190611043565b60405180910390f35b348015610276575f80fd5b5061027f610a1f565b005b34801561028c575f80fd5b50610295610aa1565b6040516102a291906112c7565b60405180910390f35b3480156102b6575f80fd5b506102bf610ab3565b6040516102cc9190611043565b60405180910390f35b6102dd610ad8565b005b3480156102ea575f80fd5b506102f3610dae565b6040516103009190610f92565b60405180910390f35b60025481565b5f47905090565b60015481565b6006818154811061032b575f80fd5b905f5260205f20015f915054906101000a900473ffffffffffffffffffffffffffffffffffffffff1681565b60608060045f9054906101000a900473ffffffffffffffffffffffffffffffffffffffff1673ffffffffffffffffffffffffffffffffffffffff163373ffffffffffffffffffffffffffffffffffffffff16146103e9576040517f08c379a00000000000000000000000000000000000000000000000000000000081526004016103e09061133a565b60405180910390fd5b60018060028111156103fe576103fd611254565b5b60035f9054906101000a900460ff16600281111561041f5761041e611254565b5b1461045f576040517f08c379a0000000000000000000000000000000000000000000000000000000008152600401610456906113a2565b60405180910390fd5b6001544210156104a4576040517f08c379a000000000000000000000000000000000000000000000000000000000815260040161049b9061140a565b60405180910390fd5b5f4790505f81116104ea576040517f08c379a00000000000000000000000000000000000000000000000000000000081526004016104e190611472565b60405180910390fd5b5f600360019054906101000a900473ffffffffffffffffffffffffffffffffffffffff1673ffffffffffffffffffffffffffffffffffffffff1682604051610531906114bd565b5f6040518083038185875af1925050503d805f811461056b576040519150601f19603f3d011682016040523d82523d5f602084013e610570565b606091505b50509050806105b4576040517f08c379a00000000000000000000000000000000000000000000000000000000081526004016105ab9061151b565b60405180910390fd5b600360019054906101000a900473ffffffffffffffffffffffffffffffffffffffff1673ffffffffffffffffffffffffffffffffffffffff167f884edad9ce6fa2440d8a54cc123490eb96d2768479d49ff9c7366125a94243648360405161061c9190610f92565b60405180910390a25f60068054905090505f811161066f576040517f08c379a000000000000000000000000000000000000000000000000000000000815260040161066690611583565b60405180910390fd5b5f8167ffffffffffffffff81111561068a576106896115a1565b5b6040519080825280602002602001820160405280156106b85781602001602082028036833780820191505090505b5090505f8267ffffffffffffffff8111156106d6576106d56115a1565b5b6040519080825280602002602001820160405280156107045781602001602082028036833780820191505090505b5090505f5b8381101561081d575f60068281548110610726576107256115ce565b5b905f5260205f20015f9054906101000a900473ffffffffffffffffffffffffffffffffffffffff1690505f60055f8373ffffffffffffffffffffffffffffffffffffffff1673ffffffffffffffffffffffffffffffffffffffff1681526020019081526020015f205490505f81111561080857818584815181106107ad576107ac6115ce565b5b602002602001019073ffffffffffffffffffffffffffffffffffffffff16908173ffffffffffffffffffffffffffffffffffffffff1681525050808484815181106107fb576107fa6115ce565b5b6020026020010181815250505b5050808061081590611628565b915050610709565b507f6d1c76d614228b523baa4dcd9539e2c713b54ff4ab3ff2d1627e7f6cd32be4428360405161084d9190610f92565b60405180910390a18181975097505050505050509091565b5f5481565b6005602052805f5260405f205f915090505481565b5f80600281111561089357610892611254565b5b60035f9054906101000a900460ff1660028111156108b4576108b3611254565b5b146108f4576040517f08c379a00000000000000000000000000000000000000000000000000000000081526004016108eb906113a2565b60405180910390fd5b600154421015610939576040517f08c379a0000000000000000000000000000000000000000000000000000000008152600401610930906116b9565b60405180910390fd5b5f546002541061097e576040517f08c379a000000000000000000000000000000000000000000000000000000000815260040161097590611721565b60405180910390fd5b600260035f6101000a81548160ff021916908360028111156109a3576109a2611254565b5b02179055507f551dc40198cc79684bb69e4931dba4ac16e4598792ee1c0a5000aeea366d7bb660035f9054906101000a900460ff166040516109e591906112c7565b60405180910390a16109f633610dba565b50565b600360019054906101000a900473ffffffffffffffffffffffffffffffffffffffff1681565b6002806002811115610a3457610a33611254565b5b60035f9054906101000a900460ff166002811115610a5557610a54611254565b5b14610a95576040517f08c379a0000000000000000000000000000000000000000000000000000000008152600401610a8c906113a2565b60405180910390fd5b610a9e33610dba565b50565b60035f9054906101000a900460ff1681565b60045f9054906101000a900473ffffffffffffffffffffffffffffffffffffffff1681565b5f806002811115610aec57610aeb611254565b5b60035f9054906101000a900460ff166002811115610b0d57610b0c611254565b5b14610b4d576040517f08c379a0000000000000000000000000000000000000000000000000000000008152600401610b44906113a2565b60405180910390fd5b6001544210610b91576040517f08c379a0000000000000000000000000000000000000000000000000000000008152600401610b8890611789565b60405180910390fd5b5f3411610bd3576040517f08c379a0000000000000000000000000000000000000000000000000000000008152600401610bca906117f1565b60405180910390fd5b5f60055f3373ffffffffffffffffffffffffffffffffffffffff1673ffffffffffffffffffffffffffffffffffffffff1681526020019081526020015f205403610c7857600633908060018154018082558091505060019003905f5260205f20015f9091909190916101000a81548173ffffffffffffffffffffffffffffffffffffffff021916908373ffffffffffffffffffffffffffffffffffffffff1602179055505b3460055f3373ffffffffffffffffffffffffffffffffffffffff1673ffffffffffffffffffffffffffffffffffffffff1681526020019081526020015f205f828254610cc4919061180f565b925050819055503460025f828254610cdc919061180f565b925050819055503373ffffffffffffffffffffffffffffffffffffffff167f4d154d4aae216bed6d0926db77c00df2b57c6b5ba4eee05775de20facede3a7b34604051610d299190610f92565b60405180910390a25f5460025410610dab57600160035f6101000a81548160ff02191690836002811115610d6057610d5f611254565b5b02179055507f551dc40198cc79684bb69e4931dba4ac16e4598792ee1c0a5000aeea366d7bb660035f9054906101000a900460ff16604051610da291906112c7565b60405180910390a15b50565b5f600680549050905090565b5f60055f8373ffffffffffffffffffffffffffffffffffffffff1673ffffffffffffffffffffffffffffffffffffffff1681526020019081526020015f205490505f8111610e3d576040517f08c379a0000000000000000000000000000000000000000000000000000000008152600401610e349061188c565b60405180910390fd5b5f60055f8473ffffffffffffffffffffffffffffffffffffffff1673ffffffffffffffffffffffffffffffffffffffff1681526020019081526020015f20819055505f8273ffffffffffffffffffffffffffffffffffffffff1682604051610ea4906114bd565b5f6040518083038185875af1925050503d805f8114610ede576040519150601f19603f3d011682016040523d82523d5f602084013e610ee3565b606091505b5050905080610f27576040517f08c379a0000000000000000000000000000000000000000000000000000000008152600401610f1e906118f4565b60405180910390fd5b8273ffffffffffffffffffffffffffffffffffffffff167fbb28353e4598c3b9199101a66e0989549b659a59a54d2c27fbb183f1932c8e6d83604051610f6d9190610f92565b60405180910390a2505050565b5f819050919050565b610f8c81610f7a565b82525050565b5f602082019050610fa55f830184610f83565b92915050565b5f80fd5b610fb881610f7a565b8114610fc2575f80fd5b50565b5f81359050610fd381610faf565b92915050565b5f60208284031215610fee57610fed610fab565b5b5f610ffb84828501610fc5565b91505092915050565b5f73ffffffffffffffffffffffffffffffffffffffff82169050919050565b5f61102d82611004565b9050919050565b61103d81611023565b82525050565b5f6020820190506110565f830184611034565b92915050565b5f81519050919050565b5f82825260208201905092915050565b5f819050602082019050919050565b61108e81611023565b82525050565b5f61109f8383611085565b60208301905092915050565b5f602082019050919050565b5f6110c18261105c565b6110cb8185611066565b93506110d683611076565b805f5b838110156111065781516110ed8882611094565b97506110f8836110ab565b9250506001810190506110d9565b5085935050505092915050565b5f81519050919050565b5f82825260208201905092915050565b5f819050602082019050919050565b61114581610f7a565b82525050565b5f611156838361113c565b60208301905092915050565b5f602082019050919050565b5f61117882611113565b611182818561111d565b935061118d8361112d565b805f5b838110156111bd5781516111a4888261114b565b97506111af83611162565b925050600181019050611190565b5085935050505092915050565b5f6040820190508181035f8301526111e281856110b7565b905081810360208301526111f6818461116e565b90509392505050565b61120881611023565b8114611212575f80fd5b50565b5f81359050611223816111ff565b92915050565b5f6020828403121561123e5761123d610fab565b5b5f61124b84828501611215565b91505092915050565b7f4e487b71000000000000000000000000000000000000000000000000000000005f52602160045260245ffd5b6003811061129257611291611254565b5b50565b5f8190506112a282611281565b919050565b5f6112b182611295565b9050919050565b6112c1816112a7565b82525050565b5f6020820190506112da5f8301846112b8565b92915050565b5f82825260208201905092915050565b7f4e6f7420666163746f72790000000000000000000000000000000000000000005f82015250565b5f611324600b836112e0565b915061132f826112f0565b602082019050919050565b5f6020820190508181035f83015261135181611318565b9050919050565b7f496e76616c6964207374617465000000000000000000000000000000000000005f82015250565b5f61138c600d836112e0565b915061139782611358565b602082019050919050565b5f6020820190508181035f8301526113b981611380565b9050919050565b7f5761697420756e74696c20646561646c696e65000000000000000000000000005f82015250565b5f6113f46013836112e0565b91506113ff826113c0565b602082019050919050565b5f6020820190508181035f830152611421816113e8565b9050919050565b7f4e6f7468696e6720746f207769746864726177000000000000000000000000005f82015250565b5f61145c6013836112e0565b915061146782611428565b602082019050919050565b5f6020820190508181035f83015261148981611450565b9050919050565b5f81905092915050565b50565b5f6114a85f83611490565b91506114b38261149a565b5f82019050919050565b5f6114c78261149d565b9150819050919050565b7f455448207472616e73666572206661696c6564000000000000000000000000005f82015250565b5f6115056013836112e0565b9150611510826114d1565b602082019050919050565b5f6020820190508181035f830152611532816114f9565b9050919050565b7f4e6f20636f6e7472696275746f727300000000000000000000000000000000005f82015250565b5f61156d600f836112e0565b915061157882611539565b602082019050919050565b5f6020820190508181035f83015261159a81611561565b9050919050565b7f4e487b71000000000000000000000000000000000000000000000000000000005f52604160045260245ffd5b7f4e487b71000000000000000000000000000000000000000000000000000000005f52603260045260245ffd5b7f4e487b71000000000000000000000000000000000000000000000000000000005f52601160045260245ffd5b5f61163282610f7a565b91507fffffffffffffffffffffffffffffffffffffffffffffffffffffffffffffffff8203611664576116636115fb565b5b600182019050919050565b7f446561646c696e65206e6f7420726561636865640000000000000000000000005f82015250565b5f6116a36014836112e0565b91506116ae8261166f565b602082019050919050565b5f6020820190508181035f8301526116d081611697565b9050919050565b7f476f616c207265616368656400000000000000000000000000000000000000005f82015250565b5f61170b600c836112e0565b9150611716826116d7565b602082019050919050565b5f6020820190508181035f830152611738816116ff565b9050919050565b7f446561646c696e652070617373656400000000000000000000000000000000005f82015250565b5f611773600f836112e0565b915061177e8261173f565b602082019050919050565b5f6020820190508181035f8301526117a081611767565b9050919050565b7f4e6f204554482073656e740000000000000000000000000000000000000000005f82015250565b5f6117db600b836112e0565b91506117e6826117a7565b602082019050919050565b5f6020820190508181035f830152611808816117cf565b9050919050565b5f61181982610f7a565b915061182483610f7a565b925082820190508082111561183c5761183b6115fb565b5b92915050565b7f4e6f7468696e6720746f20726566756e640000000000000000000000000000005f82015250565b5f6118766011836112e0565b915061188182611842565b602082019050919050565b5f6020820190508181035f8301526118a38161186a565b9050919050565b7f526566756e64207472616e73666572206661696c6564000000000000000000005f82015250565b5f6118de6016836112e0565b91506118e9826118aa565b602082019050919050565b5f6020820190508181035f83015261190b816118d2565b905091905056fea2646970667358221220be55a68e12c9025381e7b38799944d40dc67490469874dd4259eeb98615b0d5664736f6c63430008140033",
					"opcodes": "PUSH1 0x80 PUSH1 0x40 MSTORE CALLVALUE DUP1 ISZERO PUSH3 0x10 JUMPI PUSH0 DUP1 REVERT JUMPDEST POP PUSH1 0x40 MLOAD PUSH3 0x1E7E CODESIZE SUB DUP1 PUSH3 0x1E7E DUP4 CODECOPY DUP2 DUP2 ADD PUSH1 0x40 MSTORE DUP2 ADD SWAP1 PUSH3 0x36 SWAP2 SWAP1 PUSH3 0x2CB JUMP JUMPDEST PUSH0 DUP5 GT PUSH3 0x7B JUMPI PUSH1 0x40 MLOAD PUSH32 0x8C379A000000000000000000000000000000000000000000000000000000000 DUP2 MSTORE PUSH1 0x4 ADD PUSH3 0x72 SWAP1 PUSH3 0x398 JUMP JUMPDEST PUSH1 0x40 MLOAD DUP1 SWAP2 SUB SWAP1 REVERT JUMPDEST PUSH0 PUSH20 0xFFFFFFFFFFFFFFFFFFFFFFFFFFFFFFFFFFFFFFFF AND DUP3 PUSH20 0xFFFFFFFFFFFFFFFFFFFFFFFFFFFFFFFFFFFFFFFF AND SUB PUSH3 0xEC JUMPI PUSH1 0x40 MLOAD PUSH32 0x8C379A000000000000000000000000000000000000000000000000000000000 DUP2 MSTORE PUSH1 0x4 ADD PUSH3 0xE3 SWAP1 PUSH3 0x406 JUMP JUMPDEST PUSH1 0x40 MLOAD DUP1 SWAP2 SUB SWAP1 REVERT JUMPDEST PUSH0 PUSH20 0xFFFFFFFFFFFFFFFFFFFFFFFFFFFFFFFFFFFFFFFF AND DUP2 PUSH20 0xFFFFFFFFFFFFFFFFFFFFFFFFFFFFFFFFFFFFFFFF AND SUB PUSH3 0x15D JUMPI PUSH1 0x40 MLOAD PUSH32 0x8C379A000000000000000000000000000000000000000000000000000000000 DUP2 MSTORE PUSH1 0x4 ADD PUSH3 0x154 SWAP1 PUSH3 0x474 JUMP JUMPDEST PUSH1 0x40 MLOAD DUP1 SWAP2 SUB SWAP1 REVERT JUMPDEST DUP2 PUSH1 0x3 PUSH1 0x1 PUSH2 0x100 EXP DUP2 SLOAD DUP2 PUSH20 0xFFFFFFFFFFFFFFFFFFFFFFFFFFFFFFFFFFFFFFFF MUL NOT AND SWAP1 DUP4 PUSH20 0xFFFFFFFFFFFFFFFFFFFFFFFFFFFFFFFFFFFFFFFF AND MUL OR SWAP1 SSTORE POP DUP4 PUSH0 DUP2 SWAP1 SSTORE POP DUP3 TIMESTAMP PUSH3 0x1B2 SWAP2 SWAP1 PUSH3 0x4C1 JUMP JUMPDEST PUSH1 0x1 DUP2 SWAP1 SSTORE POP PUSH0 PUSH1 0x3 PUSH0 PUSH2 0x100 EXP DUP2 SLOAD DUP2 PUSH1 0xFF MUL NOT AND SWAP1 DUP4 PUSH1 0x2 DUP2 GT ISZERO PUSH3 0x1DF JUMPI PUSH3 0x1DE PUSH3 0x4FB JUMP JUMPDEST JUMPDEST MUL OR SWAP1 SSTORE POP DUP1 PUSH1 0x4 PUSH0 PUSH2 0x100 EXP DUP2 SLOAD DUP2 PUSH20 0xFFFFFFFFFFFFFFFFFFFFFFFFFFFFFFFFFFFFFFFF MUL NOT AND SWAP1 DUP4 PUSH20 0xFFFFFFFFFFFFFFFFFFFFFFFFFFFFFFFFFFFFFFFF AND MUL OR SWAP1 SSTORE POP POP POP POP POP PUSH3 0x528 JUMP JUMPDEST PUSH0 DUP1 REVERT JUMPDEST PUSH0 DUP2 SWAP1 POP SWAP2 SWAP1 POP JUMP JUMPDEST PUSH3 0x246 DUP2 PUSH3 0x232 JUMP JUMPDEST DUP2 EQ PUSH3 0x251 JUMPI PUSH0 DUP1 REVERT JUMPDEST POP JUMP JUMPDEST PUSH0 DUP2 MLOAD SWAP1 POP PUSH3 0x264 DUP2 PUSH3 0x23B JUMP JUMPDEST SWAP3 SWAP2 POP POP JUMP JUMPDEST PUSH0 PUSH20 0xFFFFFFFFFFFFFFFFFFFFFFFFFFFFFFFFFFFFFFFF DUP3 AND SWAP1 POP SWAP2 SWAP1 POP JUMP JUMPDEST PUSH0 PUSH3 0x295 DUP3 PUSH3 0x26A JUMP JUMPDEST SWAP1 POP SWAP2 SWAP1 POP JUMP JUMPDEST PUSH3 0x2A7 DUP2 PUSH3 0x289 JUMP JUMPDEST DUP2 EQ PUSH3 0x2B2 JUMPI PUSH0 DUP1 REVERT JUMPDEST POP JUMP JUMPDEST PUSH0 DUP2 MLOAD SWAP1 POP PUSH3 0x2C5 DUP2 PUSH3 0x29C JUMP JUMPDEST SWAP3 SWAP2 POP POP JUMP JUMPDEST PUSH0 DUP1 PUSH0 DUP1 PUSH1 0x80 DUP6 DUP8 SUB SLT ISZERO PUSH3 0x2E6 JUMPI PUSH3 0x2E5 PUSH3 0x22E JUMP JUMPDEST JUMPDEST PUSH0 PUSH3 0x2F5 DUP8 DUP3 DUP9 ADD PUSH3 0x254 JUMP JUMPDEST SWAP5 POP POP PUSH1 0x20 PUSH3 0x308 DUP8 DUP3 DUP9 ADD PUSH3 0x254 JUMP JUMPDEST SWAP4 POP POP PUSH1 0x40 PUSH3 0x31B DUP8 DUP3 DUP9 ADD PUSH3 0x2B5 JUMP JUMPDEST SWAP3 POP POP PUSH1 0x60 PUSH3 0x32E DUP8 DUP3 DUP9 ADD PUSH3 0x2B5 JUMP JUMPDEST SWAP2 POP POP SWAP3 SWAP6 SWAP2 SWAP5 POP SWAP3 POP JUMP JUMPDEST PUSH0 DUP3 DUP3 MSTORE PUSH1 0x20 DUP3 ADD SWAP1 POP SWAP3 SWAP2 POP POP JUMP JUMPDEST PUSH32 0x476F616C206D757374206265203E203000000000000000000000000000000000 PUSH0 DUP3 ADD MSTORE POP JUMP JUMPDEST PUSH0 PUSH3 0x380 PUSH1 0x10 DUP4 PUSH3 0x33A JUMP JUMPDEST SWAP2 POP PUSH3 0x38D DUP3 PUSH3 0x34A JUMP JUMPDEST PUSH1 0x20 DUP3 ADD SWAP1 POP SWAP2 SWAP1 POP JUMP JUMPDEST PUSH0 PUSH1 0x20 DUP3 ADD SWAP1 POP DUP2 DUP2 SUB PUSH0 DUP4 ADD MSTORE PUSH3 0x3B1 DUP2 PUSH3 0x372 JUMP JUMPDEST SWAP1 POP SWAP2 SWAP1 POP JUMP JUMPDEST PUSH32 0x5A65726F206F776E657200000000000000000000000000000000000000000000 PUSH0 DUP3 ADD MSTORE POP JUMP JUMPDEST PUSH0 PUSH3 0x3EE PUSH1 0xA DUP4 PUSH3 0x33A JUMP JUMPDEST SWAP2 POP PUSH3 0x3FB DUP3 PUSH3 0x3B8 JUMP JUMPDEST PUSH1 0x20 DUP3 ADD SWAP1 POP SWAP2 SWAP1 POP JUMP JUMPDEST PUSH0 PUSH1 0x20 DUP3 ADD SWAP1 POP DUP2 DUP2 SUB PUSH0 DUP4 ADD MSTORE PUSH3 0x41F DUP2 PUSH3 0x3E0 JUMP JUMPDEST SWAP1 POP SWAP2 SWAP1 POP JUMP JUMPDEST PUSH32 0x5A65726F20666163746F72790000000000000000000000000000000000000000 PUSH0 DUP3 ADD MSTORE POP JUMP JUMPDEST PUSH0 PUSH3 0x45C PUSH1 0xC DUP4 PUSH3 0x33A JUMP JUMPDEST SWAP2 POP PUSH3 0x469 DUP3 PUSH3 0x426 JUMP JUMPDEST PUSH1 0x20 DUP3 ADD SWAP1 POP SWAP2 SWAP1 POP JUMP JUMPDEST PUSH0 PUSH1 0x20 DUP3 ADD SWAP1 POP DUP2 DUP2 SUB PUSH0 DUP4 ADD MSTORE PUSH3 0x48D DUP2 PUSH3 0x44E JUMP JUMPDEST SWAP1 POP SWAP2 SWAP1 POP JUMP JUMPDEST PUSH32 0x4E487B7100000000000000000000000000000000000000000000000000000000 PUSH0 MSTORE PUSH1 0x11 PUSH1 0x4 MSTORE PUSH1 0x24 PUSH0 REVERT JUMPDEST PUSH0 PUSH3 0x4CD DUP3 PUSH3 0x232 JUMP JUMPDEST SWAP2 POP PUSH3 0x4DA DUP4 PUSH3 0x232 JUMP JUMPDEST SWAP3 POP DUP3 DUP3 ADD SWAP1 POP DUP1 DUP3 GT ISZERO PUSH3 0x4F5 JUMPI PUSH3 0x4F4 PUSH3 0x494 JUMP JUMPDEST JUMPDEST SWAP3 SWAP2 POP POP JUMP JUMPDEST PUSH32 0x4E487B7100000000000000000000000000000000000000000000000000000000 PUSH0 MSTORE PUSH1 0x21 PUSH1 0x4 MSTORE PUSH1 0x24 PUSH0 REVERT JUMPDEST PUSH2 0x1948 DUP1 PUSH3 0x536 PUSH0 CODECOPY PUSH0 RETURN INVALID PUSH1 0x80 PUSH1 0x40 MSTORE PUSH1 0x4 CALLDATASIZE LT PUSH2 0xDC JUMPI PUSH0 CALLDATALOAD PUSH1 0xE0 SHR DUP1 PUSH4 0x590E1AE3 GT PUSH2 0x7E JUMPI DUP1 PUSH4 0xC19D93FB GT PUSH2 0x58 JUMPI DUP1 PUSH4 0xC19D93FB EQ PUSH2 0x281 JUMPI DUP1 PUSH4 0xC45A0155 EQ PUSH2 0x2AB JUMPI DUP1 PUSH4 0xD7BB99BA EQ PUSH2 0x2D5 JUMPI DUP1 PUSH4 0xFEED5561 EQ PUSH2 0x2DF JUMPI PUSH2 0xDC JUMP JUMPDEST DUP1 PUSH4 0x590E1AE3 EQ PUSH2 0x22B JUMPI DUP1 PUSH4 0x8DA5CB5B EQ PUSH2 0x241 JUMPI DUP1 PUSH4 0xB5545A3C EQ PUSH2 0x26B JUMPI PUSH2 0xDC JUMP JUMPDEST DUP1 PUSH4 0x3CB5D100 GT PUSH2 0xBA JUMPI DUP1 PUSH4 0x3CB5D100 EQ PUSH2 0x15E JUMPI DUP1 PUSH4 0x3E27C8AC EQ PUSH2 0x19A JUMPI DUP1 PUSH4 0x40193883 EQ PUSH2 0x1C5 JUMPI DUP1 PUSH4 0x42E94C90 EQ PUSH2 0x1EF JUMPI PUSH2 0xDC JUMP JUMPDEST DUP1 PUSH4 0x23F4147 EQ PUSH2 0xE0 JUMPI DUP1 PUSH4 0x12065FE0 EQ PUSH2 0x10A JUMPI DUP1 PUSH4 0x29DCB0CF EQ PUSH2 0x134 JUMPI JUMPDEST PUSH0 DUP1 REVERT JUMPDEST CALLVALUE DUP1 ISZERO PUSH2 0xEB JUMPI PUSH0 DUP1 REVERT JUMPDEST POP PUSH2 0xF4 PUSH2 0x309 JUMP JUMPDEST PUSH1 0x40 MLOAD PUSH2 0x101 SWAP2 SWAP1 PUSH2 0xF92 JUMP JUMPDEST PUSH1 0x40 MLOAD DUP1 SWAP2 SUB SWAP1 RETURN JUMPDEST CALLVALUE DUP1 ISZERO PUSH2 0x115 JUMPI PUSH0 DUP1 REVERT JUMPDEST POP PUSH2 0x11E PUSH2 0x30F JUMP JUMPDEST PUSH1 0x40 MLOAD PUSH2 0x12B SWAP2 SWAP1 PUSH2 0xF92 JUMP JUMPDEST PUSH1 0x40 MLOAD DUP1 SWAP2 SUB SWAP1 RETURN JUMPDEST CALLVALUE DUP1 ISZERO PUSH2 0x13F JUMPI PUSH0 DUP1 REVERT JUMPDEST POP PUSH2 0x148 PUSH2 0x316 JUMP JUMPDEST PUSH1 0x40 MLOAD PUSH2 0x155 SWAP2 SWAP1 PUSH2 0xF92 JUMP JUMPDEST PUSH1 0x40 MLOAD DUP1 SWAP2 SUB SWAP1 RETURN JUMPDEST CALLVALUE DUP1 ISZERO PUSH2 0x169 JUMPI PUSH0 DUP1 REVERT JUMPDEST POP PUSH2 0x184 PUSH1 0x4 DUP1 CALLDATASIZE SUB DUP2 ADD SWAP1 PUSH2 0x17F SWAP2 SWAP1 PUSH2 0xFD9 JUMP JUMPDEST PUSH2 0x31C JUMP JUMPDEST PUSH1 0x40 MLOAD PUSH2 0x191 SWAP2 SWAP1 PUSH2 0x1043 JUMP JUMPDEST PUSH1 0x40 MLOAD DUP1 SWAP2 SUB SWAP1 RETURN JUMPDEST CALLVALUE DUP1 ISZERO PUSH2 0x1A5 JUMPI PUSH0 DUP1 REVERT JUMPDEST POP PUSH2 0x1AE PUSH2 0x357 JUMP JUMPDEST PUSH1 0x40 MLOAD PUSH2 0x1BC SWAP3 SWAP2 SWAP1 PUSH2 0x11CA JUMP JUMPDEST PUSH1 0x40 MLOAD DUP1 SWAP2 SUB SWAP1 RETURN JUMPDEST CALLVALUE DUP1 ISZERO PUSH2 0x1D0 JUMPI PUSH0 DUP1 REVERT JUMPDEST POP PUSH2 0x1D9 PUSH2 0x865 JUMP JUMPDEST PUSH1 0x40 MLOAD PUSH2 0x1E6 SWAP2 SWAP1 PUSH2 0xF92 JUMP JUMPDEST PUSH1 0x40 MLOAD DUP1 SWAP2 SUB SWAP1 RETURN JUMPDEST CALLVALUE DUP1 ISZERO PUSH2 0x1FA JUMPI PUSH0 DUP1 REVERT JUMPDEST POP PUSH2 0x215 PUSH1 0x4 DUP1 CALLDATASIZE SUB DUP2 ADD SWAP1 PUSH2 0x210 SWAP2 SWAP1 PUSH2 0x1229 JUMP JUMPDEST PUSH2 0x86A JUMP JUMPDEST PUSH1 0x40 MLOAD PUSH2 0x222 SWAP2 SWAP1 PUSH2 0xF92 JUMP JUMPDEST PUSH1 0x40 MLOAD DUP1 SWAP2 SUB SWAP1 RETURN JUMPDEST CALLVALUE DUP1 ISZERO PUSH2 0x236 JUMPI PUSH0 DUP1 REVERT JUMPDEST POP PUSH2 0x23F PUSH2 0x87F JUMP JUMPDEST STOP JUMPDEST CALLVALUE DUP1 ISZERO PUSH2 0x24C JUMPI PUSH0 DUP1 REVERT JUMPDEST POP PUSH2 0x255 PUSH2 0x9F9 JUMP JUMPDEST PUSH1 0x40 MLOAD PUSH2 0x262 SWAP2 SWAP1 PUSH2 0x1043 JUMP JUMPDEST PUSH1 0x40 MLOAD DUP1 SWAP2 SUB SWAP1 RETURN JUMPDEST CALLVALUE DUP1 ISZERO PUSH2 0x276 JUMPI PUSH0 DUP1 REVERT JUMPDEST POP PUSH2 0x27F PUSH2 0xA1F JUMP JUMPDEST STOP JUMPDEST CALLVALUE DUP1 ISZERO PUSH2 0x28C JUMPI PUSH0 DUP1 REVERT JUMPDEST POP PUSH2 0x295 PUSH2 0xAA1 JUMP JUMPDEST PUSH1 0x40 MLOAD PUSH2 0x2A2 SWAP2 SWAP1 PUSH2 0x12C7 JUMP JUMPDEST PUSH1 0x40 MLOAD DUP1 SWAP2 SUB SWAP1 RETURN JUMPDEST CALLVALUE DUP1 ISZERO PUSH2 0x2B6 JUMPI PUSH0 DUP1 REVERT JUMPDEST POP PUSH2 0x2BF PUSH2 0xAB3 JUMP JUMPDEST PUSH1 0x40 MLOAD PUSH2 0x2CC SWAP2 SWAP1 PUSH2 0x1043 JUMP JUMPDEST PUSH1 0x40 MLOAD DUP1 SWAP2 SUB SWAP1 RETURN JUMPDEST PUSH2 0x2DD PUSH2 0xAD8 JUMP JUMPDEST STOP JUMPDEST CALLVALUE DUP1 ISZERO PUSH2 0x2EA JUMPI PUSH0 DUP1 REVERT JUMPDEST POP PUSH2 0x2F3 PUSH2 0xDAE JUMP JUMPDEST PUSH1 0x40 MLOAD PUSH2 0x300 SWAP2 SWAP1 PUSH2 0xF92 JUMP JUMPDEST PUSH1 0x40 MLOAD DUP1 SWAP2 SUB SWAP1 RETURN JUMPDEST PUSH1 0x2 SLOAD DUP2 JUMP JUMPDEST PUSH0 SELFBALANCE SWAP1 POP SWAP1 JUMP JUMPDEST PUSH1 0x1 SLOAD DUP2 JUMP JUMPDEST PUSH1 0x6 DUP2 DUP2 SLOAD DUP2 LT PUSH2 0x32B JUMPI PUSH0 DUP1 REVERT JUMPDEST SWAP1 PUSH0 MSTORE PUSH1 0x20 PUSH0 KECCAK256 ADD PUSH0 SWAP2 POP SLOAD SWAP1 PUSH2 0x100 EXP SWAP1 DIV PUSH20 0xFFFFFFFFFFFFFFFFFFFFFFFFFFFFFFFFFFFFFFFF AND DUP2 JUMP JUMPDEST PUSH1 0x60 DUP1 PUSH1 0x4 PUSH0 SWAP1 SLOAD SWAP1 PUSH2 0x100 EXP SWAP1 DIV PUSH20 0xFFFFFFFFFFFFFFFFFFFFFFFFFFFFFFFFFFFFFFFF AND PUSH20 0xFFFFFFFFFFFFFFFFFFFFFFFFFFFFFFFFFFFFFFFF AND CALLER PUSH20 0xFFFFFFFFFFFFFFFFFFFFFFFFFFFFFFFFFFFFFFFF AND EQ PUSH2 0x3E9 JUMPI PUSH1 0x40 MLOAD PUSH32 0x8C379A000000000000000000000000000000000000000000000000000000000 DUP2 MSTORE PUSH1 0x4 ADD PUSH2 0x3E0 SWAP1 PUSH2 0x133A JUMP JUMPDEST PUSH1 0x40 MLOAD DUP1 SWAP2 SUB SWAP1 REVERT JUMPDEST PUSH1 0x1 DUP1 PUSH1 0x2 DUP2 GT ISZERO PUSH2 0x3FE JUMPI PUSH2 0x3FD PUSH2 0x1254 JUMP JUMPDEST JUMPDEST PUSH1 0x3 PUSH0 SWAP1 SLOAD SWAP1 PUSH2 0x100 EXP SWAP1 DIV PUSH1 0xFF AND PUSH1 0x2 DUP2 GT ISZERO PUSH2 0x41F JUMPI PUSH2 0x41E PUSH2 0x1254 JUMP JUMPDEST JUMPDEST EQ PUSH2 0x45F JUMPI PUSH1 0x40 MLOAD PUSH32 0x8C379A000000000000000000000000000000000000000000000000000000000 DUP2 MSTORE PUSH1 0x4 ADD PUSH2 0x456 SWAP1 PUSH2 0x13A2 JUMP JUMPDEST PUSH1 0x40 MLOAD DUP1 SWAP2 SUB SWAP1 REVERT JUMPDEST PUSH1 0x1 SLOAD TIMESTAMP LT ISZERO PUSH2 0x4A4 JUMPI PUSH1 0x40 MLOAD PUSH32 0x8C379A000000000000000000000000000000000000000000000000000000000 DUP2 MSTORE PUSH1 0x4 ADD PUSH2 0x49B SWAP1 PUSH2 0x140A JUMP JUMPDEST PUSH1 0x40 MLOAD DUP1 SWAP2 SUB SWAP1 REVERT JUMPDEST PUSH0 SELFBALANCE SWAP1 POP PUSH0 DUP2 GT PUSH2 0x4EA JUMPI PUSH1 0x40 MLOAD PUSH32 0x8C379A000000000000000000000000000000000000000000000000000000000 DUP2 MSTORE PUSH1 0x4 ADD PUSH2 0x4E1 SWAP1 PUSH2 0x1472 JUMP JUMPDEST PUSH1 0x40 MLOAD DUP1 SWAP2 SUB SWAP1 REVERT JUMPDEST PUSH0 PUSH1 0x3 PUSH1 0x1 SWAP1 SLOAD SWAP1 PUSH2 0x100 EXP SWAP1 DIV PUSH20 0xFFFFFFFFFFFFFFFFFFFFFFFFFFFFFFFFFFFFFFFF AND PUSH20 0xFFFFFFFFFFFFFFFFFFFFFFFFFFFFFFFFFFFFFFFF AND DUP3 PUSH1 0x40 MLOAD PUSH2 0x531 SWAP1 PUSH2 0x14BD JUMP JUMPDEST PUSH0 PUSH1 0x40 MLOAD DUP1 DUP4 SUB DUP2 DUP6 DUP8 GAS CALL SWAP3 POP POP POP RETURNDATASIZE DUP1 PUSH0 DUP2 EQ PUSH2 0x56B JUMPI PUSH1 0x40 MLOAD SWAP2 POP PUSH1 0x1F NOT PUSH1 0x3F RETURNDATASIZE ADD AND DUP3 ADD PUSH1 0x40 MSTORE RETURNDATASIZE DUP3 MSTORE RETURNDATASIZE PUSH0 PUSH1 0x20 DUP5 ADD RETURNDATACOPY PUSH2 0x570 JUMP JUMPDEST PUSH1 0x60 SWAP2 POP JUMPDEST POP POP SWAP1 POP DUP1 PUSH2 0x5B4 JUMPI PUSH1 0x40 MLOAD PUSH32 0x8C379A000000000000000000000000000000000000000000000000000000000 DUP2 MSTORE PUSH1 0x4 ADD PUSH2 0x5AB SWAP1 PUSH2 0x151B JUMP JUMPDEST PUSH1 0x40 MLOAD DUP1 SWAP2 SUB SWAP1 REVERT JUMPDEST PUSH1 0x3 PUSH1 0x1 SWAP1 SLOAD SWAP1 PUSH2 0x100 EXP SWAP1 DIV PUSH20 0xFFFFFFFFFFFFFFFFFFFFFFFFFFFFFFFFFFFFFFFF AND PUSH20 0xFFFFFFFFFFFFFFFFFFFFFFFFFFFFFFFFFFFFFFFF AND PUSH32 0x884EDAD9CE6FA2440D8A54CC123490EB96D2768479D49FF9C7366125A9424364 DUP4 PUSH1 0x40 MLOAD PUSH2 0x61C SWAP2 SWAP1 PUSH2 0xF92 JUMP JUMPDEST PUSH1 0x40 MLOAD DUP1 SWAP2 SUB SWAP1 LOG2 PUSH0 PUSH1 0x6 DUP1 SLOAD SWAP1 POP SWAP1 POP PUSH0 DUP2 GT PUSH2 0x66F JUMPI PUSH1 0x40 MLOAD PUSH32 0x8C379A000000000000000000000000000000000000000000000000000000000 DUP2 MSTORE PUSH1 0x4 ADD PUSH2 0x666 SWAP1 PUSH2 0x1583 JUMP JUMPDEST PUSH1 0x40 MLOAD DUP1 SWAP2 SUB SWAP1 REVERT JUMPDEST PUSH0 DUP2 PUSH8 0xFFFFFFFFFFFFFFFF DUP2 GT ISZERO PUSH2 0x68A JUMPI PUSH2 0x689 PUSH2 0x15A1 JUMP JUMPDEST JUMPDEST PUSH1 0x40 MLOAD SWAP1 DUP1 DUP3 MSTORE DUP1 PUSH1 0x20 MUL PUSH1 0x20 ADD DUP3 ADD PUSH1 0x40 MSTORE DUP1 ISZERO PUSH2 0x6B8 JUMPI DUP2 PUSH1 0x20 ADD PUSH1 0x20 DUP3 MUL DUP1 CALLDATASIZE DUP4 CALLDATACOPY DUP1 DUP3 ADD SWAP2 POP POP SWAP1 POP JUMPDEST POP SWAP1 POP PUSH0 DUP3 PUSH8 0xFFFFFFFFFFFFFFFF DUP2 GT ISZERO PUSH2 0x6D6 JUMPI PUSH2 0x6D5 PUSH2 0x15A1 JUMP JUMPDEST JUMPDEST PUSH1 0x40 MLOAD SWAP1 DUP1 DUP3 MSTORE DUP1 PUSH1 0x20 MUL PUSH1 0x20 ADD DUP3 ADD PUSH1 0x40 MSTORE DUP1 ISZERO PUSH2 0x704 JUMPI DUP2 PUSH1 0x20 ADD PUSH1 0x20 DUP3 MUL DUP1 CALLDATASIZE DUP4 CALLDATACOPY DUP1 DUP3 ADD SWAP2 POP POP SWAP1 POP JUMPDEST POP SWAP1 POP PUSH0 JUMPDEST DUP4 DUP2 LT ISZERO PUSH2 0x81D JUMPI PUSH0 PUSH1 0x6 DUP3 DUP2 SLOAD DUP2 LT PUSH2 0x726 JUMPI PUSH2 0x725 PUSH2 0x15CE JUMP JUMPDEST JUMPDEST SWAP1 PUSH0 MSTORE PUSH1 0x20 PUSH0 KECCAK256 ADD PUSH0 SWAP1 SLOAD SWAP1 PUSH2 0x100 EXP SWAP1 DIV PUSH20 0xFFFFFFFFFFFFFFFFFFFFFFFFFFFFFFFFFFFFFFFF AND SWAP1 POP PUSH0 PUSH1 0x5 PUSH0 DUP4 PUSH20 0xFFFFFFFFFFFFFFFFFFFFFFFFFFFFFFFFFFFFFFFF AND PUSH20 0xFFFFFFFFFFFFFFFFFFFFFFFFFFFFFFFFFFFFFFFF AND DUP2 MSTORE PUSH1 0x20 ADD SWAP1 DUP2 MSTORE PUSH1 0x20 ADD PUSH0 KECCAK256 SLOAD SWAP1 POP PUSH0 DUP2 GT ISZERO PUSH2 0x808 JUMPI DUP2 DUP6 DUP5 DUP2 MLOAD DUP2 LT PUSH2 0x7AD JUMPI PUSH2 0x7AC PUSH2 0x15CE JUMP JUMPDEST JUMPDEST PUSH1 0x20 MUL PUSH1 0x20 ADD ADD SWAP1 PUSH20 0xFFFFFFFFFFFFFFFFFFFFFFFFFFFFFFFFFFFFFFFF AND SWAP1 DUP2 PUSH20 0xFFFFFFFFFFFFFFFFFFFFFFFFFFFFFFFFFFFFFFFF AND DUP2 MSTORE POP POP DUP1 DUP5 DUP5 DUP2 MLOAD DUP2 LT PUSH2 0x7FB JUMPI PUSH2 0x7FA PUSH2 0x15CE JUMP JUMPDEST JUMPDEST PUSH1 0x20 MUL PUSH1 0x20 ADD ADD DUP2 DUP2 MSTORE POP POP JUMPDEST POP POP DUP1 DUP1 PUSH2 0x815 SWAP1 PUSH2 0x1628 JUMP JUMPDEST SWAP2 POP POP PUSH2 0x709 JUMP JUMPDEST POP PUSH32 0x6D1C76D614228B523BAA4DCD9539E2C713B54FF4AB3FF2D1627E7F6CD32BE442 DUP4 PUSH1 0x40 MLOAD PUSH2 0x84D SWAP2 SWAP1 PUSH2 0xF92 JUMP JUMPDEST PUSH1 0x40 MLOAD DUP1 SWAP2 SUB SWAP1 LOG1 DUP2 DUP2 SWAP8 POP SWAP8 POP POP POP POP POP POP POP SWAP1 SWAP2 JUMP JUMPDEST PUSH0 SLOAD DUP2 JUMP JUMPDEST PUSH1 0x5 PUSH1 0x20 MSTORE DUP1 PUSH0 MSTORE PUSH1 0x40 PUSH0 KECCAK256 PUSH0 SWAP2 POP SWAP1 POP SLOAD DUP2 JUMP JUMPDEST PUSH0 DUP1 PUSH1 0x2 DUP2 GT ISZERO PUSH2 0x893 JUMPI PUSH2 0x892 PUSH2 0x1254 JUMP JUMPDEST JUMPDEST PUSH1 0x3 PUSH0 SWAP1 SLOAD SWAP1 PUSH2 0x100 EXP SWAP1 DIV PUSH1 0xFF AND PUSH1 0x2 DUP2 GT ISZERO PUSH2 0x8B4 JUMPI PUSH2 0x8B3 PUSH2 0x1254 JUMP JUMPDEST JUMPDEST EQ PUSH2 0x8F4 JUMPI PUSH1 0x40 MLOAD PUSH32 0x8C379A000000000000000000000000000000000000000000000000000000000 DUP2 MSTORE PUSH1 0x4 ADD PUSH2 0x8EB SWAP1 PUSH2 0x13A2 JUMP JUMPDEST PUSH1 0x40 MLOAD DUP1 SWAP2 SUB SWAP1 REVERT JUMPDEST PUSH1 0x1 SLOAD TIMESTAMP LT ISZERO PUSH2 0x939 JUMPI PUSH1 0x40 MLOAD PUSH32 0x8C379A000000000000000000000000000000000000000000000000000000000 DUP2 MSTORE PUSH1 0x4 ADD PUSH2 0x930 SWAP1 PUSH2 0x16B9 JUMP JUMPDEST PUSH1 0x40 MLOAD DUP1 SWAP2 SUB SWAP1 REVERT JUMPDEST PUSH0 SLOAD PUSH1 0x2 SLOAD LT PUSH2 0x97E JUMPI PUSH1 0x40 MLOAD PUSH32 0x8C379A000000000000000000000000000000000000000000000000000000000 DUP2 MSTORE PUSH1 0x4 ADD PUSH2 0x975 SWAP1 PUSH2 0x1721 JUMP JUMPDEST PUSH1 0x40 MLOAD DUP1 SWAP2 SUB SWAP1 REVERT JUMPDEST PUSH1 0x2 PUSH1 0x3 PUSH0 PUSH2 0x100 EXP DUP2 SLOAD DUP2 PUSH1 0xFF MUL NOT AND SWAP1 DUP4 PUSH1 0x2 DUP2 GT ISZERO PUSH2 0x9A3 JUMPI PUSH2 0x9A2 PUSH2 0x1254 JUMP JUMPDEST JUMPDEST MUL OR SWAP1 SSTORE POP PUSH32 0x551DC40198CC79684BB69E4931DBA4AC16E4598792EE1C0A5000AEEA366D7BB6 PUSH1 0x3 PUSH0 SWAP1 SLOAD SWAP1 PUSH2 0x100 EXP SWAP1 DIV PUSH1 0xFF AND PUSH1 0x40 MLOAD PUSH2 0x9E5 SWAP2 SWAP1 PUSH2 0x12C7 JUMP JUMPDEST PUSH1 0x40 MLOAD DUP1 SWAP2 SUB SWAP1 LOG1 PUSH2 0x9F6 CALLER PUSH2 0xDBA JUMP JUMPDEST POP JUMP JUMPDEST PUSH1 0x3 PUSH1 0x1 SWAP1 SLOAD SWAP1 PUSH2 0x100 EXP SWAP1 DIV PUSH20 0xFFFFFFFFFFFFFFFFFFFFFFFFFFFFFFFFFFFFFFFF AND DUP2 JUMP JUMPDEST PUSH1 0x2 DUP1 PUSH1 0x2 DUP2 GT ISZERO PUSH2 0xA34 JUMPI PUSH2 0xA33 PUSH2 0x1254 JUMP JUMPDEST JUMPDEST PUSH1 0x3 PUSH0 SWAP1 SLOAD SWAP1 PUSH2 0x100 EXP SWAP1 DIV PUSH1 0xFF AND PUSH1 0x2 DUP2 GT ISZERO PUSH2 0xA55 JUMPI PUSH2 0xA54 PUSH2 0x1254 JUMP JUMPDEST JUMPDEST EQ PUSH2 0xA95 JUMPI PUSH1 0x40 MLOAD PUSH32 0x8C379A000000000000000000000000000000000000000000000000000000000 DUP2 MSTORE PUSH1 0x4 ADD PUSH2 0xA8C SWAP1 PUSH2 0x13A2 JUMP JUMPDEST PUSH1 0x40 MLOAD DUP1 SWAP2 SUB SWAP1 REVERT JUMPDEST PUSH2 0xA9E CALLER PUSH2 0xDBA JUMP JUMPDEST POP JUMP JUMPDEST PUSH1 0x3 PUSH0 SWAP1 SLOAD SWAP1 PUSH2 0x100 EXP SWAP1 DIV PUSH1 0xFF AND DUP2 JUMP JUMPDEST PUSH1 0x4 PUSH0 SWAP1 SLOAD SWAP1 PUSH2 0x100 EXP SWAP1 DIV PUSH20 0xFFFFFFFFFFFFFFFFFFFFFFFFFFFFFFFFFFFFFFFF AND DUP2 JUMP JUMPDEST PUSH0 DUP1 PUSH1 0x2 DUP2 GT ISZERO PUSH2 0xAEC JUMPI PUSH2 0xAEB PUSH2 0x1254 JUMP JUMPDEST JUMPDEST PUSH1 0x3 PUSH0 SWAP1 SLOAD SWAP1 PUSH2 0x100 EXP SWAP1 DIV PUSH1 0xFF AND PUSH1 0x2 DUP2 GT ISZERO PUSH2 0xB0D JUMPI PUSH2 0xB0C PUSH2 0x1254 JUMP JUMPDEST JUMPDEST EQ PUSH2 0xB4D JUMPI PUSH1 0x40 MLOAD PUSH32 0x8C379A000000000000000000000000000000000000000000000000000000000 DUP2 MSTORE PUSH1 0x4 ADD PUSH2 0xB44 SWAP1 PUSH2 0x13A2 JUMP JUMPDEST PUSH1 0x40 MLOAD DUP1 SWAP2 SUB SWAP1 REVERT JUMPDEST PUSH1 0x1 SLOAD TIMESTAMP LT PUSH2 0xB91 JUMPI PUSH1 0x40 MLOAD PUSH32 0x8C379A000000000000000000000000000000000000000000000000000000000 DUP2 MSTORE PUSH1 0x4 ADD PUSH2 0xB88 SWAP1 PUSH2 0x1789 JUMP JUMPDEST PUSH1 0x40 MLOAD DUP1 SWAP2 SUB SWAP1 REVERT JUMPDEST PUSH0 CALLVALUE GT PUSH2 0xBD3 JUMPI PUSH1 0x40 MLOAD PUSH32 0x8C379A000000000000000000000000000000000000000000000000000000000 DUP2 MSTORE PUSH1 0x4 ADD PUSH2 0xBCA SWAP1 PUSH2 0x17F1 JUMP JUMPDEST PUSH1 0x40 MLOAD DUP1 SWAP2 SUB SWAP1 REVERT JUMPDEST PUSH0 PUSH1 0x5 PUSH0 CALLER PUSH20 0xFFFFFFFFFFFFFFFFFFFFFFFFFFFFFFFFFFFFFFFF AND PUSH20 0xFFFFFFFFFFFFFFFFFFFFFFFFFFFFFFFFFFFFFFFF AND DUP2 MSTORE PUSH1 0x20 ADD SWAP1 DUP2 MSTORE PUSH1 0x20 ADD PUSH0 KECCAK256 SLOAD SUB PUSH2 0xC78 JUMPI PUSH1 0x6 CALLER SWAP1 DUP1 PUSH1 0x1 DUP2 SLOAD ADD DUP1 DUP3 SSTORE DUP1 SWAP2 POP POP PUSH1 0x1 SWAP1 SUB SWAP1 PUSH0 MSTORE PUSH1 0x20 PUSH0 KECCAK256 ADD PUSH0 SWAP1 SWAP2 SWAP1 SWAP2 SWAP1 SWAP2 PUSH2 0x100 EXP DUP2 SLOAD DUP2 PUSH20 0xFFFFFFFFFFFFFFFFFFFFFFFFFFFFFFFFFFFFFFFF MUL NOT AND SWAP1 DUP4 PUSH20 0xFFFFFFFFFFFFFFFFFFFFFFFFFFFFFFFFFFFFFFFF AND MUL OR SWAP1 SSTORE POP JUMPDEST CALLVALUE PUSH1 0x5 PUSH0 CALLER PUSH20 0xFFFFFFFFFFFFFFFFFFFFFFFFFFFFFFFFFFFFFFFF AND PUSH20 0xFFFFFFFFFFFFFFFFFFFFFFFFFFFFFFFFFFFFFFFF AND DUP2 MSTORE PUSH1 0x20 ADD SWAP1 DUP2 MSTORE PUSH1 0x20 ADD PUSH0 KECCAK256 PUSH0 DUP3 DUP3 SLOAD PUSH2 0xCC4 SWAP2 SWAP1 PUSH2 0x180F JUMP JUMPDEST SWAP3 POP POP DUP2 SWAP1 SSTORE POP CALLVALUE PUSH1 0x2 PUSH0 DUP3 DUP3 SLOAD PUSH2 0xCDC SWAP2 SWAP1 PUSH2 0x180F JUMP JUMPDEST SWAP3 POP POP DUP2 SWAP1 SSTORE POP CALLER PUSH20 0xFFFFFFFFFFFFFFFFFFFFFFFFFFFFFFFFFFFFFFFF AND PUSH32 0x4D154D4AAE216BED6D0926DB77C00DF2B57C6B5BA4EEE05775DE20FACEDE3A7B CALLVALUE PUSH1 0x40 MLOAD PUSH2 0xD29 SWAP2 SWAP1 PUSH2 0xF92 JUMP JUMPDEST PUSH1 0x40 MLOAD DUP1 SWAP2 SUB SWAP1 LOG2 PUSH0 SLOAD PUSH1 0x2 SLOAD LT PUSH2 0xDAB JUMPI PUSH1 0x1 PUSH1 0x3 PUSH0 PUSH2 0x100 EXP DUP2 SLOAD DUP2 PUSH1 0xFF MUL NOT AND SWAP1 DUP4 PUSH1 0x2 DUP2 GT ISZERO PUSH2 0xD60 JUMPI PUSH2 0xD5F PUSH2 0x1254 JUMP JUMPDEST JUMPDEST MUL OR SWAP1 SSTORE POP PUSH32 0x551DC40198CC79684BB69E4931DBA4AC16E4598792EE1C0A5000AEEA366D7BB6 PUSH1 0x3 PUSH0 SWAP1 SLOAD SWAP1 PUSH2 0x100 EXP SWAP1 DIV PUSH1 0xFF AND PUSH1 0x40 MLOAD PUSH2 0xDA2 SWAP2 SWAP1 PUSH2 0x12C7 JUMP JUMPDEST PUSH1 0x40 MLOAD DUP1 SWAP2 SUB SWAP1 LOG1 JUMPDEST POP JUMP JUMPDEST PUSH0 PUSH1 0x6 DUP1 SLOAD SWAP1 POP SWAP1 POP SWAP1 JUMP JUMPDEST PUSH0 PUSH1 0x5 PUSH0 DUP4 PUSH20 0xFFFFFFFFFFFFFFFFFFFFFFFFFFFFFFFFFFFFFFFF AND PUSH20 0xFFFFFFFFFFFFFFFFFFFFFFFFFFFFFFFFFFFFFFFF AND DUP2 MSTORE PUSH1 0x20 ADD SWAP1 DUP2 MSTORE PUSH1 0x20 ADD PUSH0 KECCAK256 SLOAD SWAP1 POP PUSH0 DUP2 GT PUSH2 0xE3D JUMPI PUSH1 0x40 MLOAD PUSH32 0x8C379A000000000000000000000000000000000000000000000000000000000 DUP2 MSTORE PUSH1 0x4 ADD PUSH2 0xE34 SWAP1 PUSH2 0x188C JUMP JUMPDEST PUSH1 0x40 MLOAD DUP1 SWAP2 SUB SWAP1 REVERT JUMPDEST PUSH0 PUSH1 0x5 PUSH0 DUP5 PUSH20 0xFFFFFFFFFFFFFFFFFFFFFFFFFFFFFFFFFFFFFFFF AND PUSH20 0xFFFFFFFFFFFFFFFFFFFFFFFFFFFFFFFFFFFFFFFF AND DUP2 MSTORE PUSH1 0x20 ADD SWAP1 DUP2 MSTORE PUSH1 0x20 ADD PUSH0 KECCAK256 DUP2 SWAP1 SSTORE POP PUSH0 DUP3 PUSH20 0xFFFFFFFFFFFFFFFFFFFFFFFFFFFFFFFFFFFFFFFF AND DUP3 PUSH1 0x40 MLOAD PUSH2 0xEA4 SWAP1 PUSH2 0x14BD JUMP JUMPDEST PUSH0 PUSH1 0x40 MLOAD DUP1 DUP4 SUB DUP2 DUP6 DUP8 GAS CALL SWAP3 POP POP POP RETURNDATASIZE DUP1 PUSH0 DUP2 EQ PUSH2 0xEDE JUMPI PUSH1 0x40 MLOAD SWAP2 POP PUSH1 0x1F NOT PUSH1 0x3F RETURNDATASIZE ADD AND DUP3 ADD PUSH1 0x40 MSTORE RETURNDATASIZE DUP3 MSTORE RETURNDATASIZE PUSH0 PUSH1 0x20 DUP5 ADD RETURNDATACOPY PUSH2 0xEE3 JUMP JUMPDEST PUSH1 0x60 SWAP2 POP JUMPDEST POP POP SWAP1 POP DUP1 PUSH2 0xF27 JUMPI PUSH1 0x40 MLOAD PUSH32 0x8C379A000000000000000000000000000000000000000000000000000000000 DUP2 MSTORE PUSH1 0x4 ADD PUSH2 0xF1E SWAP1 PUSH2 0x18F4 JUMP JUMPDEST PUSH1 0x40 MLOAD DUP1 SWAP2 SUB SWAP1 REVERT JUMPDEST DUP3 PUSH20 0xFFFFFFFFFFFFFFFFFFFFFFFFFFFFFFFFFFFFFFFF AND PUSH32 0xBB28353E4598C3B9199101A66E0989549B659A59A54D2C27FBB183F1932C8E6D DUP4 PUSH1 0x40 MLOAD PUSH2 0xF6D SWAP2 SWAP1 PUSH2 0xF92 JUMP JUMPDEST PUSH1 0x40 MLOAD DUP1 SWAP2 SUB SWAP1 LOG2 POP POP POP JUMP JUMPDEST PUSH0 DUP2 SWAP1 POP SWAP2 SWAP1 POP JUMP JUMPDEST PUSH2 0xF8C DUP2 PUSH2 0xF7A JUMP JUMPDEST DUP3 MSTORE POP POP JUMP JUMPDEST PUSH0 PUSH1 0x20 DUP3 ADD SWAP1 POP PUSH2 0xFA5 PUSH0 DUP4 ADD DUP5 PUSH2 0xF83 JUMP JUMPDEST SWAP3 SWAP2 POP POP JUMP JUMPDEST PUSH0 DUP1 REVERT JUMPDEST PUSH2 0xFB8 DUP2 PUSH2 0xF7A JUMP JUMPDEST DUP2 EQ PUSH2 0xFC2 JUMPI PUSH0 DUP1 REVERT JUMPDEST POP JUMP JUMPDEST PUSH0 DUP2 CALLDATALOAD SWAP1 POP PUSH2 0xFD3 DUP2 PUSH2 0xFAF JUMP JUMPDEST SWAP3 SWAP2 POP POP JUMP JUMPDEST PUSH0 PUSH1 0x20 DUP3 DUP5 SUB SLT ISZERO PUSH2 0xFEE JUMPI PUSH2 0xFED PUSH2 0xFAB JUMP JUMPDEST JUMPDEST PUSH0 PUSH2 0xFFB DUP5 DUP3 DUP6 ADD PUSH2 0xFC5 JUMP JUMPDEST SWAP2 POP POP SWAP3 SWAP2 POP POP JUMP JUMPDEST PUSH0 PUSH20 0xFFFFFFFFFFFFFFFFFFFFFFFFFFFFFFFFFFFFFFFF DUP3 AND SWAP1 POP SWAP2 SWAP1 POP JUMP JUMPDEST PUSH0 PUSH2 0x102D DUP3 PUSH2 0x1004 JUMP JUMPDEST SWAP1 POP SWAP2 SWAP1 POP JUMP JUMPDEST PUSH2 0x103D DUP2 PUSH2 0x1023 JUMP JUMPDEST DUP3 MSTORE POP POP JUMP JUMPDEST PUSH0 PUSH1 0x20 DUP3 ADD SWAP1 POP PUSH2 0x1056 PUSH0 DUP4 ADD DUP5 PUSH2 0x1034 JUMP JUMPDEST SWAP3 SWAP2 POP POP JUMP JUMPDEST PUSH0 DUP2 MLOAD SWAP1 POP SWAP2 SWAP1 POP JUMP JUMPDEST PUSH0 DUP3 DUP3 MSTORE PUSH1 0x20 DUP3 ADD SWAP1 POP SWAP3 SWAP2 POP POP JUMP JUMPDEST PUSH0 DUP2 SWAP1 POP PUSH1 0x20 DUP3 ADD SWAP1 POP SWAP2 SWAP1 POP JUMP JUMPDEST PUSH2 0x108E DUP2 PUSH2 0x1023 JUMP JUMPDEST DUP3 MSTORE POP POP JUMP JUMPDEST PUSH0 PUSH2 0x109F DUP4 DUP4 PUSH2 0x1085 JUMP JUMPDEST PUSH1 0x20 DUP4 ADD SWAP1 POP SWAP3 SWAP2 POP POP JUMP JUMPDEST PUSH0 PUSH1 0x20 DUP3 ADD SWAP1 POP SWAP2 SWAP1 POP JUMP JUMPDEST PUSH0 PUSH2 0x10C1 DUP3 PUSH2 0x105C JUMP JUMPDEST PUSH2 0x10CB DUP2 DUP6 PUSH2 0x1066 JUMP JUMPDEST SWAP4 POP PUSH2 0x10D6 DUP4 PUSH2 0x1076 JUMP JUMPDEST DUP1 PUSH0 JUMPDEST DUP4 DUP2 LT ISZERO PUSH2 0x1106 JUMPI DUP2 MLOAD PUSH2 0x10ED DUP9 DUP3 PUSH2 0x1094 JUMP JUMPDEST SWAP8 POP PUSH2 0x10F8 DUP4 PUSH2 0x10AB JUMP JUMPDEST SWAP3 POP POP PUSH1 0x1 DUP2 ADD SWAP1 POP PUSH2 0x10D9 JUMP JUMPDEST POP DUP6 SWAP4 POP POP POP POP SWAP3 SWAP2 POP POP JUMP JUMPDEST PUSH0 DUP2 MLOAD SWAP1 POP SWAP2 SWAP1 POP JUMP JUMPDEST PUSH0 DUP3 DUP3 MSTORE PUSH1 0x20 DUP3 ADD SWAP1 POP SWAP3 SWAP2 POP POP JUMP JUMPDEST PUSH0 DUP2 SWAP1 POP PUSH1 0x20 DUP3 ADD SWAP1 POP SWAP2 SWAP1 POP JUMP JUMPDEST PUSH2 0x1145 DUP2 PUSH2 0xF7A JUMP JUMPDEST DUP3 MSTORE POP POP JUMP JUMPDEST PUSH0 PUSH2 0x1156 DUP4 DUP4 PUSH2 0x113C JUMP JUMPDEST PUSH1 0x20 DUP4 ADD SWAP1 POP SWAP3 SWAP2 POP POP JUMP JUMPDEST PUSH0 PUSH1 0x20 DUP3 ADD SWAP1 POP SWAP2 SWAP1 POP JUMP JUMPDEST PUSH0 PUSH2 0x1178 DUP3 PUSH2 0x1113 JUMP JUMPDEST PUSH2 0x1182 DUP2 DUP6 PUSH2 0x111D JUMP JUMPDEST SWAP4 POP PUSH2 0x118D DUP4 PUSH2 0x112D JUMP JUMPDEST DUP1 PUSH0 JUMPDEST DUP4 DUP2 LT ISZERO PUSH2 0x11BD JUMPI DUP2 MLOAD PUSH2 0x11A4 DUP9 DUP3 PUSH2 0x114B JUMP JUMPDEST SWAP8 POP PUSH2 0x11AF DUP4 PUSH2 0x1162 JUMP JUMPDEST SWAP3 POP POP PUSH1 0x1 DUP2 ADD SWAP1 POP PUSH2 0x1190 JUMP JUMPDEST POP DUP6 SWAP4 POP POP POP POP SWAP3 SWAP2 POP POP JUMP JUMPDEST PUSH0 PUSH1 0x40 DUP3 ADD SWAP1 POP DUP2 DUP2 SUB PUSH0 DUP4 ADD MSTORE PUSH2 0x11E2 DUP2 DUP6 PUSH2 0x10B7 JUMP JUMPDEST SWAP1 POP DUP2 DUP2 SUB PUSH1 0x20 DUP4 ADD MSTORE PUSH2 0x11F6 DUP2 DUP5 PUSH2 0x116E JUMP JUMPDEST SWAP1 POP SWAP4 SWAP3 POP POP POP JUMP JUMPDEST PUSH2 0x1208 DUP2 PUSH2 0x1023 JUMP JUMPDEST DUP2 EQ PUSH2 0x1212 JUMPI PUSH0 DUP1 REVERT JUMPDEST POP JUMP JUMPDEST PUSH0 DUP2 CALLDATALOAD SWAP1 POP PUSH2 0x1223 DUP2 PUSH2 0x11FF JUMP JUMPDEST SWAP3 SWAP2 POP POP JUMP JUMPDEST PUSH0 PUSH1 0x20 DUP3 DUP5 SUB SLT ISZERO PUSH2 0x123E JUMPI PUSH2 0x123D PUSH2 0xFAB JUMP JUMPDEST JUMPDEST PUSH0 PUSH2 0x124B DUP5 DUP3 DUP6 ADD PUSH2 0x1215 JUMP JUMPDEST SWAP2 POP POP SWAP3 SWAP2 POP POP JUMP JUMPDEST PUSH32 0x4E487B7100000000000000000000000000000000000000000000000000000000 PUSH0 MSTORE PUSH1 0x21 PUSH1 0x4 MSTORE PUSH1 0x24 PUSH0 REVERT JUMPDEST PUSH1 0x3 DUP2 LT PUSH2 0x1292 JUMPI PUSH2 0x1291 PUSH2 0x1254 JUMP JUMPDEST JUMPDEST POP JUMP JUMPDEST PUSH0 DUP2 SWAP1 POP PUSH2 0x12A2 DUP3 PUSH2 0x1281 JUMP JUMPDEST SWAP2 SWAP1 POP JUMP JUMPDEST PUSH0 PUSH2 0x12B1 DUP3 PUSH2 0x1295 JUMP JUMPDEST SWAP1 POP SWAP2 SWAP1 POP JUMP JUMPDEST PUSH2 0x12C1 DUP2 PUSH2 0x12A7 JUMP JUMPDEST DUP3 MSTORE POP POP JUMP JUMPDEST PUSH0 PUSH1 0x20 DUP3 ADD SWAP1 POP PUSH2 0x12DA PUSH0 DUP4 ADD DUP5 PUSH2 0x12B8 JUMP JUMPDEST SWAP3 SWAP2 POP POP JUMP JUMPDEST PUSH0 DUP3 DUP3 MSTORE PUSH1 0x20 DUP3 ADD SWAP1 POP SWAP3 SWAP2 POP POP JUMP JUMPDEST PUSH32 0x4E6F7420666163746F7279000000000000000000000000000000000000000000 PUSH0 DUP3 ADD MSTORE POP JUMP JUMPDEST PUSH0 PUSH2 0x1324 PUSH1 0xB DUP4 PUSH2 0x12E0 JUMP JUMPDEST SWAP2 POP PUSH2 0x132F DUP3 PUSH2 0x12F0 JUMP JUMPDEST PUSH1 0x20 DUP3 ADD SWAP1 POP SWAP2 SWAP1 POP JUMP JUMPDEST PUSH0 PUSH1 0x20 DUP3 ADD SWAP1 POP DUP2 DUP2 SUB PUSH0 DUP4 ADD MSTORE PUSH2 0x1351 DUP2 PUSH2 0x1318 JUMP JUMPDEST SWAP1 POP SWAP2 SWAP1 POP JUMP JUMPDEST PUSH32 0x496E76616C696420737461746500000000000000000000000000000000000000 PUSH0 DUP3 ADD MSTORE POP JUMP JUMPDEST PUSH0 PUSH2 0x138C PUSH1 0xD DUP4 PUSH2 0x12E0 JUMP JUMPDEST SWAP2 POP PUSH2 0x1397 DUP3 PUSH2 0x1358 JUMP JUMPDEST PUSH1 0x20 DUP3 ADD SWAP1 POP SWAP2 SWAP1 POP JUMP JUMPDEST PUSH0 PUSH1 0x20 DUP3 ADD SWAP1 POP DUP2 DUP2 SUB PUSH0 DUP4 ADD MSTORE PUSH2 0x13B9 DUP2 PUSH2 0x1380 JUMP JUMPDEST SWAP1 POP SWAP2 SWAP1 POP JUMP JUMPDEST PUSH32 0x5761697420756E74696C20646561646C696E6500000000000000000000000000 PUSH0 DUP3 ADD MSTORE POP JUMP JUMPDEST PUSH0 PUSH2 0x13F4 PUSH1 0x13 DUP4 PUSH2 0x12E0 JUMP JUMPDEST SWAP2 POP PUSH2 0x13FF DUP3 PUSH2 0x13C0 JUMP JUMPDEST PUSH1 0x20 DUP3 ADD SWAP1 POP SWAP2 SWAP1 POP JUMP JUMPDEST PUSH0 PUSH1 0x20 DUP3 ADD SWAP1 POP DUP2 DUP2 SUB PUSH0 DUP4 ADD MSTORE PUSH2 0x1421 DUP2 PUSH2 0x13E8 JUMP JUMPDEST SWAP1 POP SWAP2 SWAP1 POP JUMP JUMPDEST PUSH32 0x4E6F7468696E6720746F20776974686472617700000000000000000000000000 PUSH0 DUP3 ADD MSTORE POP JUMP JUMPDEST PUSH0 PUSH2 0x145C PUSH1 0x13 DUP4 PUSH2 0x12E0 JUMP JUMPDEST SWAP2 POP PUSH2 0x1467 DUP3 PUSH2 0x1428 JUMP JUMPDEST PUSH1 0x20 DUP3 ADD SWAP1 POP SWAP2 SWAP1 POP JUMP JUMPDEST PUSH0 PUSH1 0x20 DUP3 ADD SWAP1 POP DUP2 DUP2 SUB PUSH0 DUP4 ADD MSTORE PUSH2 0x1489 DUP2 PUSH2 0x1450 JUMP JUMPDEST SWAP1 POP SWAP2 SWAP1 POP JUMP JUMPDEST PUSH0 DUP2 SWAP1 POP SWAP3 SWAP2 POP POP JUMP JUMPDEST POP JUMP JUMPDEST PUSH0 PUSH2 0x14A8 PUSH0 DUP4 PUSH2 0x1490 JUMP JUMPDEST SWAP2 POP PUSH2 0x14B3 DUP3 PUSH2 0x149A JUMP JUMPDEST PUSH0 DUP3 ADD SWAP1 POP SWAP2 SWAP1 POP JUMP JUMPDEST PUSH0 PUSH2 0x14C7 DUP3 PUSH2 0x149D JUMP JUMPDEST SWAP2 POP DUP2 SWAP1 POP SWAP2 SWAP1 POP JUMP JUMPDEST PUSH32 0x455448207472616E73666572206661696C656400000000000000000000000000 PUSH0 DUP3 ADD MSTORE POP JUMP JUMPDEST PUSH0 PUSH2 0x1505 PUSH1 0x13 DUP4 PUSH2 0x12E0 JUMP JUMPDEST SWAP2 POP PUSH2 0x1510 DUP3 PUSH2 0x14D1 JUMP JUMPDEST PUSH1 0x20 DUP3 ADD SWAP1 POP SWAP2 SWAP1 POP JUMP JUMPDEST PUSH0 PUSH1 0x20 DUP3 ADD SWAP1 POP DUP2 DUP2 SUB PUSH0 DUP4 ADD MSTORE PUSH2 0x1532 DUP2 PUSH2 0x14F9 JUMP JUMPDEST SWAP1 POP SWAP2 SWAP1 POP JUMP JUMPDEST PUSH32 0x4E6F20636F6E7472696275746F72730000000000000000000000000000000000 PUSH0 DUP3 ADD MSTORE POP JUMP JUMPDEST PUSH0 PUSH2 0x156D PUSH1 0xF DUP4 PUSH2 0x12E0 JUMP JUMPDEST SWAP2 POP PUSH2 0x1578 DUP3 PUSH2 0x1539 JUMP JUMPDEST PUSH1 0x20 DUP3 ADD SWAP1 POP SWAP2 SWAP1 POP JUMP JUMPDEST PUSH0 PUSH1 0x20 DUP3 ADD SWAP1 POP DUP2 DUP2 SUB PUSH0 DUP4 ADD MSTORE PUSH2 0x159A DUP2 PUSH2 0x1561 JUMP JUMPDEST SWAP1 POP SWAP2 SWAP1 POP JUMP JUMPDEST PUSH32 0x4E487B7100000000000000000000000000000000000000000000000000000000 PUSH0 MSTORE PUSH1 0x41 PUSH1 0x4 MSTORE PUSH1 0x24 PUSH0 REVERT JUMPDEST PUSH32 0x4E487B7100000000000000000000000000000000000000000000000000000000 PUSH0 MSTORE PUSH1 0x32 PUSH1 0x4 MSTORE PUSH1 0x24 PUSH0 REVERT JUMPDEST PUSH32 0x4E487B7100000000000000000000000000000000000000000000000000000000 PUSH0 MSTORE PUSH1 0x11 PUSH1 0x4 MSTORE PUSH1 0x24 PUSH0 REVERT JUMPDEST PUSH0 PUSH2 0x1632 DUP3 PUSH2 0xF7A JUMP JUMPDEST SWAP2 POP PUSH32 0xFFFFFFFFFFFFFFFFFFFFFFFFFFFFFFFFFFFFFFFFFFFFFFFFFFFFFFFFFFFFFFFF DUP3 SUB PUSH2 0x1664 JUMPI PUSH2 0x1663 PUSH2 0x15FB JUMP JUMPDEST JUMPDEST PUSH1 0x1 DUP3 ADD SWAP1 POP SWAP2 SWAP1 POP JUMP JUMPDEST PUSH32 0x446561646C696E65206E6F742072656163686564000000000000000000000000 PUSH0 DUP3 ADD MSTORE POP JUMP JUMPDEST PUSH0 PUSH2 0x16A3 PUSH1 0x14 DUP4 PUSH2 0x12E0 JUMP JUMPDEST SWAP2 POP PUSH2 0x16AE DUP3 PUSH2 0x166F JUMP JUMPDEST PUSH1 0x20 DUP3 ADD SWAP1 POP SWAP2 SWAP1 POP JUMP JUMPDEST PUSH0 PUSH1 0x20 DUP3 ADD SWAP1 POP DUP2 DUP2 SUB PUSH0 DUP4 ADD MSTORE PUSH2 0x16D0 DUP2 PUSH2 0x1697 JUMP JUMPDEST SWAP1 POP SWAP2 SWAP1 POP JUMP JUMPDEST PUSH32 0x476F616C20726561636865640000000000000000000000000000000000000000 PUSH0 DUP3 ADD MSTORE POP JUMP JUMPDEST PUSH0 PUSH2 0x170B PUSH1 0xC DUP4 PUSH2 0x12E0 JUMP JUMPDEST SWAP2 POP PUSH2 0x1716 DUP3 PUSH2 0x16D7 JUMP JUMPDEST PUSH1 0x20 DUP3 ADD SWAP1 POP SWAP2 SWAP1 POP JUMP JUMPDEST PUSH0 PUSH1 0x20 DUP3 ADD SWAP1 POP DUP2 DUP2 SUB PUSH0 DUP4 ADD MSTORE PUSH2 0x1738 DUP2 PUSH2 0x16FF JUMP JUMPDEST SWAP1 POP SWAP2 SWAP1 POP JUMP JUMPDEST PUSH32 0x446561646C696E65207061737365640000000000000000000000000000000000 PUSH0 DUP3 ADD MSTORE POP JUMP JUMPDEST PUSH0 PUSH2 0x1773 PUSH1 0xF DUP4 PUSH2 0x12E0 JUMP JUMPDEST SWAP2 POP PUSH2 0x177E DUP3 PUSH2 0x173F JUMP JUMPDEST PUSH1 0x20 DUP3 ADD SWAP1 POP SWAP2 SWAP1 POP JUMP JUMPDEST PUSH0 PUSH1 0x20 DUP3 ADD SWAP1 POP DUP2 DUP2 SUB PUSH0 DUP4 ADD MSTORE PUSH2 0x17A0 DUP2 PUSH2 0x1767 JUMP JUMPDEST SWAP1 POP SWAP2 SWAP1 POP JUMP JUMPDEST PUSH32 0x4E6F204554482073656E74000000000000000000000000000000000000000000 PUSH0 DUP3 ADD MSTORE POP JUMP JUMPDEST PUSH0 PUSH2 0x17DB PUSH1 0xB DUP4 PUSH2 0x12E0 JUMP JUMPDEST SWAP2 POP PUSH2 0x17E6 DUP3 PUSH2 0x17A7 JUMP JUMPDEST PUSH1 0x20 DUP3 ADD SWAP1 POP SWAP2 SWAP1 POP JUMP JUMPDEST PUSH0 PUSH1 0x20 DUP3 ADD SWAP1 POP DUP2 DUP2 SUB PUSH0 DUP4 ADD MSTORE PUSH2 0x1808 DUP2 PUSH2 0x17CF JUMP JUMPDEST SWAP1 POP SWAP2 SWAP1 POP JUMP JUMPDEST PUSH0 PUSH2 0x1819 DUP3 PUSH2 0xF7A JUMP JUMPDEST SWAP2 POP PUSH2 0x1824 DUP4 PUSH2 0xF7A JUMP JUMPDEST SWAP3 POP DUP3 DUP3 ADD SWAP1 POP DUP1 DUP3 GT ISZERO PUSH2 0x183C JUMPI PUSH2 0x183B PUSH2 0x15FB JUMP JUMPDEST JUMPDEST SWAP3 SWAP2 POP POP JUMP JUMPDEST PUSH32 0x4E6F7468696E6720746F20726566756E64000000000000000000000000000000 PUSH0 DUP3 ADD MSTORE POP JUMP JUMPDEST PUSH0 PUSH2 0x1876 PUSH1 0x11 DUP4 PUSH2 0x12E0 JUMP JUMPDEST SWAP2 POP PUSH2 0x1881 DUP3 PUSH2 0x1842 JUMP JUMPDEST PUSH1 0x20 DUP3 ADD SWAP1 POP SWAP2 SWAP1 POP JUMP JUMPDEST PUSH0 PUSH1 0x20 DUP3 ADD SWAP1 POP DUP2 DUP2 SUB PUSH0 DUP4 ADD MSTORE PUSH2 0x18A3 DUP2 PUSH2 0x186A JUMP JUMPDEST SWAP1 POP SWAP2 SWAP1 POP JUMP JUMPDEST PUSH32 0x526566756E64207472616E73666572206661696C656400000000000000000000 PUSH0 DUP3 ADD MSTORE POP JUMP JUMPDEST PUSH0 PUSH2 0x18DE PUSH1 0x16 DUP4 PUSH2 0x12E0 JUMP JUMPDEST SWAP2 POP PUSH2 0x18E9 DUP3 PUSH2 0x18AA JUMP JUMPDEST PUSH1 0x20 DUP3 ADD SWAP1 POP SWAP2 SWAP1 POP JUMP JUMPDEST PUSH0 PUSH1 0x20 DUP3 ADD SWAP1 POP DUP2 DUP2 SUB PUSH0 DUP4 ADD MSTORE PUSH2 0x190B DUP2 PUSH2 0x18D2 JUMP JUMPDEST SWAP1 POP SWAP2 SWAP1 POP JUMP INVALID LOG2 PUSH5 0x6970667358 0x22 SLT KECCAK256 0xBE SSTORE 0xA6 DUP15 SLT 0xC9 MUL MSTORE8 DUP2 0xE7 0xB3 DUP8 SWAP10 SWAP5 0x4D BLOCKHASH 0xDC PUSH8 0x490469874DD4259E 0xEB SWAP9 PUSH2 0x5B0D JUMP PUSH5 0x736F6C6343 STOP ADDMOD EQ STOP CALLER "
				},
				"gasEstimates": {
					"creation": {
						"codeDepositCost": "1294400",
						"executionCost": "infinite",
						"totalCost": "infinite"
					},
					"external": {
						"claimRefund()": "infinite",
						"contribute()": "infinite",
						"contributions(address)": "2891",
						"contributors(uint256)": "4967",
						"deadline()": "2493",
						"factory()": "2552",
						"getBalance()": "380",
						"getContributorsCount()": "2528",
						"goal()": "2491",
						"owner()": "2604",
						"refund()": "infinite",
						"state()": "2576",
						"totalContributed()": "2449",
						"withdrawAndPrepareRewards()": "infinite"
					},
					"internal": {
						"_refundContributor(address)": "infinite"
					}
				},
				"methodIdentifiers": {
					"claimRefund()": "b5545a3c",
					"contribute()": "d7bb99ba",
					"contributions(address)": "42e94c90",
					"contributors(uint256)": "3cb5d100",
					"deadline()": "29dcb0cf",
					"factory()": "c45a0155",
					"getBalance()": "12065fe0",
					"getContributorsCount()": "feed5561",
					"goal()": "40193883",
					"owner()": "8da5cb5b",
					"refund()": "590e1ae3",
					"state()": "c19d93fb",
					"totalContributed()": "023f4147",
					"withdrawAndPrepareRewards()": "3e27c8ac"
				}
			},
			"storageLayout": {
				"storage": [
					{
						"astId": 7,
						"contract": "contracts/Campaign.sol:Campaign",
						"label": "goal",
						"offset": 0,
						"slot": "0",
						"type": "t_uint256"
					},
					{
						"astId": 9,
						"contract": "contracts/Campaign.sol:Campaign",
						"label": "deadline",
						"offset": 0,
						"slot": "1",
						"type": "t_uint256"
					},
					{
						"astId": 11,
						"contract": "contracts/Campaign.sol:Campaign",
						"label": "totalContributed",
						"offset": 0,
						"slot": "2",
						"type": "t_uint256"
					},
					{
						"astId": 14,
						"contract": "contracts/Campaign.sol:Campaign",
						"label": "state",
						"offset": 0,
						"slot": "3",
						"type": "t_enum(State)5"
					},
					{
						"astId": 16,
						"contract": "contracts/Campaign.sol:Campaign",
						"label": "owner",
						"offset": 1,
						"slot": "3",
						"type": "t_address"
					},
					{
						"astId": 18,
						"contract": "contracts/Campaign.sol:Campaign",
						"label": "factory",
						"offset": 0,
						"slot": "4",
						"type": "t_address"
					},
					{
						"astId": 22,
						"contract": "contracts/Campaign.sol:Campaign",
						"label": "contributions",
						"offset": 0,
						"slot": "5",
						"type": "t_mapping(t_address,t_uint256)"
					},
					{
						"astId": 25,
						"contract": "contracts/Campaign.sol:Campaign",
						"label": "contributors",
						"offset": 0,
						"slot": "6",
						"type": "t_array(t_address)dyn_storage"
					}
				],
				"types": {
					"t_address": {
						"encoding": "inplace",
						"label": "address",
						"numberOfBytes": "20"
					},
					"t_array(t_address)dyn_storage": {
						"base": "t_address",
						"encoding": "dynamic_array",
						"label": "address[]",
						"numberOfBytes": "32"
					},
					"t_enum(State)5": {
						"encoding": "inplace",
						"label": "enum Campaign.State",
						"numberOfBytes": "1"
					},
					"t_mapping(t_address,t_uint256)": {
						"encoding": "mapping",
						"key": "t_address",
						"label": "mapping(address => uint256)",
						"numberOfBytes": "32",
						"value": "t_uint256"
					},
					"t_uint256": {
						"encoding": "inplace",
						"label": "uint256",
						"numberOfBytes": "32"
					}
				}
			},
			"userdoc": {
				"kind": "user",
				"methods": {
					"claimRefund()": {
						"notice": "Appels suivants pour les autres contributeurs après passage à l'état Failed"
					},
					"withdrawAndPrepareRewards()": {
						"notice": "Appelée par la factory lorsque le porteur retire les fonds et que les rewards doivent être calculées"
					}
				},
				"version": 1
			}
		}
	}
}